:100000000C944F010C9456030C942F030C9477011D
:100010000C9477010C9477010C9477010C94770180
:100020000C9477010C9477010C9477010C94770170
:100030000C9477010C9477010C9477010C94770160
:100040000C94E90C0C9477010C9477010C947701D3
:100050000C9477010C9477010C9477010C94770140
:100060000C947D030C947701CB15CA1671168E166D
:10007000AB1609163716F11720202020202020204B
:100080002020202020202020202020200020202090
:100090002020204C4F4144494E4720202020202042
:1000A0002000202020202020202020202020202070
:1000B0002020202020200020202020202020202060
:1000C0002020202020202020202020002020202050
:1000D0002020202020202020202020202020202020
:1000E00000202020202020424F4F54494E472020FE
:1000F0002020202020002020202020202020202020
:1001000020202020202020202020002020204D61A1
:10011000646520696E20556B7261696E65202000F0
:1001200020202020202020202020202020202020CF
:1001300020202020002020202056657273696F6ED9
:1001400020322E3335202020200020202020484936
:100150002D46492053544552454F2020202000452C
:1001600051204F4646004551204F4E0064420054F6
:10017000524520004D4F4E4F20412B42004D4F4ED7
:100180004F2042004D4F4E4F2041005354455245A1
:100190004F006442004D494420004348200064421F
:1001A00000424153200020250042414C200064427F
:1001B000004D55544500564F4C200052004C002D28
:1001C0002D2D2D2D2D2D204D555445202D2D2D2DF2
:1001D0002D2D2D002064697361626C6564002065BB
:1001E0006E61626C65640045512050415353544820
:1001F000525500204D6F6E6F2041202B2042200071
:10020000204D6F6E6F20422000204D6F6E6F204199
:100210002000204E6F726D616C2053746572656FA3
:1002200020004D4F4E4F20444F574E4D495800200F
:100230002020002025002064420020002A00200009
:10024000010204081020408001020408102001026D
:1002500004081020000000002300260029000404E8
:10026000040404040404020202020202030303035E
:10027000030300000000240027002A000000000003
:10028000250028002B0000000008000201000003E8
:100290000407000000000000000051184B18112452
:1002A0001FBECFEFD8E0DEBFCDBF12E0A0E0B1E0CF
:1002B000EEE8F6E302C005900D92A435B107D9F738
:1002C00023E0A4E5B2E001C01D92A83CB207E1F72B
:1002D00011E0CEE4D1E004C02197FE010E94141B7E
:1002E000CD34D107C9F70E94330D0C943A1B0C94FE
:1002F00000000895CF92DF92EF92FF920F931F9329
:10030000CF93DF936C017A018B01C0E0D0E0CE1572
:10031000DF0581F0D8016D918D01D601ED91FC9141
:100320000190F081E02DC6010995892B11F02196ED
:10033000EECF7E01C701DF91CF911F910F91FF900A
:10034000EF90DF90CF90089585ED8093BC00809171
:10035000BC0084FDFCCF1092410308954091F80247
:10036000262F30E0240F311D21323105DCF420919D
:1003700041032430C9F4FC0180E090E0861758F472
:100380003091F8022191DC01A852BD4FA30FB11D9D
:100390002C930196F3CF8091F802680F6093F802D6
:1003A00080E0089581E0089582E008950895089519
:1003B0000895E091590280915802E81730F4F0E076
:1003C000E854FD4F808190E008958FEF9FEF0895EE
:1003D0009091590280915802981750F4E92FF0E05B
:1003E000E854FD4F208130E09F5F9093590202C096
:1003F0002FEF3FEFC90108958091580290E02091BE
:100400005902821B91090895CF92DF92EF92FF92D9
:100410000F931F93CF93DF937C01CB018A0120912F
:100420004203222389F0EB016B01C40ED51ECC15CB
:10043000DD0569F06991D701ED91FC910190F081A2
:10044000E02DC7010995F3CF642F0E94AE01C801CA
:10045000DF91CF911F910F91FF90EF90DF90CF90A0
:100460000895CF93DF931F92CDB7DEB769832091B4
:1004700042032223D1F020916503203240F021E095
:1004800030E0FC013383228380E090E015C080914E
:100490004303E82FF0E0EC5BFC4F998190838F5F82
:1004A000809343038093650305C061E0CE0101960C
:1004B0000E94AE0181E090E00F90DF91CF9108950E
:1004C0004091700350917103E0916E03F0916F03BE
:1004D000CA019595879520916C0330916D0340FF7B
:1004E0000AC0D901A80FB91F4D915C91E40FF51F07
:1004F0000190F081E02D820F931F099440916A03CF
:1005000050916B03E0916803F0916903CA019595DE
:100510008795209166033091670340FF0AC0D90197
:10052000A80FB91F4D915C91E40FF51F0190F08168
:10053000E02D820F931F0994FC018485A085B1856D
:1005400094E0899FA00DB11D1124A60FB11D8C91BF
:10055000982F9770948788718830A9F481E0858BF3
:10056000168A2789308D85859685820F931F9687F9
:100570008587258536858681978182179307DCF4E8
:100580008681978116C08031B1F4158A81E0868B0F
:100590002789308D85859685821B930B9687858765
:1005A00025853685848195812817390724F484812F
:1005B0009581968785870895FC01A189B2899C91D0
:1005C0008489982381E009F480E09385981731F0BD
:1005D000838763856260CF010C949C020895FC01BF
:1005E000A785B0899C918389982381E009F480E0F4
:1005F0009285981729F082876285CF010C949C021E
:100600000895089580E090E008950E94351BCF93EF
:10061000DF93EC0160E08E810E94270C61E08E8107
:100620000E94270C60E08E810E94270C8BE891E0ED
:100630000197F1F7DF91CF910895882321F0813060
:1006400019F4E99801C0E898E82FF0E0EE0FFF1FD9
:10065000E859FE4F89E791E09183808308951F92C6
:100660000F920FB60F9211242F933F934F935F93E6
:100670006F937F938F939F93AF93BF93EF93FF936A
:10068000E0916A01F0916B010995FF91EF91BF91A3
:10069000AF919F918F917F916F915F914F913F911A
:1006A0002F910F900FBE0F901F9018951F920F92D1
:1006B0000FB60F9211242F933F934F935F936F9335
:1006C0007F938F939F93AF93BF93EF93FF93E091AB
:1006D0006801F09169010995FF91EF91BF91AF9188
:1006E0009F918F917F916F915F914F913F912F914A
:1006F0000F900FBE0F901F9018951F920F920FB67C
:100700000F9211242F933F934F935F936F937F9397
:100710008F939F93AF93BF93EF93FF938091B90013
:10072000887F803609F49CC068F5883209F45BC084
:1007300090F4803109F454C038F4882309F4F6C0E9
:10074000883009F44DC0F6C0883109F44CC08032BD
:1007500009F45DC0EFC0803409F468C048F4803308
:1007600009F455C0883309F0E5C080933F03D8C031
:10077000803509F44FC0883509F45DC0883409F02C
:10078000D9C0D6C0883909F4C7C0A8F4883709F49D
:1007900067C038F4883609F463C0803709F460C054
:1007A000C9C0883809F4B8C0803909F45FC08038FE
:1007B00009F0C0C05BC0803B09F486C038F4803AC1
:1007C00009F466C0883A09F47FC0B4C0803C09F4DB
:1007D000A7C0883C09F4A4C0883B09F48AC0AAC019
:1007E00080911C0310C090913E0380913D039817A7
:1007F00070F5E0913E0381E08E0F80933E03F0E0C0
:10080000E35EFC4F80818093BB0085EC86C08093C3
:100810003F038EC0E0913E0381E08E0F80933E0344
:100820008091BB00F0E0E35EFC4F808390913E033B
:1008300080913D036EC0E0913E0381E08E0F809376
:100840003E038091BB00F0E0E35EFC4F808380912B
:10085000400381116DC081E080931B0384EA61C075
:1008600083E08093410310921A03CFCF80911A0343
:10087000803208F051C0E0911A0381E08E0F80931E
:100880001A038091BB00F0E0E650FD4F8083BDCF9E
:1008900085EC8093BC001092410380911A03803252
:1008A00030F4E0911A03F0E0E650FD4F10826091C1
:1008B0001A0370E0E0915402F09155028AEF92E041
:1008C000099510921A0336C084E080934103109278
:1008D000F9021092F802E0915602F0915702099540
:1008E0008091F802811105C081E08093F802109296
:1008F000D802E091F90281E08E0F8093F902F0E0D6
:10090000E852FD4F80818093BB009091F902809165
:10091000F802981708F479CF85E88093BC000AC0E4
:1009200085EC8093BC001092410304C010923F03F9
:100930000E94A401FF91EF91BF91AF919F918F9180
:100940007F916F915F914F913F912F910F900FBECB
:100950000F901F901895882381F08130E9F480E68C
:1009600092E090936B0180936A0180916900837F8C
:10097000846080936900E99A0DC08EE792E09093BD
:10098000690180936801809169008C7F8160809308
:100990006900E89A81E0089580E00895CF92DF929F
:1009A000EF92FF920F931F93CF93DF936C017C0123
:1009B00087E0E80EF11CC0E0D0E0062F10E0B8019F
:1009C0000C2E02C0759567950A94E2F76170F701E5
:1009D00081917F010E94270C2196C430D10579F7BF
:1009E000C601DF91CF911F910F91FF90EF90DF90A3
:1009F000CF900C940703CF92DF92EF92FF920F9368
:100A00001F93CF93DF93EC01F62E642F8C810E940D
:100A1000270C8D818F3F19F060E00E94270C8F8595
:100A20000F2D10E084FF25C06E0187E0C80ED11C99
:100A3000E12CF12CB8010E2C02C0759567950A9433
:100A4000E2F76170F60181916F010E94270CFFEFC0
:100A5000EF1AFF0A88E0E816F10461F7CE01DF9192
:100A6000CF911F910F91FF90EF90DF90CF900C945A
:100A70000703B80184E0759567958A95E1F7CE0183
:100A80000E94CE046F2DCE01DF91CF911F910F9167
:100A9000FF90EF90DF90CF900C94CE0441E00E9445
:100AA000FB0481E090E00895CF92DF92EF92FF92F5
:100AB0000F931F93CF93DF93EC0161E080E00E94DE
:100AC000DC08BE01DD0F880B990B0E94C9182DECC4
:100AD0003CEC4CE45EE30E9428196B017C0120E0B1
:100AE00030E040E85FE30E94EF1AC0E0D0E087FD0D
:100AF00028C08E010F5F1F4FB801012E000C880B1C
:100B0000990B0E94C9189B01AC01C701B6010E9454
:100B1000EF1A18163CF463E086EA93E00E944E0553
:100B2000E801E7CFBE010D2E000C880B990B0E9447
:100B3000C9189B01AC01C701B6010E944C1A6B0198
:100B40007C0120E030E040EA50E4C701B6010E9499
:100B500028190E94B91A6B017C018B01CB01019706
:100B600085309105E0F4C431D105CCF4029728F426
:100B700061E086EA93E00E944E0583E0C81AD1083E
:100B800082E0C816D10410F462E004C005301105FB
:100B900029F463E086EA93E00E944E05219684E101
:100BA00090E06C01CC1ADD0AE12CF12CEC14FD0470
:100BB0006CF4C431D10534F466E086EA93E00E9417
:100BC0004E0521968FEFE81AF80AF0CFDF91CF910A
:100BD0001F910F91FF90EF90DF90CF90089560E00C
:100BE00083E10E94DC0880915D02882319F08CE388
:100BF00092E002C08EE392E00C94C2080F931F9320
:100C0000CF93DF938C01EB0160E080E00E94DC0871
:100C1000C8010E940B098AE392E00E94C208CE013B
:100C20000E941D0980916E0290916F02009719F049
:100C30000297039720F486E392E00E94C208809115
:100C40006E0290916F02019721F483E392E00E947B
:100C5000C2088FE292E0DF91CF911F910F910C9427
:100C6000C20880916802909169028830910514F061
:100C700087E090E097FF02C080E090E020916A0258
:100C800030916B02121613060CF4806820916C02EE
:100C900030916D022130310511F4806109C022309C
:100CA000310511F4806204C02330310509F48064F9
:100CB0000C94840BCF92DF92EF92FF920F931F93CD
:100CC000CF93DF93E0915E02F0915F02209160028A
:100CD00030916102225331092E9FC0012F9F900D48
:100CE0003E9F900D112464E670E00E94001BCB0132
:100CF00077FF02C080E090E08F01081B190B1616E9
:100D0000170614F460E070E0EB01CE0FDF1F2FE454
:100D100030E0DF010E941A1B24E6C22ED12CE12C08
:100D2000F12CA70196010E94FC1981EB820F0E9411
:100D3000620B2FE030E0D8010E941A1BA701960138
:100D40000E94FC19DA01C9010F97A109B109819527
:100D500080610E94350B2FE030E0DE010E941A1BFB
:100D6000A70196010E94FC19DA01C9010F97A10998
:100D7000B109819580620E94350B8FE30E94350B8B
:100D80008FE40E94350B8FE50E94350B8FE60E94A1
:100D9000350BA0916202B09163022CE130E00E9419
:100DA0001A1BA70196010E94FC19DA01C9010E97CE
:100DB000A109B1090E94480B80690E94350BA091DE
:100DC0006402B09165022CE130E00E941A1BA70179
:100DD00096010E94FC19DA01C9010E97A109B10917
:100DE0000E94480B806A0E94350BA0916602B09168
:100DF00067022CE130E00E941A1BA70196010E94B5
:100E0000FC19DA01C9010E97A109B1090E94480B2A
:100E1000806B0E94350B8091C203982F9460909351
:100E2000C20384670E94350B8091C2038D7080934A
:100E3000C20380670E94350B90915C028091C203CF
:100E4000992369F0982F98609093C20388670E9455
:100E5000350B60E080E00E94270C60E00BC08770DB
:100E60008093C20380670E94350B61E080E00E949E
:100E7000270C61E081E0DF91CF911F910F91FF90EE
:100E8000EF90DF90CF900C94270C81E090E090934E
:100E90005B0280935A020E94180860E671E081E0CC
:100EA0000E94EE0868E571E082E00E94EE0860E5CD
:100EB00071E083E00E94EE0868E471E084E00E9443
:100EC000EE0860E471E085E00E94EE0868E371E0FE
:100ED00086E00E94EE0860E371E087E00E94EE0881
:100EE00068E271E088E00E94EE080C94180840E087
:100EF000682F86EA93E00C94FB04CF9310928D0345
:100F000080918F03823021F0833021F08FEF03C076
:100F100080E001C081E090919003923021F0933005
:100F200021F0CFEF03C0C0E001C0C1E0823010F477
:100F30000E941D03C23020F48C2FCF910C941D030E
:100F4000CF910895EF92FF920F931F93CF93DF936A
:100F50007C01EB018A0180918D0381110E947D0744
:100F600082E080938F0383E080939003109292033A
:100F700010929103F0929403E09293031093A503CF
:100F80000093A403E0E6F2E0E491F0E0EE0FFF1F2F
:100F9000EC5AFD4F8591949190939D0380939C030F
:100FA000E1E6F2E0E491F0E0EE0FFF1FEC5AFD4FB6
:100FB0008591949190939F0380939E03E2E4F2E0E5
:100FC000E491E093A003E3E4F2E0E491E093A10371
:100FD00080919303909194038C179D072CF480913A
:100FE0009303909194030BC080919103909192038D
:100FF000C817D9074CF48091910390919203909374
:101000009B0380939A0304C0D0939B03C0939A03DD
:1010100089EA91E0909396038093950381E0809311
:101020008E03DF91CF911F910F91FF90EF90089564
:1010300081E00E9477078BE39FE10197F1F7089524
:10104000CF93DF93623028F09091B503986090932E
:10105000B5036093B9031092BA0390E49093BB0375
:101060008093BC0390E0805C9F4F8093BD0361E060
:101070008091AA030E94560C8091AB038F3F19F018
:1010800061E00E94560C61E08091AC030E94560C16
:10109000C6EAD3E09E01265A33408091B50384FD11
:1010A00003C084E090E002C088E090E02196281719
:1010B00039072CF461E08E810E94560CEBCF8BE354
:1010C0009DE00197F1F760E08091AA030E94270C50
:1010D00060E08091AC030E94270C8091AB038F3FAE
:1010E00019F060E00E94270C8091B50384FD20C0B8
:1010F00063E086EA93E00E94CE04CBE4D6E4CE011E
:101100000197F1F763E086EA93E00E94CE0421970D
:10111000F1F763E086EA93E00E94CE0483E592E073
:101120000197F1F762E086EA93E00E94CE0415C0D1
:1011300080620E9477078BE496E40197F1F7809133
:10114000B50380620E94770783E592E00197F1F78B
:101150008091B50380620E9477078091B503806219
:101160000E94770784E08093B6038CE00E947707A3
:101170000E94180882E08093B70386E0DF91CF9148
:101180000C9477070F931F93CF93DF938C01C0E0EC
:10119000D0E0F801EC0FFD1F6491662339F041E0C7
:1011A00086EA93E00E94FB042196F3CFCE01DF9103
:1011B000CF911F910F910895643008F063E09091F2
:1011C000B903691710F06FEF690FE62FF0E0EA55E9
:1011D000FC4F9489890F80680C9477070F931F93B5
:1011E000CF93DF938B01877028E0829FC001112489
:1011F00080640E947707E801085F1F4F699186EAC3
:1012000093E00E944E05C017D107C1F7DF91CF913F
:101210001F910F910895009769F0FC010190002043
:10122000E9F73197AF01481B590BBC0186EA93E0FF
:101230000C947A0180E090E008958F929F92AF9293
:10124000BF92CF92DF92EF92FF92CF93DF93CDB711
:10125000DEB7A1970FB6F894DEBF0FBECDBF6C010D
:10126000990FEE08FF08F7FE2AC041E06DE286EA1A
:1012700093E00E94FB0422273327A9012C193D0982
:101280004E095F0919A2CE0181967C019AE0892E50
:10129000912CA12CB12CCA01B901A50194010E9485
:1012A0001B1A605DF70162937F012115310541052D
:1012B000510589F7CF010E940B0901961DC0A701B6
:1012C000960119A2CE0181967C018AE0882E912C8C
:1012D000A12CB12CCA01B901A50194010E941B1ACD
:1012E000605DF70162937F012115310541055105CC
:1012F00089F7CF010E940B09A1960FB6F894DEBFC3
:101300000FBECDBFDF91CF91FF90EF90DF90CF90D8
:10131000BF90AF909F908F9008952091910330914E
:101320009203821793072CF480919103909192037A
:101330000BC020919303309194032817390724F4AC
:101340008091930390919403F89490939B038093DE
:101350009A0378940895DF92EF92FF920F931F9370
:10136000CF93DF9380918D03882311F010E0CAC0E2
:1013700080918E038823D1F380918F039091900305
:101380008917A1F3823021F0833009F0A6C0A8C0EC
:10139000923061F3933009F09BC001E010E0C0E0AF
:1013A000D0E00EC0933011F3C1E0D0E0CF3F2FEF7B
:1013B000D207E1F20FEF1FEFD7FDD8CF17FDD6CF41
:1013C00040919103509192032091930330919403A3
:1013D000421753075CF662E00E94560C62E080916F
:1013E00090030E94560C62E070E080E090E00E9462
:1013F000AF0CE0919C03F0919D0390818091A0033C
:10140000892391E009F490E090939703E0919E0383
:10141000F0919F0390818091A103892391E009F4C9
:1014200090E0909398038091980390919703880F90
:10143000892B809399038091950390919603895C01
:10144000914021F4809199038330F1F186E0D82E08
:10145000DC9EF001DD9EF00D1124DF01AA59BC4F86
:101460009DE8E92E93E0F92EED92FC92E859FC4FAD
:101470008FEE92E091838083138212828C2F0E94E0
:10148000AB04882309F472CFD09EF001D19EF00DF9
:101490001124DF01AA59BC4FED92FC92E859FC4F90
:1014A0008CED92E09183808313821282802F0E94C0
:1014B000AB04182F811104C08C2F0E941D0322C081
:1014C00081E080938D031EC087E080939903BECF97
:1014D0000FEF1FEFC0E0D0E071CF923049F446CF5C
:1014E000923009F05FCF00E010E0C1E0D0E068CFBB
:1014F000933029F401E010E0CFEFDFEF5DCFCFEFC5
:10150000DFEF54CF812FDF91CF911F910F91FF908B
:10151000EF90DF90089530916503313208F04BC0B1
:10152000809141038111FCCF9091640322E02093CC
:10153000410321E0209340032FEF20933F031092BB
:101540003E0330933D03E4E4F3E0ADE1B3E020E09B
:10155000321721F041914D932F5FFACF10921C0367
:1015600020911C03990F922B90931C0390911B03C5
:10157000913061F410921B0390911C039093BB0077
:101580009091BC0093FDF8CF95EC01C095EE90933F
:10159000BC00909141039230E1F390913F039F3F53
:1015A00079F080913F03803241F080913F03803396
:1015B00031F084E005C081E003C082E001C083E037
:1015C00010924303109265031092420308958330F2
:1015D00081F028F4813099F08230A1F008958730AD
:1015E000A9F08830B9F08430D1F4809180008F7DEB
:1015F00003C0809180008F7780938000089584B528
:101600008F7702C084B58F7D84BD08958091B0002E
:101610008F7703C08091B0008F7D8093B0000895D4
:101620003FB7F8948091C4039091C503A091C6037D
:10163000B091C70326B5A89B05C02F3F19F00196AE
:10164000A11DB11D3FBFBA2FA92F982F8827820F48
:10165000911DA11DB11DBC01CD0142E0660F771F98
:10166000881F991F4A95D1F7089591E090934203FE
:1016700094E4909364031092430310926503682FDF
:1016800082E793E00E9431020E948B0A90E0089565
:10169000EDE6F1E020E030E0419151914817590723
:1016A00029F4F901E95FFD4F808108952F5F3F4FD5
:1016B0002C33310589F787E00895682F82E793E09E
:1016C0000C943102CF9391E09093420394E4909371
:1016D0006403109243031092650381956AE00E94AF
:1016E000F41AC82FC295C07FC92B892F806D90E056
:1016F0000E945D0BC295CF708C2F806E90E00E948F
:101700005D0BCF910C948B0ACF93DF9390917F0365
:101710009923D9F0682F80917E0391E09093420342
:1017200080936403109243031092650382E793E071
:101730000E943102EC01019719F010927F0305C05D
:101740000E948B0A8111F9CF02C0C0E0D0E0CE0127
:10175000DF91CF910895662339F091E0082E01C002
:10176000990F0A94EAF701C090E021E030E001C04F
:10177000220F8A95EAF7809180032823322F39239C
:1017800080918103832B2095922B89238093810361
:101790000C94840BEEE7F3E021E030E001C0220F6F
:1017A0008A95EAF78281282B228320958381282B32
:1017B0002383089590917F03992331F020917E0334
:1017C000281711F090E018C080937E03911114C087
:1017D0008823C1F391E090937F0390934203809319
:1017E000640310924303109265030E948B0A91E0F8
:1017F000811190E090937F03892F0895CF93DF9319
:10180000282F30E0F901EA57FD4F8491F901E05C9F
:10181000FD4FD491F901E25AFD4FC491CC2391F0D0
:1018200081110E94E70AEC2FF0E0EE0FFF1FEC5A47
:10183000FD4FA591B491EC91ED2381E090E021F46E
:1018400080E002C080E090E0DF91CF9108951F9387
:10185000CF93DF93282F30E0F901EA57FD4F8491B1
:10186000F901E05CFD4FD491F901E25AFD4FC491BA
:10187000CC23C1F0162F81110E94E70AEC2FF0E073
:10188000EE0FFF1FE458FD4FA591B4919FB7F89458
:10189000111104C08C91D095D82302C0EC91DE2B9D
:1018A000DC939FBFDF91CF911F910895CF93DF937A
:1018B00090E0FC01E05CFD4F2491FC01E25AFD4FF9
:1018C0008491882361F190E0880F991FFC01EE5804
:1018D000FD4FC591D491FC01E458FD4FA591B49101
:1018E000611109C09FB7F89488812095822388836D
:1018F000EC912E230BC0623061F49FB7F89488817D
:10190000322F309583238883EC912E2B2C939FBF0D
:1019100006C08FB7F894E8812E2B28838FBFDF9104
:10192000CF9108958E3008F08E5020916C0190E494
:10193000299F900111248770822B80937C008091D5
:101940007A00806480937A0080917A0086FDFCCFD3
:10195000809178002091790090E0922B08958F92E9
:101960009F92AF92BF92CF92DF92EF92FF926B0164
:101970007C010E94100B4B015C01C114D104E104F5
:10198000F104F1F00E94100BDC01CB0188199909D8
:10199000AA09BB09883E9340A105B10570F321E077
:1019A000C21AD108E108F10888EE880E83E0981E7B
:1019B000A11CB11CC114D104E104F10419F7DDCF5D
:1019C000FF90EF90DF90CF90BF90AF909F908F905F
:1019D00008951F920F920FB60F9211242F933F93E9
:1019E0008F939F93AF93BF938091BE039091BF035A
:1019F000A091C003B091C1033091C30323E0230F32
:101A00002D3720F40196A11DB11D05C026E8230F36
:101A10000296A11DB11D2093C3038093BE03909332
:101A2000BF03A093C003B093C1038091C4039091FE
:101A3000C503A091C603B091C7030196A11DB11DB6
:101A40008093C4039093C503A093C603B093C703C8
:101A5000BF91AF919F918F913F912F910F900FBEAA
:101A60000F901F901895CF93DF93CDB7DEB7A79750
:101A70000FB6F894DEBF0FBECDBF789484B58260F8
:101A800084BD84B5816084BD85B5826085BD85B522
:101A9000816085BD80916E00816080936E001092A0
:101AA000810080918100826080938100809181001B
:101AB00081608093810080918000816080938000AC
:101AC0008091B10084608093B1008091B00081600A
:101AD0008093B00080917A00846080937A00809136
:101AE0007A00826080937A0080917A00816080938E
:101AF0007A0080917A00806880937A001092C10009
:101B000061E080E00E94560C61E081E00E94560C8A
:101B100060E080E00E94270C60E081E00E94270CDA
:101B200010925902109258021092430310926503CA
:101B30001092410311E01093400310921B0361E0E7
:101B400082E10E94270C61E083E10E94270C8091D2
:101B5000B9008E7F8093B9008091B9008D7F80930A
:101B6000B90088E48093B80085E48093BC0086EDDA
:101B700091E0909357028093560287ED91E0909305
:101B800055028093540264E084E10E9420080E9480
:101B900018080E9445071093830361E08091820337
:101BA0000E94270C5BE9E52E52E0F52ED701EEE509
:101BB000F2E0119211921D921D9202E0EE36F007B2
:101BC000C1F710926F0210926E021092AC02109246
:101BD000AB024EE5C42E42E0D42E00E010E0C80176
:101BE00080579E4F0E94E6190530110519F4883080
:101BF00060F40CC00630110519F4823030F406C0D0
:101C00000730110519F4843008F080E09801255060
:101C100031092330310540F0853630F001301105AF
:101C200011F080E001C082E390E0D6018D939D9396
:101C30006D01F701819391937F010F5F1F4F083072
:101C4000110569F688E991E00E94E61991E0811199
:101C500001C090E090935C026CE271E080E090E063
:101C60000E94AF0C84E08093C2038FEF0E94350B7B
:101C700087EC0E94350B80E10E94350B80E20E94C8
:101C8000350B80E30E94350B80E40E94350B80E524
:101C90000E94350B80E60E94350B81E08093420361
:101CA00084E480936403109243031092650380EDF3
:101CB00090E00E945D0B80EE90E00E945D0B0E9420
:101CC0008B0A8091C20380670E94350B87E90E94CE
:101CD000350B87EA0E94350B87EB0E94350B0E947B
:101CE0005A0685E292E00E940B0980E20E94DA0B1C
:101CF000811103C080E70E94DA0B81E00E94CA0BC9
:101D000082E00E94CA0B84E00E94CA0B88E00E9415
:101D1000CA0B80E10E94CA0B80E20E94CA0B80E4D9
:101D20000E94CA0B80E80E94CA0B60E081E00E941A
:101D3000AB0B60E082E00E94AB0B60E084E00E94AD
:101D4000AB0B61E088E00E94AB0B60E080E10E9499
:101D5000AB0B60E080E20E94AB0B60E080E40E948D
:101D6000AB0B60E080E80E94AB0B0E94310661E0A3
:101D700086E00E94560C61E085E00E94560C81E0EE
:101D800080936C0160E080E10E94560C60E081E18C
:101D90000E94560C62E084E00E94560C62E08EE0E5
:101DA0000E94560C61E08EE00E94270C62E08FE0FA
:101DB0000E94560C61E08FE00E94270C8091700217
:101DC0008111C2C08091C203982F98609093C20382
:101DD00088670E94350B0E94180862E370E080E07B
:101DE00090E00E94AF0C60E080E00E94DC088AE492
:101DF00091E00E94C20861E080E00E94DC0885E377
:101E000091E00E94C20862E080E00E94DC0880E26B
:101E100091E00E94C20863E080E00E94DC088BE051
:101E200091E00E94C20864EF71E080E090E00E94BF
:101E3000AF0C61E080E00E94DC0886EF90E00E9439
:101E4000C20862E080E00E94DC0881EE90E00E941F
:101E5000C20863E080E00E94DC088CEC90E00E9405
:101E6000C20868E873E180E090E00E94AF0C8091C6
:101E7000C20387708093C20380670E94350B61E0C4
:101E800080E00E94270C61E081E00E94270C0E9404
:101E9000180862E370E080E090E00E94AF0C60E020
:101EA00080E00E94DC0887EB90E00E94C20861E0BD
:101EB00080E00E94DC0882EA90E00E94C20862E0B2
:101EC00080E00E94DC088DE890E00E94C20863E098
:101ED00080E00E94DC0888E790E00E94C208A090A1
:101EE0005E02B0905F02C12CD12C760100E010E0C0
:101EF00034E6432E512C612C712CA016B106FCF057
:101F000010935F0200935E02C701B601A301920124
:101F10000E94FC1981EB820F0E94620BC8010E9493
:101F2000540562E370E080E090E00E94AF0C0F5F28
:101F30001F4FFFE4CF0ED11CE11CF11CDECF0E942D
:101F4000180881E080937002E0916E02F0916F02B8
:101F5000EE0FFF1FE25AFD4F0081118145E050E076
:101F6000B80184E690E00E94A2070E94AB09C80174
:101F70000E948D0924E6822E912CA12CB12C8E0179
:101F80000B5E1F4F1E8B0D8B8FB7F894C090BE0356
:101F9000D090BF03E090C003F090C1038FBF409189
:101FA000890350918A0360918B0370918C032FB742
:101FB000F8948091BE039091BF03A091C003B091AB
:101FC000C1032FBF84179507A607B70768F1809153
:101FD00084030E94FE0B2091870330E08217930751
:101FE00019F12FB7F8948091BE039091BF03A0918F
:101FF000C003B091C1032FBF2091850330918603A8
:10200000820F931FA11DB11D8093890390938A03B2
:10201000A0938B03B0938C038091870311E08127F9
:1020200080938703109388038091870381112FC0C9
:1020300080918803882359F110928803809171025E
:1020400090917202A0917302B0917402A70196015F
:10205000281B390B4A0B5B0BDA01C901813991400E
:10206000A105B105A0F0C0927102D0927202E09277
:102070007302F09274020E9418088091AD028823C6
:1020800031F08091990241E08427809399028EE09B
:102090000E94920C9C01255031092036310528F10F
:1020A000215931092536310508F488C226593109EC
:1020B0002135310508F485C224563109253631050C
:1020C00008F482C2285731092135310508F47FC24E
:1020D0008A5892408739910508F47CC28FE00E94AB
:1020E000FE0B892B09F03FC078C282E090E040915E
:1020F000AE025091AF026091B0027091B1029701AF
:102100008601041B150B260B370BB901A8014139B9
:1021100051406105710538F120916E0230916F02D6
:102120008430910509F48AC20CF05DC282309105B9
:1021300009F056C2C092AE02D092AF02E092B00255
:10214000F092B1022530310509F067C28091680232
:1021500090916902019797FF02C087E090E0909309
:1021600069028093680200916E0210916F02809163
:10217000AB029091AC028017910709F441C00E9414
:1021800018081093AC020093AB027801EE0CFF1C10
:102190000530110549F4609168027091690241E0CF
:1021A00050E087E090E021C00630110549F46091CD
:1021B0006A0270916B0241E050E081E090E015C04E
:1021C0000730110549F460916C0270916D0241E095
:1021D00050E083E090E009C0F701E25AFD4F6081D2
:1021E000718145E050E084E690E00E94A2070E94E1
:1021F000AB09F701E25AFD4F808191810E948D0960
:1022000081E00330110538F00430110521F003306E
:10221000110509F080E08093B7020550110981E0B3
:102220000330110508F080E08093B6028FB7F89470
:10223000C090BE03D090BF03E090C003F090C103F4
:102240008FBF8091B702882381F0E0916E02F091F8
:102250006F02F89480919A0390919B037894EE0F0B
:10226000FF1FE25AFD4F9183808380915D02882396
:1022700089F18091B2029091B302A091B402B09121
:10228000B50297018601081B190B2A0B3B0BD901DC
:10229000C80180319742A105B105E0F01EE5612E2D
:1022A00012E0712E00E911E0D3016C91B2E06B0EE7
:1022B000711CC8010E94EE190F5F1F4F0839E1E041
:1022C0001E0791F760915C0288E991E00E94EE1987
:1022D00010925D028091B2029091B302A091B4027B
:1022E000B091B50297018601081B190B2A0B3B0B15
:1022F000D901C80188389341A105B105B8F1809191
:10230000AE029091AF02A091B002B091B102A701CC
:102310009601281B390B4A0B5B0BDA01C90188387F
:102320009341A105B10510F141E04093AD028091C8
:102330006E0290916F02892BD9F010926F02109269
:102340006E021092AC021092AB0200915E021091EC
:102350005F0245E050E0B80184E690E00E94A207E9
:102360000E94AB09C8010E948D0902C01092AD0203
:102370007090B702772009F4B7C080916E029091F7
:102380006F02FC01EE0FFF1FDF01A25ABD4F0D903F
:10239000BC91A02DE556FD4F208131812A173B07C6
:1023A00009F4A2C0C092B202D092B302E092B40289
:1023B000F092B50251E050935D02B183A083823068
:1023C000910559F134F40097D9F0019709F447C009
:1023D00089C08330910591F1049709F083C02CE105
:1023E00030E00E941A1BA50194010E94FC19DA0139
:1023F000C9010E97A109B1090E94480B806B70C0FA
:102400002FE430E00E941A1BA50194010E94FC19E0
:1024100081EB820F0E94620B65C02CE130E00E94CC
:102420001A1BA50194010E94FC19DA01C9010E973B
:10243000A109B1090E94480B806952C02CE130E02B
:102440000E941A1BA50194010E94FC19DA01C9011E
:102450000E97A109B1090E94480B806A41C02091E2
:102460005E0230915F02D297A29FC001A39F900DA0
:10247000B29F900D112464E670E00E94001BCB0116
:1024800077FF02C080E090E0D901A81BB90B8B0157
:102490001616170614F400E010E0020F131F2FE0C9
:1024A00030E00E941A1BA50194010E94FC19DA0178
:1024B000C9010F97A109B109819580610E94350B6F
:1024C0002FE030E0D8010E941A1BA50194010E9460
:1024D000FC19DA01C9010F97A109B1098195806240
:1024E0000E94350B1092AD020091B602002319F143
:1024F000E0916E02F0916F02EE0FFF1FDF01A25A12
:10250000BD4F8D919C91E556FD4F2081318128175B
:10251000390789F0C092B202D092B302E092B402BD
:10252000F092B502A1E0A0935D02918380830E94A6
:1025300031061092AD0210915C021F8B80919A02BD
:10254000811789F0C092B202D092B302E092B40235
:10255000F092B50221E020935D0210939A020E944E
:102560005A061092AD028091AD02882309F4CDC0C5
:1025700080915A0290915B02029709F4F1C082E0C7
:1025800090E090935B0280935A020E94180860E1E9
:1025900071E081E00E94EE0868E071E082E00E9454
:1025A000EE0860E071E083E00E94EE0865E772E00B
:1025B00084E00E94EE080E941808D2C083E090E0F8
:1025C00096CD84E090E093CD85E090E090CD86E0DC
:1025D00090E08DCD87E090E08ACD81E090E087CDDE
:1025E000039781F008C08630910509F44AC07CF158
:1025F000079709F466C080915C0251E085278093BB
:102600005C0236C0C092AE02D092AF02E092B0023D
:10261000F092B1022530310519F085E090E05EC0FE
:1026200080916802909169020196883091050CF4BE
:1026300096CD109269021092680295CDA901425080
:1026400051094330510580F42150310906C0C901B8
:102650000197039738F42F5F3F4F30936F02209319
:102660006E0206C081E090E090936F0280936E024C
:10267000C092AE02D092AF02E092B002F092B102EC
:1026800072CDC092AE02D092AF02E092B002F09250
:10269000B1022730310519F087E090E01FC080912A
:1026A0006C0290916D020196843091052CF4909308
:1026B0006D0280936C0257CD10926D0210926C02E5
:1026C00052CDC092AE02D092AF02E092B002F09230
:1026D000B1022630310539F086E090E090936F0228
:1026E00080936E0240CD80916A0290916B020196B8
:1026F000823091052CF490936B0280936A0233CD63
:1027000010926B0210926A022ECD0023E1F08091AC
:102710005A0290915B02039709F469C283E090E04A
:1027200090935B0280935A020E94180860E271E065
:1027300081E00E94EE0868E171E082E00E94EE080C
:102740000E94180856C2772009F453C280915A0299
:1027500090915B02019709F44CC20E94450749C25F
:1027600080919902882309F40DC100915E021091B5
:102770005F021C8F0B8F009160021091610218A301
:102780000F8FA0916202B09163022CE130E00E94B1
:102790001A1BA50194010E94FC1929013A011EE0AF
:1027A000411A510861087108A0916402B091650254
:1027B0002CE130E00E941A1BA50194010E94FC1933
:1027C000DA01C9010E97A109B1098BA39CA3ADA39E
:1027D000BEA3A0916602B09167022CE130E00E9496
:1027E0001A1BA50194010E94FC1969017A019EE05F
:1027F000C91AD108E108F108809168029091690234
:1028000097FD09C08830910514F087E090E08C01B5
:102810000F5F1F4F02C001E010E01A8F098F8091F7
:102820006C0290916D028430910514F083E090E089
:102830001C0197FF02C0212C312C80916A029091DB
:102840006B021816190614F481E090E08C0197FFD2
:1028500002C000E010E060E080E00E94DC0886EB4F
:1028600091E00E94C2082F89222319F081EB91E0A8
:1028700014C02FE430E0AB8DBC8D0E941A1BA50163
:1028800094010E94FC19DA01C9018F549109A10930
:10289000B1090E941D098EEA91E00E94C20860E021
:1028A0008AE00E94DC0889EA91E00E94C2088F8DCC
:1028B00098A10E941D0986EA91E00E94C20861E089
:1028C00080E00E94DC0881EA91E00E94C208C20117
:1028D0000E941D098EE991E00E94C20861E08AE031
:1028E0000E94DC088AE991E00E94C208898D9A8DD5
:1028F0000E941D0962E080E00E94DC0885E991E009
:102900000E94C2088BA19CA10E941D0982E991E04E
:102910000E94C20862E08AE00E94DC0832E02316CE
:10292000310469F043E02416310461F02A9423282D
:1029300019F08BE891E008C084E891E005C08DE7CC
:1029400091E002C084E791E00E94C20863E080E069
:102950000E94DC088FE691E00E94C208C6010E9436
:102960001D098CE691E00E94C20863E08AE00E94A3
:10297000DC080130110519F086E691E02EC18FE5E3
:1029800091E02BC161E085E00E94270C60E085E0CA
:102990000E94270C0BE812E0188F0F8B0DE712E056
:1029A0001A8F098FE9E9CE2EE2E0DE2E78010BE8DE
:1029B00012E060E086E00E94270C83E790E0019738
:1029C000F1F782E00E94920CD8018D939D938D01C6
:1029D00083E00E94920CF701819391937F0161E063
:1029E00086E00E94270CC016D10619F760E085E04A
:1029F0000E94270C61E086E00E94270C63E080E0E3
:102A00000E94DC088DEB91E00E94C20863E083E144
:102A10000E94DC088BEB91E00E94C2080E94EF0547
:102A20007BE0D72EAF89B88D6D917D91B88FAF8B3C
:102A3000CB01770FAA0BBB0BBC01CD0135E0660FB4
:102A4000771F881F991F3A95D1F72FEF33E040E0A9
:102A500050E00E94FC192B8F3C8F4D8F5E8F2B8C8A
:102A60003C8CE98DFA8D61917191FA8FE98FCB01E0
:102A7000770FAA0BBB0BBC01CD0145E0660F771F9A
:102A8000881F991F4A95D1F72FEF33E040E050E0BF
:102A90000E94FC192F8F38A349A35AA30F8D18A1A8
:102AA0001CA30BA353E0C52E412C512C68E0662ECD
:102AB000712C17EF1D0D1FA3261437044CF4EB8C5B
:102AC000FC8CE418F508F7FE06C0E12CF12C03C0DD
:102AD00028E0E22EF12C0BA11CA1061517054CF4E1
:102AE0000F8D18A10419150917FF05C000E010E0AB
:102AF00002C008E010E06C2D8FA10E94DC08C70125
:102B00000197039728F461E086EA93E00E944E055E
:102B1000C7010497039710F462E009C027E0E216AA
:102B2000F10414F063E003C0EF2829F464E086EABE
:102B300093E00E944E056C2D8D2D0E94DC08C8018B
:102B40000197039728F461E086EA93E00E944E051E
:102B5000C8010497039710F462E013C00730110511
:102B600014F063E00EC0012B59F028E0620E711CD6
:102B700038E0430E511CCA944FEFC4129DCF06C0DB
:102B800064E086EA93E00E944E05EFCFD39432E1F1
:102B9000D31248CF24C0A0915E02B0915F022FE40F
:102BA00030E00E941A1BA50194010E94FC19CA0181
:102BB000B9016F547109810991098AE292E00E947A
:102BC000FE050E94EF0580915C028823E9F061E038
:102BD00080E00E94DC088FEB91E00E94C20880E058
:102BE00090E0892B09F4D0C90E940000CDC9711072
:102BF000B4CDE0916E02F0916F02E830F10578F704
:102C0000EC5CFF4F0C94141B80915E0290915F026C
:102C1000BEC000916802109169020830110514F0DD
:102C200007E010E017FF02C000E010E0B8016F5F9E
:102C30007F4F81E392E00E94FE050E94EF0561E074
:102C400080E00E94DC08E12CF12CE016F10611F482
:102C500062E001C061E086EA93E00E944E054FEF1A
:102C6000E41AF40A58E0E516F10479F7B8CF0091B8
:102C70006A0210916B021016110614F401E010E0C4
:102C800017FF02C000E010E060E080E00E94DC0876
:102C900087EE91E00E94C2080E94EF0561E080E0AB
:102CA0000E94DC080130110511F061E001C062E012
:102CB00086EA93E00E944E058EED91E00E94C208E4
:102CC00062E080E00E94DC080130110511F062E052
:102CD00001C061E086EA93E00E944E0584ED91E038
:102CE0007CCFA0916202B09163022CE130E00E949F
:102CF0001A1BA50194010E94FC19CA01B9016E506A
:102D000071098109910988E392E00E94FE050E9401
:102D1000EF05809162029091630239C0A091640234
:102D2000B09165022CE130E00E941A1BA5019401CC
:102D30000E94FC19CA01B9016E50710981099109FB
:102D40008DE392E00E94FE050E94EF0580916402EF
:102D5000909165021CC0A0916602B09167022CE1BF
:102D600030E00E941A1BA50194010E94FC19CA01BF
:102D7000B9016E5071098109910984E492E00E94C1
:102D8000FE050E94EF0580916602909167020E9405
:102D9000540525CF60916002709161028BE492E04E
:102DA0000E94FE050E94EF052090600230906102B3
:102DB000B10162537109072E000C880B990B0E9418
:102DC000C9182DEC3CEC4CE45EE30E9428192B0161
:102DD0003C01CE0101967C01FC0186E081930D89C6
:102DE0001E89E017F107D1F720E030E0A901C30107
:102DF000B2010E94EF1A87FD6CC020E030E040E88D
:102E00005FE3C301B2010E94EF1A87FD34C08E0157
:102E1000055F1F4F188F0F8BCC24C394D12C8601D4
:102E200001501109B6010D2C000C880B990B0E9462
:102E3000C9189B01AC01C301B2010E94EF1A181618
:102E400054F4AF89B88DE3E0ED93B88FAF8BFFEF0B
:102E5000CF1ADF0AE4CFB801012E000C880B990BC2
:102E60000E94C9189B01AC01C301B2010E944C1A17
:102E70002B013C0102C000E010E020E030E040EA1D
:102E800050E4C301B2010E9428190E94B91A9B01A3
:102E9000AB01415051094530510508F089C0065F2A
:102EA0001F4F4230510528F4F701E00FF11F41E0B8
:102EB0004083AB01435051094230510528F4F701DA
:102EC000E00FF11F82E073C02530310509F070C0BA
:102ED0006AC020E030E040E85FEBC301B2010E942D
:102EE000C2181816A4F18E01055F1F4F188F0F8BA3
:102EF000CC24CA94DC2C86010F5F1F4FB6010D2C29
:102F0000000C880B990B0E94C9189B01AC01C301EE
:102F1000B2010E94C21887FF0AC0AF89B88DE3E0F2
:102F2000EE93B88FAF8BF1E0CF1AD108E4CFB801A0
:102F3000012E000C880B990B0E94C9189B01AC0153
:102F4000C301B2010E944C1A2B013C0102C000E0F7
:102F500010E020E030E040EA50E4C301B2010E94FA
:102F600028190E94B91ADB019B012B5F3F4F2530C6
:102F70003105F0F4075F1F4F23503109223031052E
:102F800028F425E0F701E00FF11F2083AB014C5F2F
:102F90005F4F4230510528F4F701E00FF11F84E044
:102FA00006C0159629F4F701E00FF11F83E0808336
:102FB00032E32316310421F487E08A8788E08B8787
:102FC00061E080E00E94DC08D7016D917D0186EA16
:102FD00093E00E944E050D891E890E151F05A1F76D
:102FE000FECD00916C0210916D020430110514F0B9
:102FF00003E010E017FF02C000E010E060E080E0B6
:103000000E94DC0882E292E00E94C2080E94EF0562
:1030100061E080E00E94DC080115110511F061E01B
:1030200001C062E086EA93E00E944E0582E192E0F0
:103030000E94C20862E080E00E94DC0801301105B5
:1030400011F061E001C062E086EA93E00E944E0563
:1030500089E092E00E94C2080230110511F061E09F
:1030600001C062E086EA93E00E944E0580E092E0B3
:103070000E94C20863E080E00E94DC080330110572
:1030800011F061E001C062E086EA93E00E944E0523
:1030900083EF91E0A2CD80918D0381110C947D0787
:1030A00008951F93CF93DF93E2E7F3E01382128238
:1030B00088EE93E0A0E0B0E084839583A683B78395
:1030C0008DEE91E091838083E6EAF3E01382128231
:1030D0008FEF91E09183808388E084831FEF1583D5
:1030E00089E086838DE087838CE080878BE0818711
:1030F0008AE082871386148615861686178661E015
:1031000080E10E942008EDE8F3E010821182128233
:103110001382158214821782168211861086158AF0
:10312000168A81E090E0908F878B45E050E060E068
:1031300070E084E690E00E94A207E4E8F3E084E017
:10314000808384EF91E09283818381E08383148282
:103150001582168217821086C2E8D3E087E0888342
:1031600061E00E94560C60E088810E94270C198261
:10317000EEE7F3E01082118212821383DF91CF9188
:103180001F9108950E94041908F481E00895E894BD
:1031900009C097FB3EF490958095709561957F4F9F
:1031A0008F4F9F4F9923A9F0F92F96E9BB2793954D
:1031B000F695879577956795B795F111F8CFFAF45D
:1031C000BB0F11F460FF1BC06F5F7F4F8F4F9F4F8E
:1031D00016C0882311F096E911C0772321F09EE8EC
:1031E000872F762F05C0662371F096E8862F70E052
:1031F00060E02AF09A95660F771F881FDAF7880F2C
:103200009695879597F90895990F0008550FAA0B81
:10321000E0E8FEEF16161706E807F907C0F01216E9
:103220001306E407F50798F0621B730B840B950BEC
:1032300039F40A2661F0232B242B252B21F4089541
:103240000A2609F4A140A6958FEF811D811D0895DE
:103250000E943B190C94AC190E949E1938F00E94F0
:10326000A51920F0952311F00C9495190C949B1935
:1032700011240C94E0190E94BD1970F3959FC1F3BD
:10328000950F50E0551F629FF001729FBB27F00D14
:10329000B11D639FAA27F00DB11DAA1F649F662769
:1032A000B00DA11D661F829F2227B00DA11D621FB8
:1032B000739FB00DA11D621F839FA00D611D221F72
:1032C000749F3327A00D611D231F849F600D211D56
:1032D000822F762F6A2F11249F5750409AF0F1F0D9
:1032E00088234AF0EE0FFF1FBB1F661F771F881F42
:1032F00091505040A9F79E3F510580F00C949519CC
:103300000C94E0195F3FE4F3983ED4F386957795EB
:103310006795B795F795E7959F5FC1F7FE2B880FE7
:10332000911D9695879597F9089597F99F6780E87D
:1033300070E060E008959FEF80EC089500240A9407
:103340001616170618060906089500240A94121680
:103350001306140605060895092E0394000C11F4B3
:10336000882352F0BB0F40F4BF2B11F460FF04C060
:103370006F5F7F4F8F4F9F4F089557FD9058440FB9
:10338000551F59F05F3F71F04795880F97FB991FC4
:1033900061F09F3F79F08795089512161306140681
:1033A000551FF2CF4695F1DF08C01616170618060E
:1033B000991FF1CF86957105610508940895E894E9
:1033C000BB2766277727CB0197F90895F999FECF98
:1033D00092BD81BDF89A992780B50895262FF99955
:1033E000FECF1FBA92BD81BD20BD0FB6F894FA9AE8
:1033F000F99A0FBE01960895052E97FB1EF40094CE
:103400000E94131A57FD07D00E941B1A07FC03D015
:103410004EF40C94131A50954095309521953F4FDA
:103420004F4F5F4F089590958095709561957F4FB0
:103430008F4F9F4F0895A1E21A2EAA1BBB1BFD01BF
:103440000DC0AA1FBB1FEE1FFF1FA217B307E40783
:10345000F50720F0A21BB30BE40BF50B661F771FDB
:10346000881F991F1A9469F76095709580959095BB
:103470009B01AC01BD01CF010895A29FB001B39F94
:10348000C001A39F700D811D1124911DB29F700D6D
:10349000811D1124911D08955058BB27AA270E9411
:1034A000641A0C94AC190E949E1938F00E94A51958
:1034B00020F039F49F3F19F426F40C949B190EF474
:1034C000E095E7FB0C949519E92F0E94BD1958F37C
:1034D000BA17620773078407950720F079F4A6F5F9
:1034E0000C94DF190EF4E0950B2EBA2FA02D0B01D2
:1034F000B90190010C01CA01A0011124FF27591B39
:1035000099F0593F50F4503E68F11A16F040A22F3E
:10351000232F342F4427585FF3CF469537952795AF
:10352000A795F0405395C9F77EF41F16BA0B620BAE
:10353000730B840BBAF09150A1F0FF0FBB1F661FF5
:10354000771F881FC2F70EC0BA0F621F731F841F38
:1035500048F4879577956795B795F7959E3F08F05E
:10356000B0CF9395880F08F09927EE0F9795879520
:1035700008950E94C01A6894B1110C94E01908953E
:103580000E94C51988F09F5798F0B92F9927B75115
:10359000B0F0E1F0660F771F881F991F1AF0BA95F7
:1035A000C9F714C0B13091F00E94DF19B1E008955D
:1035B0000C94DF19672F782F8827B85F39F0B93F4F
:1035C000CCF3869577956795B395D9F73EF49095AA
:1035D0008095709561957F4F8F4F9F4F08950E9402
:1035E000041908F48FEF0895991B79E004C0991F1E
:1035F000961708F0961B881F7A95C9F7809508954D
:1036000097FB072E16F4009407D077FD09D00E948F
:10361000211B07FC05D03EF4909581959F4F08959E
:10362000709561957F4F0895EE0FFF1F0590F491FF
:10363000E02D09940E943D1AB7FF0895821B930B59
:103640000895AA1BBB1B51E107C0AA1FBB1FA617E9
:10365000B70710F0A61BB70B881F991F5A95A9F73B
:1036600080959095BC01CD01089581E090E0F8949B
:103670000C943A1B11E0CEE4D1E004C0FE010E949C
:0E368000141B2196CF34D107C9F7F894FFCF61
:10368E001F1F001F1F001F1F0000001F1F001F1FF6
:10369E000000000000001F1F0000000E0E0E001F95
:1036AE00000000000000001F0010181C1C18100065
:1036BE0000010307070301000000000404000000DE
:1036CE0001010105050101010505050505050505B4
:1036DE001515151515151515141414141414141494
:1036EE0010101014141010107901790101F2FFF36B
:1036FE00FFF4FFF5FFF6FFF7FFF8FFF9FFFAFFFB08
:10370E00FFFCFFFDFFFEFFFFFF00000E000D000C93
:10371E00000B000A0009000800070006000500045F
:10372E000003000200010000000001000200010180
:10373E000B0203000202030503040504060405053B
:10374E000306130406030303030001000200010134
:10375E000F021700020707070700000000100505FB
:10376E0007060708060607050700000000310204D9
:10377E00020203D801FC01E801D901000000004E4D
:10378E00057A01020301030001010202030304048E
:10379E00050506060707080809090A0A0B0B0C0C93
:1037AE000D0D0E0E0F73656E6400564F4C554D4544
:1037BE0000534F555243450042415353004D494427
:1037CE00444C4500545245424C450042414C414EFA
:0437DE00434500005F
:00000001FF
