:100000000C948D000C9494020C946D020C94B50029
:100010000C94B5000C94B5000C94B5000C94B5008C
:100020000C94B5000C94B5000C94B5000C94B5007C
:100030000C94B5000C94B5000C94B5000C94B5006C
:100040000C940C0A0C94B5000C94B5000C94B500FB
:100050000C94B5000C94B5000C94B5000C94B5004C
:100060000C94DD020C94B50044657369676E3A2008
:1000700020416E6479204B6172706F7600202020E1
:10008000202020414D5020322E31322020202020AF
:10009000200052004C002D2D2D2D2D2D2D204D55A5
:1000A0005445202D2D2D2D2D2D2D002020200020DC
:1000B000250020644200200020002A0000000000EB
:1000C000240027002A0000000000250028002B0043
:1000D0000000000800020100000304070000000007
:1000E0000000000001020408102040800102040802
:1000F0001020010204081020000000002300260048
:10010000290004040404040404040202020202029A
:100110000303030303037D12541211241FBECFEF08
:10012000D8E0DEBFCDBF12E0A0E0B1E0ECECFBE236
:1001300002C005900D92AC33B107D9F723E0ACE3D0
:10014000B2E001C01D92AB39B207E1F710E0CCE894
:10015000D0E004C02197FE010E94CE15CB38D10714
:10016000C9F70E94560A0C94D9150C940000089502
:10017000CF92DF92EF92FF920F931F93CF93DF9373
:100180006C017A018B01C0E0D0E0CE15DF0581F073
:10019000D8016D918D01D601ED91FC910190F08116
:1001A000E02DC6010995892B11F02196EECF7E0135
:1001B000C701DF91CF911F910F91FF90EF90DF90DA
:1001C000CF90089585ED8093BC008091BC0084FDA4
:1001D000FCCF1092250308954091D902262F30E0DC
:1001E000240F311D21323105DCF420912503243008
:1001F000C9F4FC0180E090E0861758F43091D902F0
:100200002191DC01A754BD4FA30FB11D2C93019682
:10021000F3CF8091D902680F6093D90280E00895EE
:1002200081E0089582E00895089508950895E09189
:10023000410280914002E81730F4F0E0E756FD4FAC
:10024000808190E008958FEF9FEF08959091410293
:1002500080914002981750F4E92FF0E0E756FD4FE7
:10026000208130E09F5F9093410202C02FEF3FEF6B
:10027000C90108958091400290E020914102821BC3
:1002800091090895CF92DF92EF92FF920F931F93FF
:10029000CF93DF937C01CB018A0120912603222397
:1002A00089F0EB016B01C40ED51ECC15DD0569F09C
:1002B0006991D701ED91FC910190F081E02DC7018A
:1002C0000995F3CF642F0E94EC00C801DF91CF9114
:1002D0001F910F91FF90EF90DF90CF900895CF93F3
:1002E000DF931F92CDB7DEB76983209126032223C7
:1002F000D1F020914903203240F021E030E0FC01B0
:100300003383228380E090E015C080912703E82F9B
:10031000F0E0E85DFC4F998190838F5F8093270325
:100320008093490305C061E0CE0101960E94EC0074
:1003300081E090E00F90DF91CF91089540914C02C1
:1003400050914D02E0914A02F0914B02CA019595FD
:100350008795209148023091490240FF0AC0D90197
:10036000A80FB91F4D915C91E40FF51F0190F0812A
:10037000E02D820F931F099440914602509147024D
:10038000E0914402F0914502CA019595879520912C
:1003900042023091430240FF0AC0D901A80FB91FA1
:1003A0004D915C91E40FF51F0190F081E02D820FDB
:1003B000931F0994FC018485A085B18594E0899FF1
:1003C000A00DB11D1124A60FB11D8C91982F97700F
:1003D000948788718830A9F481E0858B168A2789F3
:1003E000308D85859685820F931F96878587258515
:1003F00036858681978182179307DCF48681978101
:1004000016C08031B1F4158A81E0868B2789308D42
:1004100085859685821B930B9687858725853685EE
:10042000848195812817390724F4848195819687E2
:1004300085870895FC01A189B2899C9184899823BC
:1004400081E009F480E09385981731F08387638514
:100450006260CF010C94DA010895FC01A785B08990
:100460009C918389982381E009F480E09285981714
:1004700029F082876285CF010C94DA0108950895EE
:1004800080E090E008950E94D415CF93DF93EC01B3
:1004900060E08E810E94830861E08E810E94830863
:1004A00060E08E810E9483088BE891E00197F1F76C
:1004B000DF91CF910895882321F0813019F4E998D4
:1004C00001C0E898E82FF0E0EE0FFF1FE85AFE4F5A
:1004D00087EB90E09183808308951F920F920FB66F
:1004E0000F9211242F933F934F935F936F937F93BA
:1004F0008F939F93AF93BF93EF93FF93E0915A0134
:10050000F0915B010995FF91EF91BF91AF919F91A0
:100510008F917F916F915F914F913F912F910F90AC
:100520000FBE0F901F9018951F920F920FB60F924B
:1005300011242F933F934F935F936F937F938F93E8
:100540009F93AF93BF93EF93FF93E0915801F09186
:1005500059010995FF91EF91BF91AF919F918F91B3
:100560007F916F915F914F913F912F910F900FBEAF
:100570000F901F901895CF9391E09093260394E4E9
:1005800090934803109227031092490381956AE0E3
:100590000E949315C82FC295C07FC92B892F806DEB
:1005A00090E00E944308C295CF708C2F806E90E03F
:1005B0000E944308CF910C94BF071F920F920FB671
:1005C0000F9211242F933F934F935F936F937F93D9
:1005D0008F939F93AF93BF93EF93FF938091B90055
:1005E000887F803609F49CC068F5883209F45BC0C6
:1005F00090F4803109F454C038F4882309F4F6C02B
:10060000883009F44DC0F6C0883109F44CC08032FE
:1006100009F45DC0EFC0803409F468C048F4803349
:1006200009F455C0883309F0E5C080932303D8C08E
:10063000803509F44FC0883509F45DC0883409F06D
:10064000D9C0D6C0883909F4C7C0A8F4883709F4DE
:1006500067C038F4883609F463C0803709F460C095
:10066000C9C0883809F4B8C0803909F45FC080383F
:1006700009F0C0C05BC0803B09F486C038F4803A02
:1006800009F466C0883A09F47FC0B4C0803C09F41C
:10069000A7C0883C09F4A4C0883B09F48AC0AAC05A
:1006A0008091000310C0909122038091210398173C
:1006B00070F5E091220381E08E0F80932203F0E039
:1006C000EF5FFC4F80818093BB0085EC86C08093F8
:1006D00023038EC0E091220381E08E0F80932203DA
:1006E0008091BB00F0E0EF5FFC4F8083909122038C
:1006F000809121036EC0E091220381E08E0F8093F0
:1007000022038091BB00F0E0EF5FFC4F808380917B
:10071000240381116DC081E08093FF0284EA61C0EF
:1007200083E0809325031092FB02CFCF8091FB02E0
:10073000803208F051C0E091FB0281E08E0F80937F
:10074000FB028091BB00F0E0E552FD4F8083BDCFFE
:1007500085EC8093BC00109225038091FB028032CF
:1007600030F4E091FB02F0E0E552FD4F1082609121
:10077000FB0270E0E0913C02F0913D028BED92E0D3
:1007800009951092FB0236C084E0809325031092F5
:10079000DA021092D902E0913E02F0913F020995EF
:1007A0008091D902811105C081E08093D902109215
:1007B000B902E091DA0281E08E0F8093DA02F0E074
:1007C000E754FD4F80818093BB009091DA028091C5
:1007D000D902981708F479CF85E88093BC000AC045
:1007E00085EC8093BC001092250304C01092230373
:1007F0000E94E200FF91EF91BF91AF919F918F9185
:100800007F916F915F914F913F912F910F900FBE0C
:100810000F901F901895882381F08130E9F48EE9BC
:1008200091E090935B0180935A0180916900837FEE
:10083000846080936900E99A0DC08CEB91E09093FD
:10084000590180935801809169008C7F8160809369
:100850006900E89A81E0089580E00895CF92DF92E0
:10086000EF92FF920F931F93CF93DF936C017C0164
:1008700087E0E80EF11CC0E0D0E0062F10E0B801E0
:100880000C2E02C0759567950A94E2F76170F70126
:1008900081917F010E9483082196C430D10579F7A8
:1008A000C601DF91CF911F910F91FF90EF90DF90E4
:1008B000CF900C944502CF92DF92EF92FF920F936C
:1008C0001F93CF93DF93EC01F62E642F8C810E944F
:1008D00083088D818F3F19F060E00E9483088F8527
:1008E0000F2D10E084FF25C06E0187E0C80ED11CDB
:1008F000E12CF12CB8010E2C02C0759567950A9475
:10090000E2F76170F60181916F010E948308FFEFA9
:10091000EF1AFF0A88E0E816F10461F7CE01DF91D3
:10092000CF911F910F91FF90EF90DF90CF900C949B
:100930004502B80184E0759567958A95E1F7CE0187
:100940000E942E046F2DCE01DF91CF911F910F9148
:10095000FF90EF90DF90CF900C942E0441E00E9426
:100960005B0481E090E00895CF92DF92EF92FF92D6
:100970000F931F93CF93DF93EC0161E080E00E941F
:100980005807BE01DD0F880B990B0E9468132DECF0
:100990003CEC4CE45EE30E94C7136B017C0120E059
:1009A00030E040E85FE30E948E15C0E0D0E087FDB4
:1009B00028C08E010F5F1F4FB801012E000C880B5D
:1009C000990B0E9468139B01AC01C701B6010E94FC
:1009D0008E1518163CF463E08AE793E00E94AE049B
:1009E000E801E7CFBE010D2E000C880B990B0E9489
:1009F00068139B01AC01C701B6010E94EB146B01A7
:100A00007C0120E030E040EA50E4C701B6010E94DA
:100A1000C7130E9458156B017C018B01CB01019714
:100A200085309105E0F4C431D105CCF4029728F467
:100A300061E08AE793E00E94AE0483E0C81AD1081F
:100A400082E0C816D10410F462E004C0053011053C
:100A500029F463E08AE793E00E94AE04219684E1E2
:100A600090E06C01CC1ADD0AE12CF12CEC14FD04B1
:100A70006CF4C431D10534F466E08AE793E00E9457
:100A8000AE0421968FEFE81AF80AF0CFDF91CF91EC
:100A90001F910F91FF90EF90DF90CF90089560E04D
:100AA00083E10E94580780915102811103C088EBB5
:100AB00090E002C08AEB90E00C946A078F929F92BC
:100AC000AF92BF92CF92DF92EF92FF92CF93DF93DC
:100AD000CDB7DEB7A1970FB6F894DEBF0FBECDBF7E
:100AE0007C016B0160E080E00E945807C7010E9412
:100AF000480886EB90E00E946A070D2C000CEE0877
:100B0000FF08F7FE26C041E06DE28AE793E00E940D
:100B10005B0422273327A9012C193D094E095F09DF
:100B200019A2CE0181967C019AE0892E912CA12CEC
:100B3000B12CCA01B901A50194010E94BA14605DEB
:100B4000F70162937F01211531054105510589F7B0
:100B50001AC0A701960119A2CE0181967C018AE0F4
:100B6000882E912CA12CB12CCA01B901A5019401A8
:100B70000E94BA14605DF70162937F01211531056F
:100B80004105510589F7C7010E94480880915C0220
:100B900090915D02049720F482EB90E00E946A0736
:100BA00080915C0290915D02049721F48FEA90E0BD
:100BB0000E946A078BEA90E00E946A07A1960FB62E
:100BC000F894DEBF0FBECDBFDF91CF91FF90EF90C5
:100BD000DF90CF90BF90AF909F908F9008954F92ED
:100BE0005F926F927F928F929F92AF92BF92CF92BD
:100BF000DF92EF92FF920F931F93CF93DF930091B9
:100C000052021091530220915A0230915B022253FA
:100C10003109209FC001219F900D309F900D11241C
:100C200064E670E00E949F15CB0177FF02C080E070
:100C300090E0D801A81BB90B1616170614F460E053
:100C400070E0EB01C00FD11F2FE030E00E94B31520
:100C500034E6432E512C612C712CA30192010E9489
:100C60009B1449015A018FE0881A9108A108B10824
:100C70002FE030E0DE010E94B315A30192010E9433
:100C80009B1469017A018FE0C81AD108E108F108C4
:100C90002FE430E0D8010E94B315A30192010E9415
:100CA0009B14DA01C9018F549109A109B1098093FC
:100CB000FE022091FD02211102C00E94BB02882D7C
:100CC000819580610E941B088C2D819580620E9415
:100CD0001B088FE30E941B088FE40E941B088FE50E
:100CE0000E941B088FE60E941B08A0915402B0913D
:100CF00055022CE130E00E94B31524E6C22ED12C1F
:100D0000E12CF12CA70196010E949B14DA01C90184
:100D10000E97A109B1090E942E0880690E941B0844
:100D2000A0915602B09157022CE130E00E94B31519
:100D3000A70196010E949B14DA01C9010E97A1092F
:100D4000B1090E942E08806A0E941B08A0915802D7
:100D5000B09159022CE130E00E94B315A701960131
:100D60000E949B14DA01C9010E97A109B1090E94E2
:100D70002E08806B0E941B088091FC02982F9460C3
:100D80009093FC0284670E941B088091FC028D7086
:100D90008093FC0280670E941B0890915002809112
:100DA000FC02992331F0982F98609093FC02886799
:100DB00004C087708093FC028067DF91CF911F9100
:100DC0000F91FF90EF90DF90CF90BF90AF909F90EA
:100DD0008F907F906F905F904F900C941B0881E0F4
:100DE00090E090934F0280934E020E94500760E57E
:100DF00071E081E00E94840768E471E082E00E9473
:100E0000840760E471E083E00E94840768E371E096
:100E100084E00E94840760E371E085E00E9484071B
:100E200068E271E086E00E94840760E271E087E09A
:100E30000E94840768E171E088E00E9484070C94B6
:100E40005007833081F028F4813099F08230A1F08E
:100E500008958730A9F08830B9F08430D1F48091BA
:100E600080008F7D03C0809180008F778093800009
:100E7000089584B58F7702C084B58F7D84BD0895B1
:100E80008091B0008F7703C08091B0008F7D8093F8
:100E9000B000089540E0682F8AE793E00C945B046B
:100EA00081E00E944A078BE39FE10197F1F70895E3
:100EB000643008F063E090918D03691710F06FEFD4
:100EC000690FE62FF0E0E658FC4F9489890F80689F
:100ED0000C944A070F931F93CF93DF938C01C0E0CC
:100EE000D0E0F801EC0FFD1F6491662339F041E07A
:100EF0008AE793E00E945B042196F3CFCE01DF9155
:100F0000CF911F910F9108950F931F93CF93DF936C
:100F10008B01877028E0829FC001112480640E94A9
:100F20004A07E801085F1F4F69918AE793E00E9432
:100F3000AE04C017D107C1F7DF91CF911F910F9178
:100F400008952091650330916603821793072CF46E
:100F500080916503909166030BC0209167033091E7
:100F600068032817390724F4809167039091680378
:100F7000F89490936F0380936E0378940895309162
:100F80004903313208F04BC0809125038111FCCF19
:100F90009091480322E02093250321E0209324032D
:100FA0002FEF209323031092220330932103E8E2D2
:100FB000F3E0A1E0B3E020E0321721F041914D933E
:100FC0002F5FFACF1092000320910003990F922B0C
:100FD000909300039091FF02913061F41092FF0210
:100FE000909100039093BB009091BC0093FDF8CFCB
:100FF00095EC01C095EE9093BC0090912503923042
:10100000E1F3909123039F3F79F080912303803295
:1010100041F080912303803331F084E005C081E00A
:1010200003C082E001C083E01092270310924903BD
:1010300010922603089591E09093260394E49093F0
:1010400048031092270310924903682F8AE493E023
:101050000E946F010E94BF0790E00895EDE5F1E066
:1010600020E030E0419151914817590729F4F901E6
:10107000E756FE4F808108952F5F3F4F2C33310597
:1010800089F787E00895682F8AE493E00C946F0154
:10109000009769F0FC0101900020E9F73197AF015A
:1010A000481B590BBC018AE793E00C94B80080E020
:1010B00090E00895CF93DF93282F30E0F901E053BB
:1010C000FF4F8491F901EC51FF4FD491F901EE5F8C
:1010D000FE4FC491CC2391F081110E942107EC2F87
:1010E000F0E0EE0FFF1FE850FF4FA591B491EC9197
:1010F000ED2381E090E021F480E002C080E090E008
:10110000DF91CF9108951F93CF93DF93282F30E085
:10111000F901E053FF4F8491F901EC51FF4FD49155
:10112000F901EE5FFE4FC491CC23C1F0162F81115F
:101130000E942107EC2FF0E0EE0FFF1FEA53FF4F54
:10114000A591B4919FB7F894111104C08C91D095DA
:10115000D82302C0EC91DE2BDC939FBFDF91CF91AF
:101160001F910895CF93DF9390E0FC01EC51FF4F66
:101170002491FC01EE5FFE4F8491882361F190E0A1
:10118000880F991FFC01E454FF4FC591D491FC01D5
:10119000EA53FF4FA591B491611109C09FB7F8942C
:1011A0008881209582238883EC912E230BC06230A6
:1011B00061F49FB7F8948881322F30958323888318
:1011C000EC912E2B2C939FBF06C08FB7F894E8812B
:1011D0002E2B28838FBFDF91CF910895CF93DF937C
:1011E000623028F09091890398609093890360930E
:1011F0008D0310928E0390E490938F03809390035D
:1012000090E0805C9F4F8093910361E080917E032A
:101210000E94B20880917F038F3F19F061E00E9425
:10122000B20861E0809180030E94B208CAE7D3E06F
:101230009E012A5733408091890384FD03C084E0D6
:1012400090E002C088E090E02196281739072CF43E
:1012500061E08E810E94B208EBCF8BE39DE00197A5
:10126000F1F760E080917E030E94830860E0809146
:1012700080030E94830880917F038F3F19F060E014
:101280000E9483088091890384FD20C063E08AE77F
:1012900093E00E942E04CBE4D6E4CE010197F1F74F
:1012A00063E08AE793E00E942E042197F1F763E060
:1012B0008AE793E00E942E0483E592E00197F1F71C
:1012C00062E08AE793E00E942E0415C080620E94CB
:1012D0004A078BE496E40197F1F7809189038062D5
:1012E0000E944A0783E592E00197F1F78091890314
:1012F00080620E944A078091890380620E944A07A7
:1013000084E080938A038CE00E944A070E94500781
:1013100082E080938B0386E0DF91CF910C944A07A3
:101320008E3008F08E5020915C0190E4299F90014E
:1013300011248770822B80937C0080917A008064D6
:1013400080937A0080917A0086FDFCCF80917800AE
:101350002091790090E0922B08958F929F92AF9206
:10136000BF92CF92DF92EF92FF926B017C010E94BD
:10137000E7094B015C01C114D104E104F104F1F06F
:101380000E94E709DC01CB0188199909AA09BB0968
:10139000883E9340A105B10570F321E0C21AD1083F
:1013A000E108F10888EE880E83E0981EA11CB11CAC
:1013B000C114D104E104F10419F7DDCFFF90EF90DF
:1013C000DF90CF90BF90AF909F908F9008953FB7E0
:1013D000F8948091970390919803A0919903B0910C
:1013E0009A0326B5A89B05C02F3F19F00196A11DB1
:1013F000B11D3FBFBA2FA92F982F8827820F911DAB
:10140000A11DB11DBC01CD0142E0660F771F881FF1
:10141000991F4A95D1F708951F920F920FB60F9218
:1014200011242F933F938F939F93AF93BF938091FA
:10143000920390919303A0919403B09195033091FE
:10144000960323E0230F2D3720F40196A11DB11D33
:1014500005C026E8230F0296A11DB11D2093960317
:101460008093920390939303A0939403B093950376
:101470008091970390919803A0919903B0919A035A
:101480000196A11DB11D8093970390939803A0939B
:101490009903B0939A03BF91AF919F918F913F9120
:1014A0002F910F900FBE0F901F901895CF93DF9341
:1014B000CDB7DEB7A5970FB6F894DEBF0FBECDBF90
:1014C000789484B5826084BD84B5816084BD85B51F
:1014D000826085BD85B5816085BD80916E0081602B
:1014E00080936E00109281008091810082608093D1
:1014F00081008091810081608093810080918000D3
:101500008160809380008091B10084608093B100FD
:101510008091B00081608093B00080917A008460F7
:1015200080937A0080917A00826080937A00809123
:101530007A00816080937A0080917A00806880933D
:101540007A001092C1001092410210924002109253
:101550002703109249031092250311E010932403EE
:101560001092FF0261E082E10E94830861E083E162
:101570000E9483088091B9008E7F8093B90080918A
:10158000B9008D7F8093B90088E48093B80085E42A
:101590008093BC0084E191E090933F0280933E02EF
:1015A00085E191E090933D0280933C0264E084E108
:1015B0000E94EE080E9450070E94EF061093570306
:1015C00061E0809156030E94830814E8E12E12E046
:1015D000F12ED701E2E5F2E0119211921D921D92D7
:1015E00002E0EC35F007C1F710925D0210925C0248
:1015F00010928F0210928E02B2E5CB2EB2E0DB2E5B
:1016000000E010E0C80180579E4F0E948514853687
:1016100030F00430110511F080E001C082E390E069
:10162000F601819391936F01F701819391937F016B
:101630000F5F1F4F0530110529F785E991E00E94E2
:10164000851491E0811101C090E0909350026CE20A
:1016500071E080E090E00E94AD0984E08093FC029C
:101660001092FD021092FE028FEF0E941B0887EC81
:101670000E941B0880E10E941B0880E20E941B0858
:1016800080E30E941B0880E40E941B0880E50E9402
:101690001B0880E60E941B0811E01093260384E4D7
:1016A00080934803109227031092490380ED90E045
:1016B0000E94430880EE90E00E9443080E94BF070A
:1016C0008091FC0280670E941B0887E90E941B082A
:1016D00087EA0E941B0887EB0E941B080E94EF0507
:1016E00085E192E00E94480861E086E00E94B2082D
:1016F00061E085E00E94B20810935C0160E080E147
:101700000E94B20860E081E10E94B20862E084E0D9
:101710000E94B20862E08EE00E94B20861E08EE0B2
:101720000E94830862E08FE00E94B20861E08FE0CF
:101730000E94830880915E0281114EC060E00E9489
:1017400058078DE790E00E946A0763E080E00E94FE
:10175000580788E690E00E946A07A0905202B09075
:101760005302C12CD12C760100E010E0A4E64A2EF1
:10177000512C612C712CA016B1064CF11093530220
:1017800000935202C701B601A30192010E949B146B
:10179000DA01C9018F549109A109B1098093FE02B0
:1017A0002091FD02211102C00E94BB02C8010E94CB
:1017B000B40462E370E080E090E00E94AD090F5F46
:1017C0001F4FFFE4CF0ED11CE11CF11CD4CF0E94AF
:1017D000500781E080935E028091610381111CC0FB
:1017E000809162038823C1F0809163039091640328
:1017F000891791F0823009F4A8C2833009F03BC602
:101800003DC60FEF1FEF0F3F2FEF120729F0EE2419
:10181000EA94FE2C17FF2CC6E0915C02F0915D0269
:10182000EE0FFF1FEE5AFD4F808191810E94A107AC
:1018300044E6842E912CA12CB12C1E0145E1240EEE
:10184000311C8FB7F894C0909203D0909303E0902E
:101850009403F09095038FBF40915D0350915E0318
:1018600060915F03709160032FB7F89480919203A9
:1018700090919303A0919403B09195032FBF841787
:101880009507A607B70768F1809158030E945A0888
:1018900020915B0330E08217930719F12FB7F8947A
:1018A0008091920390919303A0919403B09195033A
:1018B0002FBF2091590330915A03820F931FA11D0E
:1018C000B11D80935D0390935E03A0935F03B0937B
:1018D000600380915B0391E0892780935B03909381
:1018E0005C0380915B03811134C080915C03882389
:1018F00081F110925C038091910290919202A091EB
:101900009302B091940297018601081B190B2A0BD0
:101910003B0BD901C80181399140A105B105C8F03F
:1019200080915C0290915D028430910529F41092BF
:101930005D0210925C0205C0019690935D02809357
:101940005C02C0929102D0929202E0929302F092D5
:1019500094028EE00E94900985369105C4F08D3284
:1019600021E092070CF4F5C1813931E093070CF4C2
:10197000F3C1853F41E094070CF4F1C181339240FB
:101980000CF4F0C18FE00E945A08892B71F581E0B8
:1019900090E0409191025091920260919302709177
:1019A000940297018601041B150B260B370BB90116
:1019B000A8014139514061057105B8F083309105A6
:1019C00009F4DEC10CF0D1C1029709F4D4C19091A1
:1019D000500281E0892780935002C0929102D092F8
:1019E0009202E0929302F0929402E0905C02F090F6
:1019F0005D0280918E0290918F028701000F111F6E
:101A00008E159F0569F00E945007F0928F02E092B8
:101A10008E02F801EE5AFD4F808191810E94A1074C
:101A2000F89480916E0390916F037894F801EE5AC8
:101A3000FD4F918380838FB7F894C0909203D0902C
:101A40009303E0909403F09095038FBF809151022F
:101A5000882389F18091950290919602A091970236
:101A6000B091980297018601081B190B2A0B3B0BBA
:101A7000D901C80180319742A105B105E0F092E596
:101A8000692E92E0792E00E911E0F3016081F2E025
:101A90006F0E711CC8010E948D140F5F1F4F053916
:101AA00021E0120791F76091500285E991E00E94D0
:101AB0008D14109251028091950290919602A091FE
:101AC0009702B091980297018601081B190B2A0B07
:101AD0003B0BD901C80188389341A105B10568F1D4
:101AE0008091910290919202A0919302B091940200
:101AF000A7019601281B390B4A0B5B0BDA01C901C0
:101B000088389341A105B105C0F081E0809390022F
:101B100080915C0290915D02892B89F010925D02A8
:101B200010925C0210928F0210928E0280915202EB
:101B3000909153020E94A10702C01092900200915E
:101B40005C0210915D02F801EE0FFF1FDF01AE5A3B
:101B5000BD4F0D90BC91A02DEC57FD4F8081918120
:101B60008A179B0709F4AFC0C0929502D0929602E3
:101B7000E0929702F092980281E080935102B18343
:101B8000A08302301105B9F1C4F401151105E1F08B
:101B90000130110509F095C02CE130E00E94B31529
:101BA000A50194010E949B14DA01C9010E97A109B5
:101BB000B1090E942E08806982C00330110561F1CD
:101BC00004301105D1F17DC02FE430E00E94B3153F
:101BD000A50194010E949B14DA01C9018F54910957
:101BE000A109B1098093FE022091FD02211169C073
:101BF0000E94BB0266C02CE130E00E94B315A50133
:101C000094010E949B14DA01C9010E97A109B10940
:101C10000E942E08806A53C02CE130E00E94B31568
:101C2000A50194010E949B14DA01C9010E97A10934
:101C3000B1090E942E08806B42C02091520230915F
:101C40005302D297A29FC001A39F900DB29F900D07
:101C5000112464E670E00E949F15CB0177FF02C05B
:101C600080E090E0D901A81BB90BCB01181619062A
:101C700014F480E090E03C01620E731E2FE030E02F
:101C80000E94B315A50194010E949B14DA01C901B9
:101C90000F97A109B109819580610E941B082FE06F
:101CA00030E0D3010E94B315A50194010E949B145A
:101CB000DA01C9010F97A109B109819580620E94DB
:101CC0001B08109290028091500290918302981705
:101CD00089F0C0929502D0929602E0929702F0921B
:101CE000980291E090935102809383020E94EF0545
:101CF000109290022091900280914E0290914F029A
:101D0000222309F44AC0029709F44DC082E090E012
:101D100090934F0280934E020E94500760E171E061
:101D200081E00E94840768E071E082E00E948407FD
:101D300060E071E083E00E9484076FE572E084E078
:101D40000E9484070E9450072EC0923009F0FBC207
:101D500063CD82E090E01DCE83E090E01ACE84E077
:101D600090E017CE85E090E014CE8430910559F0D4
:101D7000059761F02CCE10925D0210925C022DCE80
:101D800081E090E005C082E090E002C083E090E056
:101D900090935D0280935C0220CE019709F441C1CB
:101DA0000E94EF063EC161E085E00E94830860E08A
:101DB00085E00E94830805E712E01E8B0D8B07E685
:101DC00012E0188F0F8B780105E712E060E086E0E3
:101DD0000E94830883E790E00197F1F782E00E9478
:101DE0009009F801819391938F0183E00E949009FB
:101DF000F701819391937F0161E086E00E9483085F
:101E0000F2E003381F0711F760E085E00E948308C5
:101E100061E086E00E94830863E080E00E9458074A
:101E200084E990E00E946A0763E083E10E9458071A
:101E300082E990E00E946A070E944F05BBE0DB2E1A
:101E4000ED89FE8961917191FE8BED8BCB01770F4E
:101E5000AA0BBB0BBC01CD0155E0660F771F881F95
:101E6000991F5A95D1F72FEF33E040E050E00E94E0
:101E70009B14298F3A8F4B8F5C8F098D1A8D1AA373
:101E800009A3EF89F88D61917191F88FEF8BCB01E8
:101E9000770FAA0BBB0BBC01CD01E5E0660F771FE6
:101EA000881F991FEA95D1F72FEF33E040E050E00B
:101EB0000E949B142D8F3E8F4F8F58A30D8D1E8D2A
:101EC0001CA30BA3F3E0CF2E412C512CA8E06A2ECB
:101ED000712C17EF1D0D1DA309A11AA106151705D9
:101EE0004CF4E98CFA8CE418F508F7FE06C0E12CF6
:101EF000F12C03C048E0E42EF12C0BA11CA1061527
:101F000017054CF40D8D1E8D0419150917FF05C01A
:101F100000E010E002C008E010E06C2D8DA10E94EE
:101F20005807C7010197039728F461E08AE793E017
:101F30000E94AE04C7010497039710F462E009C041
:101F400027E0E216F10414F063E003C0EF2829F45F
:101F500064E08AE793E00E94AE046C2D8D2D0E9410
:101F60005807C8010197039728F461E08AE793E0D6
:101F70000E94AE04C8010497039710F462E013C0F6
:101F80000730110514F063E00EC0012B59F028E072
:101F9000620E711C38E0430E511CCA944FEFC412FC
:101FA0009BCF06C064E08AE793E00E94AE04EFCFC7
:101FB000D39432E1D31244CF2CC0033011050CF07E
:101FC00077C00115110509F053C0A0915202B091DC
:101FD00053022FE430E00E94B315A50194010E9442
:101FE0009B14CA01B9016F547109810991098AE1F1
:101FF00092E00E945E050E944F0580915002882366
:1020000081F161E080E00E94580786E990E00E943B
:102010006A0780E090E0892B09F413CC0E9400004D
:1020200010CC0230110549F6A0915602B09157022A
:102030002CE130E00E94B315A50194010E949B148D
:10204000CA01B9016E5071098109910986E292E0D5
:102050000E945E050E944F058091560290915702A2
:1020600004C080915202909153020E94B404D1CFD7
:102070000130110571F6A0915402B09155022CE186
:1020800030E00E94B315A50194010E949B14CA017F
:10209000B9016E5071098109910981E292E00E94B3
:1020A0005E050E944F058091540290915502DDCF4C
:1020B00003301105E9F4A0915802B09159022CE1C6
:1020C00030E00E94B315A50194010E949B14CA013F
:1020D000B9016E507109810991098DE292E00E9467
:1020E0005E050E944F058091580290915902BDCF24
:1020F0000430110509F08DCF60915A0270915B0296
:1021000084E392E00E945E050E944F0500915A020E
:1021100010915B02188F0F8BB80162537109072E63
:10212000000C880B990B0E9468132DEC3CEC4CE4DE
:102130005EE30E94C7132B013C019E012F5F3F4FBE
:102140007901F90186E08193E215F305E1F720E0DA
:1021500030E0A901C301B2010E948E1587FD6CC059
:1021600020E030E040E85FE3C301B2010E948E1539
:1021700087FD34C08E01055F1F4F1E8B0D8BCC2455
:10218000C394D12C860101501109B6010D2C000C0D
:10219000880B990B0E9468139B01AC01C301B2012B
:1021A0000E948E15181654F4ED89FE8903E0019300
:1021B000FE8BED8B1FEFC11AD10AE4CFB801012EBF
:1021C000000C880B990B0E9468139B01AC01C301A2
:1021D000B2010E94EB142B013C0102C000E010E0B0
:1021E00020E030E040EA50E4C301B2010E94C7138E
:1021F0000E9458159B01AB014150510945305105D2
:1022000008F089C0065F1F4F4230510528F441E0B5
:10221000F701E00FF11F4083AB01435051094230F9
:10222000510528F4F701E00FF11F82E073C025305B
:10223000310509F070C06AC020E030E040E85FEB93
:10224000C301B2010E9461131816A4F18E01055F4B
:102250001F4F1E8B0D8BCC24CA94DC2C86010F5F84
:102260001F4FB6010D2C000C880B990B0E946813B0
:102270009B01AC01C301B2010E94611387FF0AC038
:10228000ED89FE8903E00293FE8BED8B11E0C11A0C
:10229000D108E4CFB801012E000C880B990B0E94E5
:1022A00068139B01AC01C301B2010E94EB142B0126
:1022B0003C0102C000E010E020E030E040EA50E4E1
:1022C000C301B2010E94C7130E945815DB019B0194
:1022D0002B5F3F4F25303105F0F4075F1F4F235030
:1022E00031092230310528F425E0F701E00FF11F14
:1022F0002083AB014C5F5F4F4230510528F4F7015A
:10230000E00FF11F84E006C0159629F4F701E00FF5
:10231000F11F83E080830F89188D0233110521F4AA
:1023200087E08A8788E08B8761E080E00E94580719
:10233000F70161917F018AE793E00E94AE042E14B9
:102340003F04B1F766CE933009F08DC0EE24E394DC
:10235000F12C00E010E0409165035091660320915C
:10236000670330916803421753070CF055CA62E0C7
:102370000E94B20862E0809164030E94B20862E0A9
:1023800070E080E090E00E94AD09E0917003F09170
:102390007103908180917403892391E009F490E0A6
:1023A00090936B03E0917203F0917303908180919D
:1023B0007503892391E009F490E090936C03809178
:1023C0006C0390916B03880F892B80936D03809130
:1023D000690390916A03895E914021F480916D03B5
:1023E0008330E9F156E0B52EB09EF001B19EF00DBC
:1023F0001124DF01AE5BBD4F61E6C62E63E0D62E31
:10240000CD92DC92EC5BFD4F8DE292E09183808374
:1024100013821282802F0E940B04882309F4FCC9C6
:10242000BE9CF001BF9CF00D1124DF01AE5BBD4FDF
:10243000CD92DC92EC5BFD4F8AE192E09183808348
:10244000138212828E2D0E940B04811104C0802FF2
:102450000E945B02E1C981E080936103DDC987E0EE
:1024600080936D03BFCFEE24EA94FE2C00E010E0D1
:10247000F7FE71CFD1C9923041F4CEC9923071F4D8
:10248000E12CF12C01E010E066CF933009F0B9C9DE
:10249000EE24E394F12C0FEF1FEFBCC9933009F445
:1024A000BBC901E010E0AFC9CF93809161038823DD
:1024B00011F11092610380916303823021F0833027
:1024C00021F08FEF03C080E001C081E090916403B0
:1024D000923021F0933021F0CFEF03C0C0E001C073
:1024E000C1E0823010F40E945B02C23020F48C2FD5
:1024F000CF910C945B02CF91089510924D031092EE
:102500004C0388EE93E0A0E0B0E080934E039093FC
:102510004F03A0935003B09351038BEB91E0909342
:102520004B0380934A0310927D0310927C038DE04D
:1025300092E090937B0380937A0388E080937E03FC
:102540008FEF80937F0389E0809380038DE08093F9
:1025500081038CE0809382038BE0809383038AE085
:102560008093840310928503109286031092870350
:10257000109288031092890361E080E10E94EE08C6
:102580001092610310926203109266031092650329
:10259000109268031092670310926A031092690305
:1025A000109276031092770381E090E09093790384
:1025B0008093780382E08093630383E080936403D5
:1025C000109266031092650384E690E0909368038E
:1025D0008093670385E090E090937903809378037C
:1025E000E4E0F1E0E491F0E0EE0FFF1FE850FF4F70
:1025F000859194919093710380937003E5E0F1E0ED
:10260000E491F0E0EE0FFF1FE850FF4F85919491A9
:102610009093730380937203E6EEF0E0E491E0930D
:102620007403E7EEF0E0E491E093750380916703B3
:102630009091680397FF05C08091670390916803AC
:102640000BC08091650390916603181619064CF42F
:10265000809165039091660390936F0380936E035E
:1026600004C010926F0310926E0389EC91E0909376
:102670006A038093690381E08093620394E09093FE
:10268000580324EF31E030935A0320935903809389
:102690005B0310925C0310925D0310925E03109234
:1026A0005F031092600387E08093560361E00E940D
:1026B000B20860E0809156030E948308109257038D
:1026C00008950E94A31308F481E00895E89409C0D6
:1026D00097FB3EF490958095709561957F4F8F4F55
:1026E0009F4F9923A9F0F92F96E9BB279395F6956B
:1026F000879577956795B795F111F8CFFAF4BB0FE9
:1027000011F460FF1BC06F5F7F4F8F4F9F4F16C04C
:10271000882311F096E911C0772321F09EE8872FD6
:10272000762F05C0662371F096E8862F70E060E092
:102730002AF09A95660F771F881FDAF7880F96950B
:10274000879597F90895990F0008550FAA0BE0E8AF
:10275000FEEF16161706E807F907C0F01216130663
:10276000E407F50798F0621B730B840B950B39F4A3
:102770000A2661F0232B242B252B21F408950A2609
:1027800009F4A140A6958FEF811D811D08950E9437
:10279000DA130C944B140E943D1438F00E94441438
:1027A00020F0952311F00C9434140C943A14112455
:1027B0000C947F140E945C1470F3959FC1F3950FE5
:1027C00050E0551F629FF001729FBB27F00DB11DB5
:1027D000639FAA27F00DB11DAA1F649F6627B00D45
:1027E000A11D661F829F2227B00DA11D621F739F2E
:1027F000B00DA11D621F839FA00D611D221F749F3C
:102800003327A00D611D231F849F600D211D822F82
:10281000762F6A2F11249F5750409AF0F1F08823A9
:102820004AF0EE0FFF1FBB1F661F771F881F9150D6
:102830005040A9F79E3F510580F00C9434140C943D
:102840007F145F3FE4F3983ED4F3869577956795C0
:10285000B795F795E7959F5FC1F7FE2B880F911D00
:102860009695879597F9089597F99F6780E870E0A6
:1028700060E008959FEF80EC089500240A941616F6
:10288000170618060906089500240A94121613065E
:10289000140605060895092E0394000C11F48823EC
:1028A00052F0BB0F40F4BF2B11F460FF04C06F5F08
:1028B0007F4F8F4F9F4F089557FD9058440F551FDE
:1028C00059F05F3F71F04795880F97FB991F61F0B2
:1028D0009F3F79F087950895121613061406551F29
:1028E000F2CF4695F1DF08C0161617061806991F95
:1028F000F1CF86957105610508940895E894BB278A
:1029000066277727CB0197F90895F999FECF92BDF5
:1029100081BDF89A992780B50895262FF999FECFA1
:102920001FBA92BD81BD20BD0FB6F894FA9AF99AEC
:102930000FBE01960895052E97FB1EF400940E9489
:10294000B21457FD07D00E94BA1407FC03D04EF40E
:102950000C94B21450954095309521953F4F4F4FB0
:102960005F4F089590958095709561957F4F8F4F3B
:102970009F4F0895A1E21A2EAA1BBB1BFD010DC09B
:10298000AA1FBB1FEE1FFF1FA217B307E407F5071F
:1029900020F0A21BB30BE40BF50B661F771F881FFB
:1029A000991F1A9469F760957095809590959B0191
:1029B000AC01BD01CF010895A29FB001B39FC0013A
:1029C000A39F700D811D1124911DB29F700D811D5B
:1029D0001124911D08955058BB27AA270E94031562
:1029E0000C944B140E943D1438F00E94441420F0C3
:1029F00039F49F3F19F426F40C943A140EF4E09540
:102A0000E7FB0C943414E92F0E945C1458F3BA17B6
:102A1000620773078407950720F079F4A6F50C94F4
:102A20007E140EF4E0950B2EBA2FA02D0B01B901E8
:102A300090010C01CA01A0011124FF27591B99F034
:102A4000593F50F4503E68F11A16F040A22F232F40
:102A5000342F4427585FF3CF469537952795A79590
:102A6000F0405395C9F77EF41F16BA0B620B730B37
:102A7000840BBAF09150A1F0FF0FBB1F661F771FA8
:102A8000881FC2F70EC0BA0F621F731F841F48F45D
:102A9000879577956795B795F7959E3F08F0B0CFE6
:102AA0009395880F08F09927EE0F979587950895CD
:102AB0000E945F156894B1110C947F1408950E94D0
:102AC000641488F09F5798F0B92F9927B751B0F048
:102AD000E1F0660F771F881F991F1AF0BA95C9F7A2
:102AE00014C0B13091F00E947E14B1E008950C94AE
:102AF0007E14672F782F8827B85F39F0B93FCCF361
:102B0000869577956795B395D9F73EF4909580951E
:102B1000709561957F4F8F4F9F4F08950E94A3132B
:102B200008F48FEF0895991B79E004C0991F961758
:102B300008F0961B881F7A95C9F78095089597FB32
:102B4000072E16F4009407D077FD09D00E94BA151D
:102B500007FC05D03EF4909581959F4F08957095A0
:102B600061957F4F08950E94DC14B7FF0895821B82
:102B7000930B0895AA1BBB1B51E107C0AA1FBB1FE3
:102B8000A617B70710F0A61BB70B881F991F5A95F9
:102B9000A9F780959095BC01CD010895EE0FFF1F18
:102BA0000590F491E02D099481E090E0F8940C9464
:102BB000D91510E0CCE8D0E004C0FE010E94CE158B
:0C2BC0002196CD38D107C9F7F894FFCF5B
:102BCC001F1F001F1F001F1F0000001F1F001F1FC3
:102BDC000000000000001F1F0010181C1C18100023
:102BEC0000010307070301000000000404000000BB
:102BFC000101010505010101050505050505050591
:102C0C001515151515151515141414141414141470
:102C1C001010101414101010B700B70001F2FFF3CD
:102C2C00FFF4FFF5FFF6FFF7FFF8FFF9FFFAFFFBE4
:102C3C00FFFCFFFDFFFEFFFFFF00000E000D000C70
:102C4C00000B000A0009000800070006000500043C
:102C5C000003000200010000000001010202030356
:102C6C000404050506060707080809090A0A0B0BE0
:102C7C000C0C0D0D0E0E0F000000006F01420140F8
:102C8C000216013A012601170100010002000101A0
:102C9C000B020300020203050304050406040505E8
:102CAC0003061304060303030300010002000101E1
:102CBC000F021700020707070700000000100505A8
:102CCC0007060708060607050700000000AE04B853
:102CDC000040023F0273656E6400564F4C554D45E3
:102CEC000042415353004D4944444C450054524515
:0C2CFC00424C450042414C414E43450013
:00000001FF
