:100000000C9427010C942E030C9407030C944F01BD
:100010000C944F010C944F010C944F010C944F0120
:100020000C944F010C944F010C944F010C944F0110
:100030000C944F010C944F010C944F010C944F0100
:100040000C94BD0C0C944F010C944F010C944F0177
:100050000C944F010C944F010C944F010C944F01E0
:100060000C9455030C944F011E14E2134A1484148B
:10007000A314C214E31404162020202020202020E2
:100080002020202020202020202020200020202090
:100090002020204C4F4144494E4720202020202042
:1000A0002000202020202020202020202020202070
:1000B0002020202020200020202020202020202060
:1000C0002020202020202020202020002020202050
:1000D0002020202020202020202020202020202020
:1000E00000202020202020424F4F54494E472020FE
:1000F0002020202020002020202020202020202020
:1001000020202020202020202020002020204D61A1
:10011000646520696E20556B7261696E65202000F0
:1001200020202020202020202020202020202020CF
:1001300020202020002020202056657273696F6ED9
:1001400020322E3237202020200020202020484935
:100150002D46492053544552454F2020202000521F
:10016000004C002D2D2D2D2D2D2D204D555445208D
:100170002D2D2D2D2D2D2D002064697361626C6550
:10018000640020656E61626C6564004551205041D9
:1001900053535448525500204D6F6E6F2041202B11
:1001A00020422000204D6F6E6F20422000204D6FB6
:1001B0006E6F20412000204E6F726D616C20537471
:1001C0006572656F20004D4F4E4F20444F574E4D86
:1001D00049580020202000202500206442002000F3
:1001E0002020004D53004D42004D4100202A0000C8
:1001F000000000240027002A00000000002500283D
:10020000002B0000000008000201000003040700AA
:1002100000000000000000010204081020408001DE
:10022000020408102001020408102000000000232E
:100230000026002900040404040404040402020249
:10024000020202030303030303006616601611246F
:100250001FBECFEFD8E0DEBFCDBF12E0A0E0B1E01F
:10026000E8EBF2E302C005900D92A435B107D9F78F
:1002700023E0A4E5B2E001C01D92A13CB207E1F782
:1002800011E0C6E2D1E004C02197FE010E942919C5
:10029000C532D107C9F70E94070D0C944F190C9471
:1002A00000000895CF92DF92EF92FF920F931F9379
:1002B000CF93DF936C017A018B01C0E0D0E0CE15C3
:1002C000DF0581F0D8016D918D01D601ED91FC9192
:1002D0000190F081E02DC6010995892B11F021963E
:1002E000EECF7E01C701DF91CF911F910F91FF905B
:1002F000EF90DF90CF90089585ED8093BC008091C2
:10030000BC0084FDFCCF10923B0308954091F102A4
:10031000262F30E0240F311D21323105DCF42091ED
:100320003B032430C9F4FC0180E090E0861758F4C8
:100330003091F1022191DC01AF52BD4FA30FB11DED
:100340002C930196F3CF8091F102680F6093F10234
:1003500080E0089581E0089582E008950895089569
:100360000895E091590280915802E81730F4F0E0C6
:10037000EF54FD4F808190E008958FEF9FEF089537
:100380009091590280915802981750F4E92FF0E0AB
:10039000EF54FD4F208130E09F5F9093590202C0DF
:1003A0002FEF3FEFC90108958091580290E020910E
:1003B0005902821B91090895CF92DF92EF92FF922A
:1003C0000F931F93CF93DF937C01CB018A01209180
:1003D0003C03222389F0EB016B01C40ED51ECC1522
:1003E000DD0569F06991D701ED91FC910190F081F3
:1003F000E02DC7010995F3CF642F0E948601C80143
:10040000DF91CF911F910F91FF90EF90DF90CF90F0
:100410000895CF93DF931F92CDB7DEB76983209104
:100420003C032223D1F020915F03203240F021E0F1
:1004300030E0FC013383228380E090E015C080919E
:100440003D03E82FF0E0E25CFC4F998190838F5FE1
:1004500080933D0380935F0305C061E0CE01019668
:100460000E94860181E090E00F90DF91CF91089586
:1004700040916A0350916B03E0916803F091690326
:10048000CA0195958795209166033091670340FFD7
:100490000AC0D901A80FB91F4D915C91E40FF51F57
:1004A0000190F081E02D820F931F09944091640325
:1004B00050916503E0916203F0916303CA01959541
:1004C0008795209160033091610340FF0AC0D901F4
:1004D000A80FB91F4D915C91E40FF51F0190F081B9
:1004E000E02D820F931F0994FC018485A085B185BE
:1004F00094E0899FA00DB11D1124A60FB11D8C9110
:10050000982F9770948788718830A9F481E0858B43
:10051000168A2789308D85859685820F931F968749
:100520008587258536858681978182179307DCF438
:100530008681978116C08031B1F4158A81E0868B5F
:100540002789308D85859685821B930B96878587B5
:1005500025853685848195812817390724F484817F
:100560009581968785870895FC01A189B2899C9120
:100570008489982381E009F480E09385981731F00D
:10058000838763856260CF010C9474020895FC0137
:10059000A785B0899C918389982381E009F480E044
:1005A0009285981729F082876285CF010C94740296
:1005B0000895089580E090E008950E944A19CF932D
:1005C000DF93EC0160E08E810E94540A61E08E812D
:1005D0000E94540A60E08E810E94540A8BE891E0E8
:1005E0000197F1F7DF91CF910895882321F08130B1
:1005F00019F4E99801C0E898E82FF0E0EE0FFF1F2A
:10060000E859FE4F81E591E09183808308951F9220
:100610000F920FB60F9211242F933F934F935F9336
:100620006F937F938F939F93AF93BF93EF93FF93BA
:10063000E0916A01F0916B010995FF91EF91BF91F3
:10064000AF919F918F917F916F915F914F913F916A
:100650002F910F900FBE0F901F9018951F920F9221
:100660000FB60F9211242F933F934F935F936F9385
:100670007F938F939F93AF93BF93EF93FF93E091FB
:100680006801F09169010995FF91EF91BF91AF91D8
:100690009F918F917F916F915F914F913F912F919A
:1006A0000F900FBE0F901F9018951F920F920FB6CC
:1006B0000F9211242F933F934F935F936F937F93E8
:1006C0008F939F93AF93BF93EF93FF938091B90064
:1006D000887F803609F49CC068F5883209F45BC0D5
:1006E00090F4803109F454C038F4882309F4F6C03A
:1006F000883009F44DC0F6C0883109F44CC080320E
:1007000009F45DC0EFC0803409F468C048F4803358
:1007100009F455C0883309F0E5C080933903D8C087
:10072000803509F44FC0883509F45DC0883409F07C
:10073000D9C0D6C0883909F4C7C0A8F4883709F4ED
:1007400067C038F4883609F463C0803709F460C0A4
:10075000C9C0883809F4B8C0803909F45FC080384E
:1007600009F0C0C05BC0803B09F486C038F4803A11
:1007700009F466C0883A09F47FC0B4C0803C09F42B
:10078000A7C0883C09F4A4C0883B09F48AC0AAC069
:100790008091160310C09091380380913703981709
:1007A00070F5E091380381E08E0F80933803F0E01C
:1007B000E95EFC4F80818093BB0085EC86C080930E
:1007C00039038EC0E091380381E08E0F80933803A7
:1007D0008091BB00F0E0E95EFC4F8083909138038C
:1007E000809137036EC0E091380381E08E0F8093D3
:1007F00038038091BB00F0E0E95EFC4F808380917C
:100800003A0381116DC081E08093150384EA61C0D1
:1008100083E080933B0310921303CFCF80911303A7
:10082000803208F051C0E091130381E08E0F809375
:1008300013038091BB00F0E0ED50FD4F8083BDCFEE
:1008400085EC8093BC0010923B03809113038032AF
:1008500030F4E0911303F0E0ED50FD4F1082609111
:10086000130370E0E0915402F091550283EF92E09F
:1008700009951092130336C084E080933B031092D5
:10088000F2021092F102E0915602F091570209959E
:100890008091F102811105C081E08093F1021092F4
:1008A000D102E091F20281E08E0F8093F202F0E03B
:1008B000EF52FD4F80818093BB009091F2028091B6
:1008C000F102981708F479CF85E88093BC000AC03C
:1008D00085EC8093BC0010923B0304C01092390356
:1008E0000E947C01FF91EF91BF91AF919F918F91F9
:1008F0007F916F915F914F913F912F910F900FBE1C
:100900000F901F901895882381F08130E9F488E3D7
:1009100092E090936B0180936A0180916900837FDC
:10092000846080936900E99A0DC086E592E0909317
:10093000690180936801809169008C7F8160809358
:100940006900E89A81E0089580E00895CF92DF92EF
:10095000EF92FF920F931F93CF93DF936C017C0173
:1009600087E0E80EF11CC0E0D0E0062F10E0B801EF
:100970000C2E02C0759567950A94E2F76170F70135
:1009800081917F010E94540A2196C430D10579F7E4
:10099000C601DF91CF911F910F91FF90EF90DF90F3
:1009A000CF900C94DF02CF92DF92EF92FF920F93E1
:1009B0001F93CF93DF93EC01F62E642F8C810E945E
:1009C000540A8D818F3F19F060E00E94540A8F8590
:1009D0000F2D10E084FF25C06E0187E0C80ED11CEA
:1009E000E12CF12CB8010E2C02C0759567950A9484
:1009F000E2F76170F60181916F010E94540AFFEFE6
:100A0000EF1AFF0A88E0E816F10461F7CE01DF91E2
:100A1000CF911F910F91FF90EF90DF90CF900C94AA
:100A2000DF02B80184E0759567958A95E1F7CE01FC
:100A30000E94A6046F2DCE01DF91CF911F910F91DF
:100A4000FF90EF90DF90CF900C94A60441E00E94BD
:100A5000D30481E090E00895CF92DF92EF92FF926D
:100A60000F931F93CF93DF93EC0161E080E00E942E
:100A70004A08BE01DD0F880B990B0E94DE162DEC93
:100A80003CEC4CE45EE30E943D176B017C0120E0EE
:100A900030E040E85FE30E940419C0E0D0E087FD49
:100AA00028C08E010F5F1F4FB801012E000C880B6C
:100AB000990B0E94DE169B01AC01C701B6010E9492
:100AC000041918163CF463E080EA93E00E942605BE
:100AD000E801E7CFBE010D2E000C880B990B0E9498
:100AE000DE169B01AC01C701B6010E9461186B01C3
:100AF0007C0120E030E040EA50E4C701B6010E94EA
:100B00003D170E94CE186B017C018B01CB01019730
:100B100085309105E0F4C431D105CCF4029728F476
:100B200061E080EA93E00E94260583E0C81AD108BC
:100B300082E0C816D10410F462E004C0053011054B
:100B400029F463E080EA93E00E942605219684E17F
:100B500090E06C01CC1ADD0AE12CF12CEC14FD04C0
:100B60006CF4C431D10534F466E080EA93E00E946D
:100B7000260521968FEFE81AF80AF0CFDF91CF9182
:100B80001F910F91FF90EF90DF90CF90089560E05C
:100B900082E10E944A0880915D02882319F08CEE60
:100BA00091E017C080916C0290916D0282309105A6
:100BB00041F08330910541F0019749F489EE91E0CD
:100BC00008C086EE91E005C083EE91E002C080EEA1
:100BD00091E00C9430080F931F93CF93DF938C0117
:100BE000EB0160E080E00E944A08C8010E946909A8
:100BF0008EED91E00E943008BE01DD0F880B990B4D
:100C000097FF03C00E94BC0903C04AE00E947B0911
:100C100080916E0290916F02009719F003970397ED
:100C200020F48AED91E00E94300880916E0290914C
:100C30006F02069721F487ED91E00E94300883ED62
:100C400091E0DF91CF911F910F910C94300880912A
:100C50006002909161028830910514F087E090E085
:100C600097FF02C080E090E0209162023091630221
:100C7000121613060CF4806820916C0230916D02FC
:100C80002130310511F4806109C02230310511F4A1
:100C9000806204C02330310509F480640C94420959
:100CA000CF92DF92EF92FF920F931F93CF93DF9338
:100CB000E0915E02F0915F0220916A0230916B0236
:100CC000225331092E9FC0012F9F900D3E9F900D02
:100CD000112464E670E00E941519CB0177FF02C071
:100CE00080E090E08F01081B190B1616170614F40C
:100CF00060E070E0EB01CE0FDF1F2FE430E0DF019A
:100D00000E942F1924E6C22ED12CE12CF12CA70130
:100D100096010E94111881EB820F0E9420092FE09A
:100D200030E0D8010E942F19A70196010E941118E6
:100D3000DA01C9010F97A109B109819580610E946B
:100D4000F3082FE030E0DE010E942F19A701960181
:100D50000E941118DA01C9010F97A109B109819503
:100D600080620E94F3088FE30E94F3088FE40E94E0
:100D7000F3088FE50E94F3088FE60E94F308A09124
:100D80006402B09165022CE130E00E942F19A701A6
:100D900096010E941118DA01C9010E97A109B10943
:100DA0000E94060980690E94F308A0916602B09132
:100DB00067022CE130E00E942F19A70196010E94E2
:100DC0001118DA01C9010E97A109B1090E9406099B
:100DD000806A0E94F308A0916802B09169022CE138
:100DE00030E00E942F19A70196010E941118DA0124
:100DF000C9010E97A109B1090E940609806B0E94E2
:100E0000F30880911403982F9460909314038467DF
:100E10000E94F308809114038D70809314038067FF
:100E20000E94F30890915C0280911403992331F0A1
:100E3000982F986090931403886704C087708093FC
:100E400014038067DF91CF911F910F91FF90EF9076
:100E5000DF90CF900C94F30881E090E090935B02D8
:100E600080935A020E94280860E671E081E00E94A7
:100E70005C0868E571E082E00E945C0860E571E072
:100E800083E00E945C0868E471E084E00E945C08F2
:100E900060E471E085E00E945C0868E371E086E050
:100EA0000E945C0860E371E087E00E945C0868E2F1
:100EB00071E088E00E945C080C942808833081F07F
:100EC00028F4813099F08230A1F008958730A9F09C
:100ED0008830B9F08430D1F4809180008F7D03C0D8
:100EE000809180008F7780938000089584B58F77FC
:100EF00002C084B58F7D84BD08958091B0008F7746
:100F000003C08091B0008F7D8093B000089540E0D1
:100F1000682F80EA93E00C94D304CF931092870358
:100F200080918903823021F0833021F08FEF03C05C
:100F300080E001C081E090918A03923021F09330EB
:100F400021F0CFEF03C0C0E001C0C1E0823010F457
:100F50000E94F502C23020F48C2FCF910C94F50240
:100F6000CF910895EF92FF920F931F93CF93DF934A
:100F70007C01EB018A018091870381110E948D071A
:100F800082E08093890383E080938A0310928C032C
:100F900010928B03F0928E03E0928D0310939F03C7
:100FA00000939E03E7E3F2E0E491F0E0EE0FFF1F11
:100FB000E55DFD4F859194919093970380939603FF
:100FC000E8E3F2E0E491F0E0EE0FFF1FE55DFD4F96
:100FD000859194919093990380939803E9E1F2E0CD
:100FE000E491E0939A03EAE1F2E0E491E0939B0359
:100FF00080918D0390918E038C179D072CF4809126
:101000008D0390918E030BC080918B0390918C0384
:10101000C817D9074CF480918B0390918C0390935F
:1010200095038093940304C0D0939503C0939403D5
:1010300087EC91E09093900380938F0381E08093FD
:101040008803DF91CF911F910F91FF90EF9008954A
:1010500081E00E9487078BE39FE10197F1F70895F4
:101060000F931F93CF93DF938C01C0E0D0E0F80182
:10107000EC0FFD1F6491662339F041E080EA93E0B4
:101080000E94D3042196F3CFCE01DF91CF911F911F
:101090000F910895643008F063E09091B3036917ED
:1010A00010F06FEF690FE62FF0E0E056FC4F9489E7
:1010B000890F80680C9487070F931F93CF93DF935A
:1010C0008B01877028E0829FC001112480640E94F8
:1010D0008707E801085F1F4F699180EA93E00E944B
:1010E0002605C017D107C1F7DF91CF911F910F914E
:1010F000089520918B0330918C03821793072CF471
:1011000080918B0390918C030BC020918D033091C3
:101110008E032817390724F480918D0390918E0354
:10112000F894909395038093940378940895309164
:101130005F03313208F04BC080913B038111FCCF3B
:1011400090915E0322E020933B0321E020933A0339
:101150002FEF209339031092380330933703EEE3D7
:10116000F3E0A7E1B3E020E0321721F041914D9385
:101170002F5FFACF1092160320911603990F922B2E
:101180009093160390911503913061F4109215031A
:10119000909116039093BB009091BC0093FDF8CF03
:1011A00095EC01C095EE9093BC0090913B0392307A
:1011B000E1F3909139039F3F79F0809139038032B8
:1011C00041F080913903803331F084E005C081E043
:1011D00003C082E001C083E010923D0310925F03E0
:1011E00010923C03089591E090933C0394E4909313
:1011F0005E0310923D0310925F03682F8CE693E02C
:101200000E9409020E94970890E00895EDE6F1E03F
:1012100020E030E0419151914817590729F4F90134
:10122000E755FE4F808108952F5F3F4F2C333105E6
:1012300089F787E00895682F8CE693E00C94090203
:10124000CF9391E090933C0394E490935E031092CB
:101250003D0310925F0381956AE00E940919C82F2F
:10126000C295C07FC92B892F806D90E00E941B0919
:10127000C295CF708C2F806E90E00E941B09CF9199
:101280000C949708CF93DF93909179039923D9F029
:10129000682F8091780391E090933C0380935E03E4
:1012A00010923D0310925F038CE693E00E940902C6
:1012B000EC01019719F01092790305C00E9497087C
:1012C0008111F9CF02C0C0E0D0E0CE01DF91CF9113
:1012D0000895009769F0FC0101900020E9F731972B
:1012E000AF01481B590BBC0180EA93E00C945201FA
:1012F00080E090E008958F929F92AF92BF920F93FB
:101300001F93CF93DF93CDB7DEB7A1970FB6F894B5
:10131000DEBF0FBECDBF19A2423008F44AE08E01F5
:101320000F5D1F4F842E912CA12CB12CA50194018F
:101330000E943018E62FB901CA0101501109EA30A4
:1013400014F4E05D01C0E95CD801EC93232B242B5D
:10135000252B61F7C8010E946909A1960FB6F89480
:10136000DEBF0FBECDBFDF91CF911F910F91BF9018
:10137000AF909F908F900895CF92DF92EF92FF925F
:101380006B017C0141E06DE280EA93E00E94D304AE
:1013900066277727CB016C197D098E099F094AE0E2
:1013A0000E947B090196FF90EF90DF90CF90089507
:1013B000662339F091E0082E01C0990F0A94EAF7EC
:1013C00001C090E021E030E001C0220F8A95EAF7E9
:1013D00080917A032823322F392380917B03832B3A
:1013E0002095922B892380937B030C944209E8E794
:1013F000F3E021E030E001C0220F8A95EAF7828114
:10140000282B228320958381282B23830895909174
:101410007903992331F020917803281711F090E097
:1014200018C080937803911114C08823C1F391E010
:101430009093790390933C0380935E0310923D0355
:1014400010925F030E94970891E0811190E09093C1
:101450007903892F0895CF93DF93282F30E0F90186
:10146000ED5FFD4F8491F901E95EFD4FD491F901E3
:10147000EB5CFD4FC491CC2391F081110E945E077B
:10148000EC2FF0E0EE0FFF1FE55DFD4FA591B4914D
:10149000EC91ED2381E090E021F480E002C080E057
:1014A00090E0DF91CF9108951F93CF93DF93282F82
:1014B00030E0F901ED5FFD4F8491F901E95EFD4FE8
:1014C000D491F901EB5CFD4FC491CC23C1F0162FF0
:1014D00081110E945E07EC2FF0E0EE0FFF1FE75036
:1014E000FE4FA591B4919FB7F894111104C08C914F
:1014F000D095D82302C0EC91DE2BDC939FBFDF9107
:10150000CF911F910895CF93DF9390E0FC01E95EA6
:10151000FD4F2491FC01EB5CFD4F8491882361F128
:1015200090E0880F991FFC01E151FE4FC591D491C5
:10153000FC01E750FE4FA591B491611109C09FB71E
:10154000F8948881209582238883EC912E230BC008
:10155000623061F49FB7F8948881322F30958323ED
:101560008883EC912E2B2C939FBF06C08FB7F894E5
:10157000E8812E2B28838FBFDF91CF910895CF93E1
:10158000DF93623028F09091AF0398609093AF039F
:101590006093B3031092B40390E49093B5038093E7
:1015A000B60390E0805C9F4F8093B70361E0809129
:1015B000A4030E94830A8091A5038F3F19F061E084
:1015C0000E94830A61E08091A6030E94830AC0EA18
:1015D000D3E09E01205A33408091AF0384FD03C0C5
:1015E00084E090E002C088E090E021962817390757
:1015F0002CF461E08E810E94830AEBCF8BE39DE0A7
:101600000197F1F760E08091A4030E94540A60E022
:101610008091A6030E94540A8091A5038F3F19F080
:1016200060E00E94540A8091AF0384FD20C063E013
:1016300080EA93E00E94A604CBE4D6E4CE010197B1
:10164000F1F763E080EA93E00E94A6042197F1F7A6
:1016500063E080EA93E00E94A60483E592E00197AC
:10166000F1F762E080EA93E00E94A60415C0806270
:101670000E9487078BE496E40197F1F78091AF030E
:1016800080620E94870783E592E00197F1F78091DD
:10169000AF0380620E9487078091AF0380620E943F
:1016A000870784E08093B0038CE00E9487070E9444
:1016B000280882E08093B10386E0DF91CF910C94FB
:1016C00087078E3008F08E5020916C0190E4299F9E
:1016D000900111248770822B80937C0080917A0086
:1016E000806480937A0080917A0086FDFCCF80919F
:1016F00078002091790090E0922B08958F929F922C
:10170000AF92BF92CF92DF92EF92FF926B017C017A
:101710000E94980C4B015C01C114D104E104F10456
:10172000F1F00E94980CDC01CB0188199909AA09F3
:10173000BB09883E9340A105B10570F321E0C21AB0
:10174000D108E108F10888EE880E83E0981EA11CFC
:10175000B11CC114D104E104F10419F7DDCFFF90ED
:10176000EF90DF90CF90BF90AF909F908F900895B3
:10177000DF92EF92FF920F931F93CF93DF938091AD
:101780008703882311F010E0CAC080918803882362
:10179000D1F38091890390918A038917A1F3823054
:1017A00021F0833009F0A6C0A8C0923061F39330D5
:1017B00009F09BC001E010E0C0E0D0E00EC0933023
:1017C00011F3C1E0D0E0CF3F2FEFD207E1F20FEFEE
:1017D0001FEFD7FDD8CF17FDD6CF40918B03509187
:1017E0008C0320918D0330918E03421753075CF6D2
:1017F00062E00E94830A62E080918A030E94830A69
:1018000062E070E080E090E00E947E0BE091960341
:10181000F0919703908180919A03892391E009F4D4
:1018200090E090939103E0919803F0919903908157
:1018300080919B03892391E009F490E090939203B7
:101840008091920390919103880F892B8093930349
:1018500080918F0390919003875E914021F4809155
:1018600093038330F1F186E0D82EDC9EF001DD9EFB
:10187000F00D1124DF01A05ABC4F97E8E92E93E048
:10188000F92EED92FC92EE59FC4F87EC92E0918399
:101890008083138212828C2F0E948304882309F490
:1018A00072CFD09EF001D19EF00D1124DF01A05A1D
:1018B000BC4FED92FC92EE59FC4F84EB92E0918389
:1018C000808313821282802F0E948304182F81113B
:1018D00004C08C2F0E94F50222C081E08093870310
:1018E0001EC087E080939303BECF0FEF1FEFC0E0D1
:1018F000D0E071CF923049F446CF923009F05FCFFB
:1019000000E010E0C1E0D0E068CF933029F401E0BE
:1019100010E0CFEFDFEF5DCFCFEFDFEF54CF812FC0
:10192000DF91CF911F910F91FF90EF90DF9008957D
:101930003FB7F8948091BD039091BE03A091BF037F
:10194000B091C00326B5A89B05C02F3F19F00196A2
:10195000A11DB11D3FBFBA2FA92F982F8827820F35
:10196000911DA11DB11DBC01CD0142E0660F771F85
:10197000881F991F4A95D1F708951F920F920FB6AD
:101980000F9211242F933F938F939F93AF93BF9305
:101990008091B8039091B903A091BA03B091BB03B1
:1019A0003091BC0323E0230F2D3720F40196A11DB5
:1019B000B11D05C026E8230F0296A11DB11D20937D
:1019C000BC038093B8039093B903A093BA03B09378
:1019D000BB038091BD039091BE03A091BF03B09162
:1019E000C0030196A11DB11D8093BD039093BE035A
:1019F000A093BF03B093C003BF91AF919F918F910C
:101A00003F912F910F900FBE0F901F901895CF937D
:101A1000DF93CDB7DEB7A1970FB6F894DEBF0FBE48
:101A2000CDBF789484B5826084BD84B5816084BD67
:101A300085B5826085BD85B5816085BD80916E006C
:101A4000816080936E00109281008091810082609D
:101A500080938100809181008160809381008091DA
:101A600080008160809380008091B10084608093C9
:101A7000B1008091B00081608093B00080917A00C5
:101A8000846080937A0080917A00826080937A00EB
:101A900080917A00816080937A0080917A008068DA
:101AA00080937A001092C10061E080E00E94830A76
:101AB00061E081E00E94830A60E080E00E94540AB5
:101AC00060E081E00E94540A10925902109258027C
:101AD00010923D0310925F0310923B0311E01093AC
:101AE0003A031092150361E082E10E94540A61E01A
:101AF00083E10E94540A8091B9008E7F8093B900DF
:101B00008091B9008D7F8093B90088E48093B800FC
:101B100085E48093BC008EEA91E090935702809315
:101B200056028FEA91E0909355028093540264E04C
:101B300084E10E94BF0A0E9428080E942C0710938B
:101B40007D0361E080917C030E94540A26E9E22E25
:101B500022E0F22E8EE692E0D701EEE5F2E011925D
:101B600011921D921D928E179F07C9F710926F0256
:101B700010926E021092A7021092A6029EE5C92E44
:101B800092E0D92E00E010E0C80180579E4F0E94DD
:101B9000FB170130110519F4883060F40CC00230D5
:101BA000110519F4823030F406C00730110519F41C
:101BB000843008F080E0980121503109223031054D
:101BC00058F00730110541F0853630F00630110528
:101BD00011F080E001C082E390E0F60181939193DF
:101BE0006F01F701819391937F010F5F1F4F0830C1
:101BF000110551F688E991E00E94FB1791E08111EF
:101C000001C090E090935C026CE271E080E090E0B3
:101C10000E947E0B84E0809314038FEF0E94F308F0
:101C200087EC0E94F30880E10E94F30880E20E94A2
:101C3000F30880E30E94F30880E40E94F30880E543
:101C40000E94F30880E60E94F30881E080933C0341
:101C500084E480935E0310923D0310925F0380ED55
:101C600090E00E941B0980EE90E00E941B090E94F8
:101C700097088091140380670E94F30887E90E9407
:101C8000F30887EA0E94F30887EB0E94F3080E949A
:101C9000500685E292E00E94690980E20E94070AEC
:101CA000811103C080E70E94070A81E00E94F709C2
:101CB00082E00E94F70984E00E94F70988E00E9410
:101CC000F70980E10E94F70980E20E94F70980E4A9
:101CD0000E94F70980E80E94F70960E081E00E9415
:101CE000D80960E082E00E94D80960E084E00E94A8
:101CF000D80961E088E00E94D80960E080E10E9494
:101D0000D80960E080E20E94D80960E080E40E9487
:101D1000D80960E080E80E94D8090E94270661E0A7
:101D200086E00E94830A61E085E00E94830A81E0E8
:101D300080936C0160E080E10E94830A60E081E1B1
:101D40000E94830A62E084E00E94830A62E08EE0DF
:101D50000E94830A61E08EE00E94540A62E08FE0F4
:101D60000E94830A61E08FE00E94540A8091700211
:101D70008111C2C080911403982F9860909314032E
:101D800088670E94F3080E94280862E370E080E000
:101D900090E00E947E0B60E080E00E944A088AE4A6
:101DA00091E00E94300861E080E00E944A0885E3EB
:101DB00091E00E94300862E080E00E944A0880E2E0
:101DC00091E00E94300863E080E00E944A088BE0C6
:101DD00091E00E94300864EF71E080E090E00E94A2
:101DE0007E0B61E080E00E944A0886EF90E00E944E
:101DF000300862E080E00E944A0881EE90E00E9494
:101E0000300863E080E00E944A088CEC90E00E9479
:101E1000300868E873E180E090E00E947E0B8091DA
:101E2000140387708093140380670E94F30861E0B5
:101E300080E00E94540A61E081E00E94540A0E94FE
:101E4000280862E370E080E090E00E947E0B60E092
:101E500080E00E944A0887EB90E00E94300861E031
:101E600080E00E944A0882EA90E00E94300862E026
:101E700080E00E944A088DE890E00E94300863E00C
:101E800080E00E944A0888E790E00E943008A09015
:101E90005E02B0905F02C12CD12C760100E010E010
:101EA00084E6482E512C612C712CA016B106FCF052
:101EB00010935F0200935E02C701B601A301920175
:101EC0000E94111881EB820F0E942009C8010E9414
:101ED0002C0562E370E080E090E00E947E0B0F5FD3
:101EE0001F4FFFE4CF0ED11CE11CF11CDECF0E947E
:101EF000280881E080937002E0916E02F0916F02F9
:101F0000EE0FFF1FE25AFD4F0081118145E050E0C6
:101F1000B80184E690E00E94B2070E94B80BC801A5
:101F20000E9479081E0105E1200E311C8FB7F8943C
:101F3000C090B803D090B903E090BA03F090BB030F
:101F40008FBF40918303509184036091850370910A
:101F500086032FB7F8948091B8039091B903A091AC
:101F6000BA03B091BB032FBF84179507A607B70725
:101F700068F180917E030E942B0A2091810330E05A
:101F80008217930719F12FB7F8948091B8039091B5
:101F9000B903A091BA03B091BB032FBF20917F0377
:101FA00030918003820F931FA11DB11D8093830385
:101FB00090938403A0938503B0938603809181035B
:101FC00091E089278093810390938203809181031C
:101FD000811134C080918203882381F110928203A1
:101FE0008091A9029091AA02A091AB02B091AC029B
:101FF000A7019601281B390B4A0B5B0BDA01C901BB
:1020000081399140A105B105C8F080916E0290918F
:102010006F028730910529F410926F0210926E02C0
:1020200005C0019690936F0280936E02C092A90240
:10203000D092AA02E092AB02F092AC028EE00E9433
:10204000610B85369105C4F08D3241E094070CF4A4
:1020500054C2813951E095070CF452C2853FE1E04A
:102060009E070CF450C2813392400CF44FC28FE0B3
:102070000E942B0A892B71F581E090E04091A90222
:102080005091AA026091AB027091AC029701860157
:10209000041B150B260B370BB901A8014139514020
:1020A00061057105B8F08330910509F43EC20CF06A
:1020B00030C2029709F434C290915C0281E0892712
:1020C00080935C02C092A902D092AA02E092AB0275
:1020D000F092AC0200916E0210916F028091A60204
:1020E0009091A7027801EE0CFF1C80179107F1F187
:1020F0000E9428081093A7020093A6020130110540
:1021000049F4609160027091610241E050E087E023
:1021100090E021C00230110549F460916202709193
:10212000630241E050E081E090E015C00730110506
:1021300049F460916C0270916D0241E050E083E0DF
:1021400090E009C0F701E25AFD4F6081718145E0DE
:1021500050E084E690E00E94B2070E94B80BF701BD
:10216000E25AFD4F808191810E947908F894809114
:102170009403909195037894F701E25AFD4F91836F
:1021800080838FB7F894C090B803D090B903E090E3
:10219000BA03F090BB038FBF80915D02882389F161
:1021A0008091AD029091AE02A091AF02B091B002C9
:1021B00097018601081B190B2A0B3B0BD901C8019B
:1021C00080319742A105B105E0F0AEE5AA2EA2E06C
:1021D000BA2E00E911E0F5016081F2E0AF0EB11C0A
:1021E000C8010E9403180F5F1F4F083921E0120732
:1021F00091F760915C0288E991E00E9403181092C7
:102200005D028091AD029091AE02A091AF02B091BB
:10221000B00297018601081B190B2A0B3B0BD90151
:10222000C80188389341A105B105B8F18091A90290
:102230009091AA02A091AB02B091AC02A7019601C5
:10224000281B390B4A0B5B0BDA01C9018838934113
:10225000A105B10510F181E08093A80280916E0282
:1022600090916F02892BD9F010926F0210926E023A
:102270001092A7021092A60200915E0210915F02D6
:1022800045E050E0B80184E690E00E94B2070E9469
:10229000B80BC8010E94790802C01092A8020091F0
:1022A0006E0210916F02480141E0841A9108C80142
:1022B000880F991FFC01E25AFD4F52E085169104E8
:1022C00008F4BEC00730110509F4BAC0A081B1817D
:1022D000FC01EA56FD4F808191818A179B0709F422
:1022E000CAC0C092AD02D092AE02E092AF02F092AC
:1022F000B00281E080935D02B183A08304301105B8
:1023000089F1D4F401151105F1F00330110509F03C
:10231000B0C02CE130E00E942F1924E630E040E00C
:1023200050E00E941118DA01C9010E97A109B10904
:102330000E940609806981C00530110531F106301F
:102340001105B1F196C02FE430E00E942F1924E668
:1023500030E040E050E00E94111881EB820F0E94B3
:10236000200987C02CE130E00E942F1924E630E0DC
:1023700040E050E00E941118DA01C9010E97A1094E
:10238000B1090E940609806A58C02CE130E00E9421
:102390002F1924E630E040E050E00E941118DA01E5
:1023A000C9010E97A109B1090E940609806B45C0B9
:1023B00020915E0230915F02D297A29FC001A39F3D
:1023C000900DB29F900D112464E670E00E941519E3
:1023D000CB0177FF02C080E090E0D901A81BB90BC8
:1023E0005B011616170614F4A12CB12CA20EB31E15
:1023F0002FE030E00E942F1924E630E040E050E06A
:102400000E941118DA01C9010F97A109B10981953C
:1024100080610E94F3082FE030E0D5010E942F195F
:1024200024E630E040E050E00E941118DA01C901D2
:102430000F97A109B109819580620E94F30819C024
:1024400020813181FC01EA56FD4F80819181821704
:10245000930789F0C092AD02D092AE02E092AF0233
:10246000F092B00281E080935D02318320830E946C
:1024700027061092A80280915C029091950298170D
:1024800089F0C092AD02D092AE02E092AF02F0921B
:10249000B00291E090935D02809395020E945006F5
:1024A0001092A8022091A80280915A0290915B029A
:1024B000222309F43FC0029709F466C082E090E04D
:1024C00090935B0280935A020E94280860E171E0B9
:1024D00081E00E945C0868E071E082E00E945C0894
:1024E00060E071E083E00E945C0861E772E084E0F4
:1024F0000E945C080E94280847C082E090E0BECDA0
:1025000083E090E0BBCD84E090E0B8CD85E090E042
:10251000B5CD8430910549F08530910531F0CCCDB1
:1025200010926F0210926E02CDCD90936F02809345
:102530006E02C8CD22E08216910418F00730110512
:10254000E9F40397A9F083E090E090935B02809315
:102550005A020E94280860E271E081E00E945C0853
:1025600068E171E082E00E945C080E9428085EC178
:1025700082E08816910408F459C142C3019709F416
:1025800055C10E942C0752C161E085E00E94540AA7
:1025900060E085E00E94540A07E812E01E8B0D8B74
:1025A00009E712E0188F0F8B85E9C82E82E0D82E3C
:1025B000780107E812E060E086E00E94540A83E7B1
:1025C00090E00197F1F782E00E94610BF80181939E
:1025D00091938F0183E00E94610BF70181939193A6
:1025E0007F0161E086E00E94540AC016D10619F707
:1025F00060E085E00E94540A61E086E00E94540A8F
:1026000063E080E00E944A0881E691E00E94300881
:1026100063E083E10E944A088FE591E00E94300860
:102620000E94C70560E080E00E944A086091600255
:10263000709161026F5F7F4F072E000C880B990B22
:1026400097FF03C00E94BC0903C04AE00E947B09B7
:10265000EBE0DE2EED89FE8961917191FE8BED8BB1
:10266000CB01770FAA0BBB0BBC01CD0145E0660F78
:10267000771F881F991F4A95D1F72FEF33E040E06D
:1026800050E00E94111849015A013E8F2D8FEF89A9
:10269000F88D61917191F88FEF8BCB01770FAA0BB9
:1026A000BB0BBC01CD0155E0660F771F881F991F3A
:1026B0005A95D1F72FEF33E040E050E00E94111817
:1026C000298F3A8F4B8F5C8F098D1A8D18A30F8F2E
:1026D00063E0C62E412C512C78E0672E712C17EF49
:1026E0001D0D19A30D8D1E8D0615170544F47401DB
:1026F000E418F508F7FE06C0E12CF12C03C038E021
:10270000E32EF12C0F8D18A1061517054CF4098D39
:102710001A8D0419150917FF05C000E010E002C06A
:1027200008E010E06C2D89A10E944A08C7010197BA
:10273000039728F461E080EA93E00E942605C70130
:102740000497039710F462E009C027E0E216F10451
:1027500014F063E003C0EF2829F464E080EA93E01A
:102760000E9426056C2D8D2D0E944A08C8010197F4
:10277000039728F461E080EA93E00E942605C801EF
:102780000497039710F462E013C00730110514F0AA
:1027900063E00EC0012B59F028E0620E711C38E096
:1027A000430E511CCA944FEFC4129CCF06C064E084
:1027B00080EA93E00E942605EFCFD39432E1D31252
:1027C00049CF2CC0009160021091610208301105C0
:1027D00014F007E010E017FF02C000E010E0B801BD
:1027E0006F5F7F4F81E392E00E94EB050E94C70577
:1027F00061E080E00E944A08E12CF12C0E151F05D3
:1028000009F046C062E080EA93E00E9426054FEF9F
:10281000E41AF40A58E0E516F10481F780E090E04C
:10282000892B09F483CB0E94000080CB083011056E
:10283000A8F7F801EC5CFF4F0C942919A0915E02F7
:10284000B0915F022FE430E00E942F1924E630E0BF
:1028500040E050E00E941118CA01B9016F5471099B
:10286000810991098AE292E00E94EB050E94C70566
:1028700080915C02882339F061E080E00E944A0880
:1028800083E691E01AC280915E0290915F0298C047
:1028900061E0B9CF00916202109163021016110637
:1028A00014F401E010E017FF02C000E010E060E067
:1028B00080E00E944A088BE891E00E9430080E9464
:1028C000C70561E080E00E944A080130110511F05F
:1028D00061E001C062E080EA93E00E94260582E8A0
:1028E00091E00E94300862E080E00E944A080130D6
:1028F000110511F062E001C061E080EA93E00E94FE
:10290000260588E791E0D9C1A0916402B0916502E3
:102910002CE130E00E942F1924E630E040E050E046
:102920000E941118CA01B9016E50710981099109FB
:1029300088E392E00E94EB050E94C7058091640243
:10294000909165023DC0A0916602B09167022CE1B2
:1029500030E00E942F1924E630E040E050E00E9471
:102960001118CA01B9016E507109810991098DE3ED
:1029700092E00E94EB050E94C7058091660290914B
:1029800067021EC0A0916802B09169022CE130E09C
:102990000E942F1924E630E040E050E00E94111818
:1029A000CA01B9016E5071098109910984E492E06C
:1029B0000E94EB050E94C705809168029091690210
:1029C0000E942C052BCF60916A0270916B028BE400
:1029D00092E00E94EB050E94C70580906A029090E9
:1029E0006B02B40162537109072E000C880B990B1E
:1029F0000E94DE162DEC3CEC4CE45EE30E943D1799
:102A00002B013C01CE0101967C01FC0186E0819303
:102A10002E163F06E1F720E030E0A901C301B20124
:102A20000E94041987FD69C020E030E040E85FE3C0
:102A3000C301B2010E94041987FD31C05E019BE011
:102A4000A90EB11CCC24C394D12C860101501109CC
:102A5000B6010D2C000C880B990B0E94DE169B0111
:102A6000AC01C301B2010E940419181644F4F50127
:102A700003E001935F011FEFC11AD10AE6CFB8014D
:102A8000012E000C880B990B0E94DE169B01AC01F5
:102A9000C301B2010E9461182B013C0102C000E099
:102AA00010E020E030E040EA50E4C301B2010E94AF
:102AB0003D170E94CE189B01AB0141505109453092
:102AC000510508F086C0065F1F4F4230510528F4BB
:102AD00041E0F701E00FF11F4083AB014350510982
:102AE0004230510528F4F701E00FF11F82E070C079
:102AF0002530310509F06DC067C020E030E040E8C6
:102B00005FEBC301B2010E94D71618168CF15E016B
:102B10002BE0A20EB11CCC24CA94DC2C86010F5FE2
:102B20001F4FB6010D2C000C880B990B0E94DE166E
:102B30009B01AC01C301B2010E94D71687FF08C0F8
:102B4000F50103E002935F0111E0C11AD108E6CF5D
:102B5000B801012E000C880B990B0E94DE169B0118
:102B6000AC01C301B2010E9461182B013C0102C0FB
:102B700000E010E020E030E040EA50E4C301B201A0
:102B80000E943D170E94CE18DB019B012B5F3F4F37
:102B900025303105F0F4075F1F4F235031092230F3
:102BA000310528F425E0F701E00FF11F2083AB0188
:102BB0004C5F5F4F4230510528F4F701E00FF11FE1
:102BC00084E006C0159629F4F701E00FF11F83E0B9
:102BD000808332E38316910421F487E08A8788E0BA
:102BE0008B8761E080E00E944A08F70161917F01D4
:102BF00080EA93E00E9426052E143F04B1F70ECE22
:102C00000730110509F0BDCC00916C0210916D02E6
:102C10000430110514F003E010E017FF02C000E0DB
:102C200010E060E080E00E944A0886EC91E00E949B
:102C300030080E94C70561E080E00E944A08011543
:102C4000110511F061E001C062E080EA93E00E94AA
:102C5000260586EB91E00E94300862E080E00E9449
:102C60004A080130110511F061E001C062E080EA1C
:102C700093E00E9426058DEA91E00E943008023020
:102C8000110511F061E001C062E080EA93E00E946A
:102C9000260584EA91E00E94300863E080E00E940B
:102CA0004A080330110511F061E001C062E080EADA
:102CB00093E00E94260587E991E00E943008AECD9E
:102CC0008091870381110C948D0708951F93CF93F2
:102CD000DF93ECE6F3E01382128288EE93E0A0E04B
:102CE000B0E084839583A683B7838BE092E09183E1
:102CF0008083E0EAF3E0138212828DE192E0918317
:102D0000808388E084831FEF158389E086838DE0CC
:102D100087838CE080878BE081878AE082871386B7
:102D2000148615861686178661E080E10E94BF0A28
:102D3000E7E8F3E010821182128213821582148276
:102D40001782168211861086158A168A81E090E015
:102D5000908F878B45E050E060E070E084E690E083
:102D60000E94B207EEE7F3E084E0808384EF91E015
:102D70009283818381E08383148215821682178275
:102D80001086CCE7D3E087E0888361E00E94830A65
:102D900060E088810E94540A1982E8E7F3E010821B
:102DA000118212821383DF91CF911F9108950E94A7
:102DB000191708F481E00895E89409C097FB3EF4E0
:102DC00090958095709561957F4F8F4F9F4F992378
:102DD000A9F0F92F96E9BB279395F69587957795F6
:102DE0006795B795F111F8CFFAF4BB0F11F460FFB6
:102DF0001BC06F5F7F4F8F4F9F4F16C0882311F00E
:102E000096E911C0772321F09EE8872F762F05C021
:102E1000662371F096E8862F70E060E02AF09A95BC
:102E2000660F771F881FDAF7880F9695879597F9B1
:102E30000895990F0008550FAA0BE0E8FEEF16164B
:102E40001706E807F907C0F012161306E407F5079E
:102E500098F0621B730B840B950B39F40A2661F012
:102E6000232B242B252B21F408950A2609F4A140B5
:102E7000A6958FEF811D811D08950E9450170C9417
:102E8000C1170E94B31738F00E94BA1720F095239B
:102E900011F00C94AA170C94B01711240C94F51788
:102EA0000E94D21770F3959FC1F3950F50E0551F04
:102EB000629FF001729FBB27F00DB11D639FAA278F
:102EC000F00DB11DAA1F649F6627B00DA11D661FDE
:102ED000829F2227B00DA11D621F739FB00DA11DFF
:102EE000621F839FA00D611D221F749F3327A00DB9
:102EF000611D231F849F600D211D822F762F6A2F55
:102F000011249F5750409AF0F1F088234AF0EE0FB9
:102F1000FF1FBB1F661F771F881F91505040A9F7E6
:102F20009E3F510580F00C94AA170C94F5175F3F53
:102F3000E4F3983ED4F3869577956795B795F79522
:102F4000E7959F5FC1F7FE2B880F911D969587959A
:102F500097F9089597F99F6780E870E060E0089519
:102F60009FEF80EC089500240A94161617061806A1
:102F70000906089500240A9412161306140605067D
:102F80000895092E0394000C11F4882352F0BB0F0E
:102F900040F4BF2B11F460FF04C06F5F7F4F8F4F71
:102FA0009F4F089557FD9058440F551F59F05F3FAC
:102FB00071F04795880F97FB991F61F09F3F79F05B
:102FC00087950895121613061406551FF2CF4695DD
:102FD000F1DF08C0161617061806991FF1CF86955F
:102FE0007105610508940895E894BB276627772743
:102FF000CB0197F90895F999FECF92BD81BDF89A5A
:10300000992780B50895262FF999FECF1FBA92BD52
:1030100081BD20BD0FB6F894FA9AF99A0FBE0196B9
:103020000895052E97FB1EF400940E94281857FD62
:1030300007D00E94301807FC03D04EF40C942818D7
:1030400050954095309521953F4F4F4F5F4F0895D4
:1030500090958095709561957F4F8F4F9F4F089504
:10306000A1E21A2EAA1BBB1BFD010DC0AA1FBB1F8C
:10307000EE1FFF1FA217B307E407F50720F0A21BFE
:10308000B30BE40BF50B661F771F881F991F1A946B
:1030900069F760957095809590959B01AC01BD0195
:1030A000CF010895A29FB001B39FC001A39F700DEF
:1030B000811D1124911DB29F700D811D1124911D40
:1030C00008955058BB27AA270E9479180C94C1175D
:1030D0000E94B31738F00E94BA1720F039F49F3FCE
:1030E00019F426F40C94B0170EF4E095E7FB0C9459
:1030F000AA17E92F0E94D21758F3BA17620773076D
:103100008407950720F079F4A6F50C94F4170EF4D3
:10311000E0950B2EBA2FA02D0B01B90190010C01E7
:10312000CA01A0011124FF27591B99F0593F50F4FF
:10313000503E68F11A16F040A22F232F342F442757
:10314000585FF3CF469537952795A795F04053954F
:10315000C9F77EF41F16BA0B620B730B840BBAF01F
:103160009150A1F0FF0FBB1F661F771F881FC2F78A
:103170000EC0BA0F621F731F841F48F4879577959E
:103180006795B795F7959E3F08F0B0CF9395880F58
:1031900008F09927EE0F9795879508950E94D51806
:1031A0006894B1110C94F51708950E94DA1788F00D
:1031B0009F5798F0B92F9927B751B0F0E1F0660FFB
:1031C000771F881F991F1AF0BA95C9F714C0B1303C
:1031D00091F00E94F417B1E008950C94F417672F52
:1031E000782F8827B85F39F0B93FCCF3869577956B
:1031F0006795B395D9F73EF4909580957095619554
:103200007F4F8F4F9F4F08950E94191708F48FEF3B
:103210000895991B79E004C0991F961708F0961B32
:10322000881F7A95C9F78095089597FB072E16F4A5
:10323000009407D077FD09D00E94361907FC05D00D
:103240003EF4909581959F4F0895709561957F4FBD
:103250000895EE0FFF1F0590F491E02D09940E9450
:103260005218B7FF0895821B930B0895AA1BBB1B2E
:1032700051E107C0AA1FBB1FA617B70710F0A61B76
:10328000B70B881F991F5A95A9F780959095BC0197
:10329000CD01089581E090E0F8940C944F1911E06D
:1032A000C6E2D1E004C0FE010E9429192196C7326E
:0832B000D107C9F7F894FFCF24
:1032B8001F1F001F1F001F1F0000001F1F001F1FD0
:1032C8000000000000001F1F0000000E0E0E001F6F
:1032D800000000000000001F0010181C1C1810003F
:1032E80000010307070301000000000404000000B8
:1032F800010101050501010105050505050505058E
:10330800151515151515151514141414141414146D
:1033180010101014141010105101510101F2FFF394
:10332800FFF4FFF5FFF6FFF7FFF8FFF9FFFAFFFBE1
:10333800FFFCFFFDFFFEFFFFFF00000E000D000C6D
:10334800000B000A00090008000700060005000439
:103358000003000200010000000001010202030353
:103368000404050506060707080809090A0A0B0BDD
:103378000C0C0D0D0E0E0F000100020001010B02D6
:1033880003000202030503040504060405050306F9
:1033980013040603030303000100020001010F02E6
:1033A80017000207070707000000001005050706B9
:1033B80007080606070507000000000902DC01DA15
:1033C80002B001D401C001B101000000002605527D
:1033D80001DA02D90273656E6400564F4C554D45AB
:1033E80000534F555243450042415353004D494401
:1033F800444C4500545245424C450042414C414ED4
:043408004345000038
:00000001FF
