:100000000C944B010C94FB0B0C94D40B0C947301CB
:100010000C9473010C9473010C9473010C94730190
:100020000C9473010C9473010C9473010C94730180
:100030000C9473010C9473010C9473010C94730170
:100040000C948A0B0C9473010C9473010C9473013F
:100050000C9473010C9473010C9473010C94730150
:100060000C94220C0C9473012020200020250020E9
:1000700064420020002A0020002020202020202090
:100080002020202020202020202020202000202090
:10009000202020204C4F4144494E47202020202042
:1000A0002020002020202020202020202020202070
:1000B0002020202020202000202020202020202060
:1000C0002020202020202020202020200020202050
:1000D0002020202020202020202020202020202020
:1000E0002000202020202020424F4F54494E4720FE
:1000F0002020202020200020202020202020202020
:100100002020202020202020202020002020204DE2
:1001100061646520696E20556B7261696E6520208F
:1001200000202020202020202020202020202020EF
:100130002020202020002020202056657273696F27
:100140006E20322E35332020202000202020204811
:10015000492D46492053544552454F202020200028
:100160004551204F4646004551204F4E0064420005
:10017000545245200052455645525345004D4F4E6E
:100180004F20412B42004D4F4E4F2042004D4F4ECD
:100190004F20410053544552454F006442004D49A1
:1001A0004420004348200064420042415320002084
:1001B000250042414C20006442004D5554450056F4
:1001C0004F4C200052004C002D2D2D2D2D2D2D207B
:1001D0004D555445202D2D2D2D2D2D2D002064699C
:1001E0007361626C65640020656E61626C656400B9
:1001F0004551205041535354485255002052657682
:100200006572736500204D6F6E6F204142200020A3
:100210004D6F6E6F20422000204D6F6E6F20412089
:1002200020002053746572656F20004D4F4E4F20A3
:10023000444F574E4D49580000000000240027004D
:100240002A0000000000250028002B000000000804
:10025000000201000003040700000000000000008D
:10026000010204081020408001020408102001024D
:1002700004081020000000002300260029000404C8
:10028000040404040404020202020202030303033E
:100290000303410D041A11241FBECFEFD8E0DEBFC7
:1002A000CDBF12E0A0E0B1E0E4E1F9E302C00590C7
:1002B0000D92AE36B107D9F723E0AEE6B2E001C049
:1002C0001D92AC3FB207E1F711E0CAE4D1E004C0EF
:1002D0002197FE010E945C1CC934D107C9F70E9416
:1002E000300E0C947D1C0C9400002091990381E049
:1002F000213208F044C0809175038111FCCF8091B8
:10030000980392E09093750391E0909374039FEFAC
:10031000909373031092720320937103A8E7B3E0E4
:10032000E1E5F3E090E0291331C010925003909181
:100330005003880F892B8093500380914F038130A5
:1003400049F510924F03809150038093BB00809138
:10035000BC0083FDF8CF85EC8093BC0080917503D1
:100360008230E1F3809173038F3FB1F0809173038A
:100370008032A1F080917303803391F084E0109279
:100380007703109299031092760308953D9131936B
:100390009F5FC9CF85EEE0CF80E0F1CF82E0EFCF65
:1003A00083E0EDCF0C94750191E0909376038093F8
:1003B000980310927703109299030895EDE6F1E007
:1003C00030E020E0419151914817590729F4275412
:1003D0003E4FF901808108952F5F3F4F2C33310547
:1003E00089F787E008952091CF033091D0038217D9
:1003F00093075CF48091CF039091D003F89490938D
:10040000D9038093D803789408952091D103309133
:10041000D2032817390794F78091D1039091D20322
:10042000EDCF08950895FC0181E090E001C0880FB0
:100430006A95EAF79281982B928390958381982B05
:1004400093830895833081F028F4813099F08230CD
:10045000A9F008958730A9F08830C9F08430B1F44C
:10046000809180008F7D03C0809180008F77809382
:100470008000089584B58F7784BD089584B58F7DFD
:10048000FBCF8091B0008F778093B000089580916A
:10049000B0008F7DF9CFCF93DF93282F30E0F901A3
:1004A000E45BFD4F8491F901E05AFD4FD491F901CD
:1004B000E258FD4FC491CC23A1F081110E94220289
:1004C000EC2FF0E0EE0FFF1FEC58FD4FA591B4911B
:1004D000EC91ED2381E090E009F480E0DF91CF9191
:1004E000089580E090E0FACF1F93CF93DF93282FF9
:1004F00030E0F901E45BFD4F8491F901E05AFD4FD2
:10050000D491F901E258FD4FC491CC23A9F0162FE4
:1005100081110E942202EC2FF0E0EE0FFF1FEE5B34
:10052000FD4FA591B4918FB7F894EC91111108C0CB
:10053000D095DE23DC938FBFDF91CF911F9108957B
:10054000DE2BF8CF10924D0310924C0310927703DC
:10055000109299031092750381E0809374031092B6
:100560004F0361E082E10E94740261E083E10E9436
:100570007402E9EBF0E080818E7F808380818D7F43
:10058000808388E48093B80085E48093BC0081E197
:1005900092E090934B0380934A0382E192E0909320
:1005A0004903809348030895CF93DF9390E0FC01C3
:1005B000E05AFD4F249182589D4FFC01849188237D
:1005C000C9F090E0880F991FFC01E85CFD4FA591F0
:1005D000B491FC01EE5BFD4FC591D49161110DC04A
:1005E0009FB7F8948C91209582238C93888128233F
:1005F00028839FBFDF91CF910895623051F49FB758
:10060000F8943C91822F809583238C93E8812E2B44
:10061000EFCF8FB7F894EC912E2B2C938FBFEACFAE
:100620008E3009F480E020916C0190E4299F9001C4
:1006300011248770822B80937C0080917A008064E3
:1006400080937A0080917A0086FDFCCF80917800BB
:100650009091790008953FB7F89480914403909168
:100660004503A0914603B091470326B5A89B05C05A
:100670002F3F19F00196A11DB11D3FBFBA2FA92F21
:10068000982F8827BC01CD01620F711D811D911D1E
:1006900042E0660F771F881F991F4A95D1F708958A
:1006A0008F929F92AF92BF92CF92DF92EF92FF9282
:1006B0004B015C010E942B036B017C010E942B0308
:1006C0006C197D098E099F09683E7340810591056B
:1006D000A8F321E0821A9108A108B10888EEC80E9B
:1006E00083E0D81EE11CF11C81149104A104B10423
:1006F00029F7FF90EF90DF90CF90BF90AF909F9041
:100700008F900895E82FF0E0882359F0813059F058
:10071000EE0FFF1FE05CFE4F88EB93E09183808338
:100720000895E898F5CFE998F3CFCF931092CB03D3
:100730008091CD038230B1F08330B1F08FEF909192
:10074000CE03C0E0923021F0CFEF933009F4C1E046
:10075000823010F40E948203C23040F48C2FCF917B
:100760000C94820380E0EBCF81E0E9CFCF91089534
:100770000895AF92BF92CF92DF92EF92FF920F93C4
:100780001F93CF93DF936C017B018B01040F151F27
:10079000EB015E01AE18BF08C017D10759F069918F
:1007A000D601ED91FC910190F081E02DC6010995F3
:1007B000892B79F7C501DF91CF911F910F91FF90A0
:1007C000EF90DF90CF90BF90AF900895CF93DF93DD
:1007D000EC019981992319F08881861312C06883EE
:1007E00091110BC0862F91E099830E94D4010E9441
:1007F000D20191E0811190E09983892FDF91CF910F
:10080000089590E0FACF85ED8093BC008091BC0004
:1008100084FDFCCF1092750308952091AE02260F3F
:100820003327331F21323105ECF420917503FC018D
:1008300090E080E0243069F082E00895A091AE025B
:100840002191AC0142575D4FA40FB52FB11D2C93E0
:100850000196861798F38091AE02680F6093AE02FE
:1008600080E0089581E008950895E0914D0380911E
:100870004C03E81730F4F0E0E259FD4F808190E03E
:1008800008958FEF9FEF089590914D0380914C0351
:100890002FEF3FEF981748F4E92FF0E0E259FD4FB2
:1008A000208130E09F5F90934D03C90108958091AE
:1008B0004C0390914D03891B990B0895CF92DF92C1
:1008C000EF92FF920F931F93CF93DF937C01CB01A5
:1008D0008A0120917603222389F0EB016B01C40E7B
:1008E000D51ECC15DD0569F06991D701ED91FC911C
:1008F0000190F081E02DC7010995F3CF642F0E948C
:100900000D04C801DF91CF911F910F91FF90EF90DF
:10091000DF90CF900895CF93DF931F92CDB7DEB7CE
:100920006983209176032223F9F0209199032032E4
:1009300058F021E030E0FC013383228390E080E036
:100940000F90DF91CF91089580917703E82FF0E029
:10095000E858FC4F998190838F5F80937703809351
:10096000990381E090E0ECCF61E0CE0101960E9416
:100970000D04F7CFCF93C82F84E40E94D4016C2FCD
:100980008AE993E00E948B040E94D20190E0CF910B
:100990000895682F8AE993E00C948B04CF93C82FB5
:1009A00084E40E94D4018C2F81956AE00E943C1C53
:1009B0008295807FC92FC82B906D892F90E00E946F
:1009C000C9048C2F90E024E0959587952A95E1F74E
:1009D000806E0E94C904CF910C94D201CF93C82F8E
:1009E0008091B6030E94D4018C2FC03108F08FE0B3
:1009F000806E90E00E94C904CF910C94D2010F93B5
:100A00001F93CF93DF93FC012181222371F0162FD6
:100A1000EC0180810E94D401612F8AE993E00E9459
:100A20008B048C01019721F0198210E000E004C0D2
:100A30000E9475018111F8CFC801DF91CF911F91FC
:100A40000F910895FC0181E090E001C0880F6A9544
:100A5000EAF720E04111282F92819823692F622321
:100A60008381682B9095922B69236383CF010C942B
:100A7000FF042091DB023091DC02A90155954795D6
:100A80008091D7029091D802840F951FE091D902EE
:100A9000F091DA0220FF08C0DC012D913C91E20FB9
:100AA000F31F0190F081E02D09942091D50230913F
:100AB000D602A901559547958091D1029091D20215
:100AC000840F951FE091D302F091D40220FF08C05B
:100AD000DC012D913C91E20FF31F0190F081E02D9C
:100AE0000994FC01A48524E0A29FC0011124A085E3
:100AF000B185A80FB91FA60FB11D8C91982F9770C3
:100B0000948788718830B9F481E0858B168A2789AB
:100B1000308D85859685820F931F968785872585DD
:100B20003685868197818217930724F48681978181
:100B30009687858708958031E9F7158A81E0868B4D
:100B40002789308D85859685821B930B96878587AF
:100B50002585368584819581281739075CF784813E
:100B60009581E6CFFC01A785B0899C918389982364
:100B700081E009F480E09285981729F082876285E8
:100B8000CF010C9471050895FC01A189B2899C9153
:100B90008489982381E009F480E09385981731F0E7
:100BA000838763856260CF010C9471050895089571
:100BB00090E080E00895CF92DF92EF92FF920F9342
:100BC0001F93CF93DF93A0912A03B0912B032FE0C3
:100BD00030E00E94621C24E6C22ED12CE12CF12CC4
:100BE000A70196010E94441B822F0E94EE0480916F
:100BF00034038823E9F180E490E09093AF0380937D
:100C0000AE039093AD038093AC038EE590E0909398
:100C1000A9038093A8038CE790E09093A7038093A7
:100C2000A6038091B6030E94D40160E08AE993E0B4
:100C30000E948B04C6EAD3E006EB13E0688122969B
:100C40008AE993E00E948B04FE01329761818AE970
:100C500093E00E948B040C171D0781F7DF91CF9161
:100C60001F910F91FF90EF90DF90CF900C94D201E5
:100C7000A0912003B09121032FE430E00E94621C78
:100C8000A70196010E94441BDA01C9018F54910902
:100C9000A109B109919581959109EAE0F0E0BF01C0
:100CA0000E94481C9C01CB01BF010E94481CFC0112
:100CB000FF27E755FE4F808190E09093AF0380932C
:100CC000AE033327F901E755FE4F808190E099CFBD
:100CD000CF93DF93C0912C03D0912D03C830D10561
:100CE00014F0C7E0D0E0D7FF02C0D0E0C0E06C2F26
:100CF0006F5F88EB93E00E94FF0480912E03909138
:100D00002F03181619060CF4C068809130039091D7
:100D100031038130910541F4C0616C2F8CEB93E07D
:100D2000DF91CF910C94FF048230910511F4C062E1
:100D3000F4CF8330910511F4C064EFCF049769F7C5
:100D4000C063EBCF0F931F93CF93DF93DB01823010
:100D50009105B1F154F4009709F1019709F45BC0D2
:100D6000DF91CF911F910F9108958330910509F480
:100D70003FC00497A9F72CE130E00E94621C24E6F2
:100D800030E040E050E00E94441BDA01C9010E97B8
:100D9000A109B1090E94DE01806B24C02FE430E07C
:100DA0000E94621C24E630E040E050E00E94441BB8
:100DB00081EB820FDF91CF911F910F910C94CE04A4
:100DC0002CE130E00E94621C24E630E040E050E07C
:100DD0000E94441BDA01C9010E97A109B1090E94C2
:100DE000DE018069DF91CF911F910F910C94BA04BD
:100DF0002CE130E00E94621C24E630E040E050E04C
:100E00000E94441BDA01C9010E97A109B1090E9491
:100E1000DE01806AE7CF0091200310912103D29771
:100E2000A09FC001A19F900DB09F900D112464E67A
:100E300070E00E94481CEB01CB0177FF02C090E0FC
:100E400080E0D801A81BB90B2FE030E00E94621CA3
:100E500024E630E040E050E00E94441B2F5031096E
:100E6000410951092195822F80610E94BA041C1604
:100E70001D0614F4D0E0C0E0DE01A00FB11F2FE08A
:100E800030E00E94621C24E630E040E050E00E9426
:100E9000441B2F503109410951092195822F80624D
:100EA000A1CFCF92DF92EF92FF921F93CF93DF9368
:100EB000182FE0902003F09021032091220330911D
:100EC0002303225331092E9DC0012F9D900D3E9D7D
:100ED000900D112464E670E00E94481CEB012FE4A1
:100EE00030E0D7010E94621C24E630E040E050E090
:100EF0000E94441B81EB820F0E94CE04CE01D7FFDB
:100F000002C090E080E0D701A81BB90B2FE030E0D1
:100F10000E94621C24E630E040E050E00E94441B46
:100F20002F503109410951092195822F80610E947A
:100F3000BA041C161D0614F4D0E0C0E0DE01AE0DAC
:100F4000BF1D2FE030E00E94621C24E6C22ED12C8F
:100F5000E12CF12CA70196010E94441B2F5031096E
:100F6000410951092195822F80620E94BA048FE3C2
:100F70000E94BA048FE40E94BA048FE50E94BA046A
:100F80008FE60E94BA04A0912403B09125032CE1BE
:100F900030E00E94621CA70196010E94441BDA0106
:100FA000C9010E97A109B1090E94DE0180690E9462
:100FB000BA04A0912603B09127032CE130E00E94EF
:100FC000621CA70196010E94441BDA01C9010E9719
:100FD000A109B1090E94DE01806A0E94BA04A091B1
:100FE0002803B09129032CE130E00E94621CA70184
:100FF00096010E94441BDA01C9010E97A109B109AB
:101000000E94DE01806B0E94BA0480914E03982FEB
:10101000946090934E0384670E94BA0480914E03BB
:101020008D7080934E0380670E94BA0490913403C0
:1010300080914E039923C1F0982F986090934E03AE
:1010400088670E94BA0411111DC060E080E00E9410
:10105000740260E081E0DF91CF911F91FF90EF90EB
:10106000DF90CF900C947402877080934E0380675A
:101070000E94BA04111106C061E080E00E9474026F
:1010800061E0E8CFDF91CF911F91FF90EF90DF906B
:10109000CF900895882321F0813089F080E0089571
:1010A00085E595E09093410180934001809169002E
:1010B0008C7F816080936900E89A81E0089589E3DC
:1010C00095E0909343018093420180916900837F72
:1010D000846080936900E99AF0CFCF93DF93EC01AD
:1010E00060E08E810E94740261E08E810E94740231
:1010F00060E08E810E9474028BE891E00197F1F725
:10110000DF91CF910895CF92DF92EF92FF920F93EC
:101110001F93CF93DF936C017C0187E0E80EF11CF5
:10112000D0E0C0E0062F10E0B8010C2E02C075958B
:1011300067950A94E2F76170F70181917F010E943F
:1011400074022196C430D10579F7C601DF91CF91A1
:101150001F910F91FF90EF90DF90CF900C946D084E
:10116000CF92DF92EF92FF920F931F93CF93DF9373
:10117000EC01F62E642F8C810E9474028D818F3FCA
:1011800019F060E00E9474020F2D10E08F8584FF3B
:1011900025C06E0187E0C80ED11CF12CE12CB801EE
:1011A0000E2C02C0759567950A94E2F76170F601FE
:1011B00081916F010E947402FFEFEF1AFF0A88E02D
:1011C000E816F10461F7CE01DF91CF911F910F91E5
:1011D000FF90EF90DF90CF900C946D08B80184E001
:1011E000759567958A95E1F7CE010E9483086F2D6A
:1011F000CE01DF91CF911F910F91FF90EF90DF9083
:10120000CF900C94830840E0682F84EE93E00C9418
:10121000B00881E00E9403098BE39FE10197F1F799
:101220000895CF93DF93613029F09091F303986094
:101230009093F3036093F7031092F80390E4909374
:10124000F9038093FA03805C8093FB0361E0809153
:10125000E8030E94D4028091E9038F3F19F061E016
:101260000E94D40261E08091EA030E94D402C4EE9D
:10127000D3E09E01245E33408091F30384FD0BC0D4
:1012800084E090E021962817390744F461E08E81CC
:101290000E94D402EECF88E090E0F4CF8BE39DE093
:1012A0000197F1F760E08091E8030E94740260E02A
:1012B0008091EA030E9474028091E9038F3F19F044
:1012C00060E00E9474028091F30384FD34C063E007
:1012D00084EE93E00E948308CBE4D6E4CE0101972C
:1012E000F1F763E084EE93E00E9483082197F1F721
:1012F00063E084EE93E00E94830883E592E0019727
:10130000F1F762E084EE93E00E9483088091F3039A
:1013100080620E94030984E08093F4038CE00E94C1
:1013200003090E94090982E08093F50386E0DF91BA
:10133000CF910C94030980620E9403098BE496E428
:101340000197F1F78091F30380620E94030983E51E
:1013500092E00197F1F78091F30380620E94030904
:10136000D5CF9091F703691710F06FEF690FE62F53
:10137000F0E0EC51FC4F9489890F80680C940309CC
:1013800041E00E94B00881E090E008950F931F9320
:10139000CF93DF938B01877028E0829FC0011124D7
:1013A00080640E940309E801085F1F4F699184EE81
:1013B00093E00E94C009C017D107C1F7DF91CF9118
:1013C0001F910F91089581E090E090930303809323
:1013D00002030E94090968E371E081E00E94C609E6
:1013E00060E371E082E00E94C60968E271E083E098
:1013F0000E94C60960E271E084E00E94C60968E1CB
:1014000071E085E00E94C60960E171E086E00E941B
:10141000C60968E071E087E00E94C60960E071E0FB
:1014200088E00E94C6090C940909CF92DF92EF92DE
:10143000FF920F931F93CF93DF93EC0161E080E065
:101440000E94B109BE01DD0F880B990B0E94111A91
:101450002DEC3CEC4CE45EE30E94701A6B017C01C5
:1014600020E030E040E85FE30E94371CD0E0C0E0BD
:1014700087FD26C08E010F5F1F4FB801012E000CA3
:10148000880B990B0E94111AA70196010E940A1A53
:1014900087FF07C063E084EE93E00E94C009E80183
:1014A000E9CFBE010D2E000C880B990B0E94111A7A
:1014B0009B01AC01C701B6010E94941B6B017C012A
:1014C00020E030E040EA50E4C701B6010E94701A03
:1014D0000E94011C6B018B01CB01019785309105A6
:1014E000D8F4C431D105C4F4029728F461E084EE45
:1014F00093E00E94C00983E0C81AD10862E082E04C
:10150000C816D10420F00530110529F463E084EEFB
:1015100093E00E94C009219684E190E06C01CC1A0E
:10152000DD0AF12CE12CEC14FD046CF4C431D1057E
:1015300034F466E084EE93E00E94C00921968FEFB8
:10154000E81AF80AF0CFDF91CF911F910F91FF9029
:10155000EF90DF90CF9008950F931F93CF93DF9379
:101560008C01D0E0C0E0F801EC0FFD1F6491662310
:1015700039F041E084EE93E00E94B0082196F3CF69
:10158000CE01DF91CF911F910F91089560E083E12B
:101590000E94B10980911B03882321F085E790E028
:1015A0000C94AC0A87E790E0FBCF8F929F92AF92AA
:1015B000BF920F931F93CF93DF93CDB7DEB7A19761
:1015C0000FB6F894DEBF0FBECDBF19A2423008F4AB
:1015D0004AE08E010F5D1F4F842E912CB12CA12C5F
:1015E000A50194010E94631BE62FB901CA01EA30EC
:1015F00044F5E05DD801EE938D01232B242B252BA0
:1016000079F790E080E0109769F0FD0101900020EB
:10161000E9F73197AF014A1B5B0BBD0184EE93E004
:101620000E94B903A1960FB6F894DEBF0FBECDBFDE
:10163000DF91CF911F910F91BF90AF909F908F90AE
:101640000895E95CD7CFCF92DF92EF92FF926C01C1
:10165000990FEE08FF08F7FE16C041E06DE284EE38
:1016600093E00E94B00866277727CB016C197D09AB
:101670008E099F094AE00E94D50A0196FF90EF90DB
:10168000DF90CF9008954AE0C701B601FF90EF9038
:10169000DF90CF900C94D50AFC0101900020E9F76F
:1016A0003197AF01481B590BBC0184EE93E00C94B9
:1016B000B9030F931F93CF93DF938C01EB0160E08D
:1016C00080E00E94B109C8010E944C0B83E790E0C2
:1016D0000E94AC0ACE010E94230BC0913203D0912C
:1016E0003303209721F0CE010297039720F48FE671
:1016F00090E00E94AC0ACB7F219721F48CE690E029
:101700000E94AC0A88E690E0DF91CF911F910F9183
:101710000C94AC0A1F920F920FB60F9211242F93C4
:101720003F938F939F93AF93BF938091400390918A
:101730004103A0914203B091430330913F0323E062
:10174000230F2D3758F50196A11DB11D20933F039E
:101750008093400390934103A0934203B0934303CB
:101760008091440390914503A0914603B0914703B3
:101770000196A11DB11D8093440390934503A0934E
:101780004603B0934703BF91AF919F918F913F91D3
:101790002F910F900FBE0F901F90189526E8230FE2
:1017A0000296A11DB11DD2CF1F920F920FB60F92BC
:1017B00011242F933F934F935F936F937F938F9356
:1017C0009F93AF93BF93EF93FF93E0914201F0910A
:1017D00043010995FF91EF91BF91AF919F918F9137
:1017E0007F916F915F914F913F912F910F900FBE1D
:1017F0000F901F9018951F920F920FB60F92112401
:101800002F933F934F935F936F937F938F939F9308
:10181000AF93BF93EF93FF93E0914001F0914101AB
:101820000995FF91EF91BF91AF919F918F917F911A
:101830006F915F914F913F912F910F900FBE0F903D
:101840001F9018951F920F920FB60F9211242F938D
:101850003F934F935F936F937F938F939F93AF9338
:10186000BF93EF93FF938091B900887F803609F48E
:101870004AC0F0F5883209F4A7C018F5803109F4A0
:101880009BC0B8F4882309F4F9C0883009F494C0E7
:10189000FF91EF91BF91AF919F918F917F916F9148
:1018A0005F914F913F912F910F900FBE0F901F901E
:1018B0001895883109F488C0803251F780937303FA
:1018C00014C0803409F49DC040F48033B9F38833E8
:1018D000F9F68093730385ECB0C0803509F485C0B8
:1018E000883509F496C0883499F60E940304D0CF55
:1018F000883909F48CC038F5883729F050F48836D7
:1019000011F0803729F683E0809375031092D0029E
:1019100057C0883809F47BC0803919F0803809F045
:10192000B7CF8091D002803208F071C0E091D00230
:1019300081E08E0F8093D0028091BB00F0E0E055F3
:10194000FD4F80833DC0803B39F0E0F4803A09F4DC
:1019500079C0883A09F09CCF84E080937503109297
:10196000AF021092AE02E0914A03F0914B03099549
:101970008091AE0281110FC081E08093AE0210927F
:101980008E0209C0803C09F4A6CF883C09F4A3CF9D
:10199000883B09F07DCFE091AF0281E08E0F80930C
:1019A000AF02F0E0E257FD4F80818093BB00909141
:1019B000AF028091AE0229C0809150038093BB009A
:1019C00085EC8093BC0064CF909172038091710389
:1019D000981758F5E091720381E08E0F809372039F
:1019E000F0E0EF5AFC4F8081E9CFE091720381E093
:1019F0008E0F809372038091BB00F0E0EF5AFC4F92
:101A0000808390917203809171039817C8F285E8E2
:101A1000D8CFE091720381E08E0F809372038091A2
:101A2000BB00F0E0EF5AFC4F80838091740381117A
:101A30005CCF81E080934F0384EA8093BC001092D6
:101A4000750326CF85EC8093BC00109275038091BE
:101A5000D002803230F4E091D002F0E0E055FD4F4A
:101A600010826091D00270E0E0914803F091490348
:101A700080EB92E009951092D0020ACF1092730386
:101A800034CF10929D0310929C0388EE93E0A0E067
:101A9000B0E080939E0390939F03A093A003B09324
:101AA000A1038BED91E090939B0380939A03109296
:101AB000E7031092E6038DE292E09093E5038093B2
:101AC000E40388E08093E8038FEF8093E90389E0E3
:101AD0008093EA038DE08093EB038CE08093EC032A
:101AE0008BE08093ED038AE08093EE031092EF0386
:101AF0001092F0031092F1031092F2031092F3038C
:101B000061E080E10E9411091092CB031092CC0396
:101B10001092D0031092CF031092D2031092D103EF
:101B20001092D4031092D3031092E0031092E103B9
:101B300081E090E09093E3038093E20382E080935E
:101B4000CD0383E08093CE031092D0031092CF0395
:101B500084E690E09093D2038093D10385E090E0F7
:101B60009093E3038093E203E0E8F2E0E491F0E095
:101B7000EE0FFF1FEC58FD4F859194919093DB037E
:101B80008093DA03E1E8F2E0E491F0E0EE0FFF1F6A
:101B9000EC58FD4F859194919093DD038093DC0385
:101BA000E2E6F2E0E491E093DE03E3E6F2E0E491C2
:101BB000E093DF038091D1039091D20397FF3FC060
:101BC0008091D1039091D2039093D9038093D8034D
:101BD00089EE91E09093D4038093D30381E08093C6
:101BE000CC0394E09093C20324EF31E03093C4031C
:101BF0002093C3038093C5031092C6031092C703BA
:101C00001092C8031092C9031092CA0387E0809310
:101C1000C0031092C1031092BC031092BD03109236
:101C2000BE038FEF8093BF031092B8031092B903E5
:101C30001092BA038093BB031092B703089580916A
:101C4000CF039091D003181619062CF48091CF037E
:101C50009091D003B9CF1092D9031092D803B8CF86
:101C6000CF93DF93CDB7DEB7A0970FB6F894DEBF62
:101C70000FBECDBF789484B5826084BD84B5816089
:101C800084BD85B5826085BD85B5816085BD809147
:101C90006E00816080936E001092810080918100BF
:101CA00082608093810080918100816080938100B7
:101CB000809180008160809380008091B100846079
:101CC0008093B1008091B00081608093B0008091DA
:101CD0007A00846080937A0080917A008260809399
:101CE0007A0080917A00816080937A0080917A00F6
:101CF000806880937A001092C10061E080E00E94C9
:101D0000D40261E081E00E94D40260E080E00E94A1
:101D1000740260E081E00E9474020E94A20264E00A
:101D200084E10E9411090E9409090E94E30961E00F
:101D30008091C0030E94D4026091C1038091C003CE
:101D40000E94740281E08093C10361E08091C0032E
:101D50000E94740205E0E02E03E0F02E82E393E09F
:101D6000D701E0E2F3E0119211921D921D928E17BD
:101D70009F07C9F7109233031092320310921D038C
:101D800010921C0310E2C12E13E0D12E10E000E0EF
:101D9000C80180579E4F0E942E1B0630110509F086
:101DA000F8C1883008F0FBC1980126503109233072
:101DB000310538F0853628F082E30130110509F04D
:101DC00080E090E0D6018D939D936D01F7018193A2
:101DD00091937F010F5F1F4F09301105C9F66CE227
:101DE00071E080E090E00E94500384E080934E0315
:101DF0008FEF0E94BA0487EC0E94BA0480E10E942F
:101E0000BA0480E20E94BA0480E30E94BA0480E42B
:101E10000E94BA0480E50E94BA0480E60E94BA04D7
:101E200084E40E94D40180ED90E00E94C90480EE19
:101E300090E00E94C9040E94D20180914E03806705
:101E40000E94BA0487E90E94BA0487EA0E94BA0491
:101E500087EB0E94BA0481E00E94510785E392E07B
:101E60000E944C0B60E28CEB93E00E94E603811130
:101E700005C068E38CEB93E00E94E60362E288EB26
:101E800093E00E94E603811105C06AE388EB93E0CA
:101E90000E94E60361E08CEB93E00E94130262E093
:101EA0008CEB93E00E94130264E08CEB93E00E94C1
:101EB000130268E08CEB93E00E94130260E18CEB6C
:101EC00093E00E94130260E28CEB93E00E94130205
:101ED00060E48CEB93E00E94130260E88CEB93E0EB
:101EE0000E94130240E061E08CEB93E00E94220527
:101EF00040E062E08CEB93E00E94220540E064E069
:101F00008CEB93E00E94220541E068E08CEB93E0CB
:101F10000E94220540E060E18CEB93E00E942205E4
:101F200040E060E28CEB93E00E94220540E060E438
:101F30008CEB93E00E94220540E060E88CEB93E09C
:101F40000E94220561E088EB93E00E94130262E0A8
:101F500088EB93E00E94130264E088EB93E00E9418
:101F6000130268E088EB93E00E94130240E061E016
:101F700088EB93E00E94220540E062E088EB93E06A
:101F80000E94220540E064E088EB93E00E94220575
:101F900040E068E088EB93E00E9422050E9468061A
:101FA00080E78093B6030E94A2028091B6030E944C
:101FB000D40181E290E00E94C9040E94D201809184
:101FC000B6030E94D40181E890E00E94C9040E94F7
:101FD000D2018FE00E94EE040E94DB0561E086E002
:101FE0000E94D40261E085E00E94D40281E08093E7
:101FF0006C0160E080E10E94D40260E081E10E9417
:10200000D40262E084E00E94D40262E08EE00E948A
:10201000D40261E08EE00E94740262E08FE00E94D0
:10202000D40261E08FE00E947402F090DD02C09063
:102030002003D0902103F110CAC080914E03982F45
:10204000986090934E0388670E94BA040E94090921
:1020500062E370E080E090E00E94500360E080E086
:102060000E94B1098BE491E00E94AC0A61E080E03B
:102070000E94B10986E391E00E94AC0A62E080E030
:102080000E94B10981E291E00E94AC0A63E080E025
:102090000E94B1098CE091E00E94AC0A64EF71E00B
:1020A00080E090E00E94500361E080E00E94B1096E
:1020B00087EF90E00E94AC0A62E080E00E94B109E4
:1020C00082EE90E00E94AC0A63E080E00E94B109D9
:1020D0008DEC90E00E94AC0A68E873E180E090E04B
:1020E0000E94500380914E03877080934E03806757
:1020F0000E94BA040E94090962E370E080E090E067
:102100000E94500360E080E00E94B10988EB90E0FB
:102110000E94AC0A61E080E00E94B10983EA90E08D
:102120000E94AC0A62E080E00E94B1098EE890E073
:102130000E94AC0A63E080E00E94B10989E790E068
:102140000E94AC0A10E000E0C016D1068CF110939A
:10215000210300932003B80190E080E00E94A206D2
:102160000A30110551F461E080E00E94740261E0E0
:1021700081E00E947402FF24F394C8010E94150AB2
:1021800062E370E080E090E00E9450030F5F1F4F19
:10219000DBCF0730110529F4823008F405CE80E04A
:1021A00003CE0830110509F0FFCD8530C0F7FCCD16
:1021B000F11008C061E080E00E94740261E081E0FB
:1021C0000E9474020E94090981E08093DD0200915F
:1021D0002003109121038091CB0381110E9495036C
:1021E00082E08093CD0383E08093CE031092D003EE
:1021F0001092CF0384E690E09093D2038093D103B2
:1022000085E090E09093E3038093E203E0E8F2E05E
:10221000E491F0E0EE0FFF1FEC58FD4F8591949193
:102220009093DB038093DA03E1E8F2E0E491F0E0DD
:10223000EE0FFF1FEC58FD4F859194919093DD03B5
:102240008093DC03E2E6F2E0E491E093DE03E3E670
:10225000F2E0E491E093DF038091D1039091D20307
:10226000801791070CF046C18091D1039091D20361
:102270009093D9038093D80389EE91E09093D4038F
:102280008093D30381E08093CC038091CB038111B1
:1022900077C02091CF033091D0038091D1039091EA
:1022A000D203281739070CF06BC062E082E00E946D
:1022B000D40262E08091CE030E94D40262E070E01A
:1022C00080E090E00E945003E091DA03F091DB039C
:1022D00080819091DE03892391E009F490E090934E
:1022E000D503E091DC03F091DD0380819091DF0361
:1022F000892391E009F490E09093D6038091D6036E
:102300009091D503880F892B8093D7038091D303B5
:102310009091D4038950924039F48091D70383304F
:1023200019F487E08093D703EBECEE2EE3E0FE2E6A
:10233000F092D202E092D10282EB95E09093D40227
:102340008093D3021092D6021092D50280E00E94B0
:102350004A088823A9F0F092D802E092D70284ECD0
:1023600095E09093DA028093D9021092DC021092E9
:10237000DB0281E00E944A088111CDC00E948203E5
:10238000C8010E94F3018E010B5E1F4F1E8B0D8B47
:10239000332433948FB7F894809040039090410396
:1023A000A0904203B09043038FBF4091C703509168
:1023B000C8036091C9037091CA032FB7F894809144
:1023C000400390914103A0914203B09143032FBF7A
:1023D00084179507A607B70758F18091C2030E949A
:1023E0004B022091C5032817190611F12FB7F89455
:1023F0008091400390914103A0914203B091430327
:102400002FBF2091C3033091C403820F931FA11DDE
:10241000B11D8093C7039093C803A093C903B093E1
:10242000CA038091C50383258093C5033092C603F8
:102430008091C50381112EC08091C603882351F17C
:102440001092C60380913B0390913C03A0913D0301
:10245000B0913E03A5019401281B390B4A0B5B0B7D
:10246000DA01C90181399140A105B10598F0809246
:102470003B0390923C03A0923D03B0923E030E9426
:10248000090980913A03882329F080913903832533
:10249000809339038EE00E9410039C01255031097E
:1024A00020363105E0F1215931092536310508F48E
:1024B00067C0265931092135310508F464C0245616
:1024C00031092536310508F461C028573109213515
:1024D000310508F45EC08A5892408739910508F4A6
:1024E0005BC08FE00E944B02892B09F08FC081E016
:1024F00090E017C08091CF039091D003081719077F
:102500002CF48091CF039091D003B2CE1093D903D5
:102510000093D803B1CE81E08093CB0331CF82E02A
:1025200090E04091350350913603609137037091EC
:10253000380395018401041B150B260B370BB901D9
:10254000A801413951406105710508F45FC084302C
:10255000910509F4ABC21CF582309105F1F10397A6
:1025600009F488C2809134038325809334038092D8
:10257000350390923603A0923703B092380346C0D9
:1025800083E090E0CECF84E090E0CBCF85E090E098
:10259000C8CF86E090E0C5CF87E090E0C2CF209121
:1025A0003203309133038630910509F4A3C20CF451
:1025B0008FC287309105B1F6809235039092360331
:1025C000A0923703B09238032730310509F4B6C220
:1025D000909333038093320319C080923503909215
:1025E0003603A0923703B092380326E030E03093F0
:1025F00033032093320380912C0390912D03019794
:1026000097FD35C290932D0380932C0300913203E4
:102610001091330381E00630110508F080E08093CB
:102620001F037801F6E0EF1AF10881E023E0E216DB
:10263000F10408F080E080931E0380911C039091C8
:102640001D030817190709F4A1C20E940909109374
:102650001D0300931C030630110508F081C2F80128
:10266000EE0FFF1FE05EFC4F808191810E94F3011D
:10267000F8948091D8039091D9037894000F111F9A
:10268000F801E05EFC4F9183808380911B038823D7
:1026900059F18091170390911803A0911903B091FB
:1026A0001A0395018401081B190B2A0B3B0BD90156
:1026B000C80180319742A105B105B0F050E2E52E86
:1026C00053E0F52E00E911E0D7016C91B2E0EB0E7A
:1026D000F11CC8010E94361B0F5F1F4F0939E1E052
:1026E0001E0791F710921B03809117039091180316
:1026F000A0911903B0911A0395018401081B190BCD
:102700002A0B3B0BD901C80188389341A105B105BB
:1027100008F446C28091350390913603A0913703A7
:10272000B0913803A5019401281B390B4A0B5B0BB0
:10273000DA01C90188389341A105B10508F430C216
:1027400030923A038091320390913303892B71F0D8
:10275000109233031092320310921D0310921C0347
:1027600080912003909121030E94F30110911F0397
:10277000112329F18091320390913303FC01EE0F74
:10278000FF1FDF01A05EBC4F6D917C91EB5FFC4FA2
:10279000208131812617370791F08092170390929C
:1027A0001803A0921903B0921A0330921B0371838D
:1027B00060830E94A2060E94DB0510923A030091FA
:1027C0001E03002309F441C060912003709121038E
:1027D000809105039091060386179707A1F08092D8
:1027E000170390921803A0921903B0921A03309223
:1027F0001B03709306036093050390E080E00E9442
:10280000A2060E94DB05E0913203F0913303EE0F44
:10281000FF1FDF01A05EBC4F8D919C91EB5FFC4FD1
:10282000208131812817390781F080921703909217
:102830001803A0921903B0921A0330921B039183DC
:1028400080830E94680610923A032090340380919E
:102850000403821599F08092170390921803A092B6
:102860001903B0921A0330921B032092040380E0F4
:102870000E9451070E94DB0510923A0380913A03AF
:10288000882309F49EC58091020390910303029767
:10289000F1F082E090E090930303809302030E94A2
:1028A000090964E571E081E00E94C6096CE471E009
:1028B00082E00E94C60964E471E083E00E94C609D8
:1028C0006EED72E084E00E94C6090E9409098091C1
:1028D000390381119AC161E085E00E94740260E0D1
:1028E00085E00E94740204EF12E01A8F098F06EE51
:1028F00012E0188F0F8B82E0C82E83E0D82E78016B
:1029000004EF12E093E7A92EB12C60E086E00E946C
:102910007402C5010197F1F782E00E941003D8010B
:102920008D939D938D0183E00E941003F7018193A5
:1029300091937F0161E086E00E947402C016D10687
:1029400021F760E085E00E94740261E086E00E9469
:10295000740263E080E00E94B10986EC91E00E947D
:10296000AC0A63E083E10E94B10984EC91E00E942B
:10297000AC0A0E94C60A12E0812E0BE0202EA98D1F
:10298000BA8D6D917D91BA8FA98F072E000C880B9F
:10299000990BE5E0660F771F881F991FEA95D1F71D
:1029A0002FEF33E040E050E00E94441B79013901F1
:1029B000EF89F88D61917191F88FEF8B072E000CE4
:1029C000880B990BF5E0660F771F881F991FFA9502
:1029D000D1F72FEF33E040E050E00E94441B290183
:1029E000A3E09A2EB8E0CB2ED12CC90108969C8F7B
:1029F0008B8FD7011896B8A3AF8F6C147D040CF0A1
:102A0000F2C40F8D18A10C191D0917FF02C010E0A8
:102A100000E068E0E62EF12C4C145D0444F4EB8CED
:102A2000FC8CEC18FD08F7FE02C0F12CE12C692D9E
:102A3000882D0E94B1095801C8010197039728F415
:102A400061E084EE93E00E94C009F4E0AF1AB1089F
:102A500023E0A216B10408F0EEC162E084EE93E038
:102A60000E94C009012B09F0EFC164E0E9C187E0D1
:102A700090E0C8CD8092350390923603A092370340
:102A8000B092380346E050E0509333034093320352
:102A900080912C0390912D030196883091050CF4C0
:102AA000B1CD10922D0310922C03B0CD8091320342
:102AB000909133039C012250310901972430310554
:102AC00010F085E090E090933303809332034FCD74
:102AD000C9010197049738F42F5F3F4F30933303B8
:102AE0002093320344CDA1E0B0E0B0933303A09330
:102AF00032033DCD8092350390923603A092370386
:102B0000B09238032830310539F0E8E0F0E0F09376
:102B10003303E09332037ACD8091300390913103F7
:102B20000196853091052CF4909331038093300306
:102B30006DCD109231031092300368CD80912E0339
:102B400090912F030196823091052CF490932F03DE
:102B500080932E035BCD10922F0310922E0356CD3F
:102B600033E0E316F10408F090CD809120039091BA
:102B700021030E94F301F8948091D8039091D90326
:102B8000789490932103809320037FCD0630110524
:102B900008F46ECD43E0E416F10408F076CDEBCFF7
:102BA00010923A03E3CD80910203909103030397BF
:102BB00009F416C483E090E090930303809302032A
:102BC0000E94090964E671E081E00E94C6096CE593
:102BD00071E082E00E94C6090E940909E090320378
:102BE000F0903303B9E0EB16F10408F057C1F70198
:102BF000E450FA4E0C945C1C56174B18EE170D1847
:102C00002C186D198217BF17871900912003109196
:102C10002103188F0F8B00912203109123031A8F29
:102C2000098FA0912403B09125032CE130E00E948C
:102C3000621C24E630E040E050E00E94441BDA01D0
:102C4000C9010E97A109B1098B8F9C8FAD8FBE8FE3
:102C5000A0912603B09127032CE130E00E94621C72
:102C600024E630E040E050E00E94441B49015A0154
:102C70009EE0891A9108A108B108A0912803B0919B
:102C800029032CE130E00E94621C24E630E040E0A1
:102C900050E00E94441B29013A01AEE04A1A510853
:102CA0006108710880912C0390912D03EE24E39428
:102CB000F12C97FD09C08830910514F087E090E071
:102CC0007C01BFEFEB1AFB0A009130031091310336
:102CD0000530110514F004E010E017FF02C010E009
:102CE00000E0C0902E03D0902F031C141D041CF490
:102CF000CC24C394D12CD7FE02C0D12CC12C60E0CF
:102D000080E00E94B1098FEB91E00E94AC0A8AEB4F
:102D100091E0211016C02FE430E0AF89B88D0E94F9
:102D2000621C24E630E040E050E00E94441BDA01DF
:102D3000C9018F549109A109B1090E94230B87EBA6
:102D400091E00E94AC0A60E08AE00E94B10982EB47
:102D500091E00E94AC0A898D9A8D0E94230B8FEA24
:102D600091E00E94AC0A61E080E00E94B1098AEA29
:102D700091E00E94AC0A8B8D9C8D0E94230B87EA08
:102D800091E00E94AC0A61E08AE00E94B10983EA06
:102D900091E00E94AC0AC7010E94230B62E080E030
:102DA0000E94B1098EE991E00E94AC0AC4010E9420
:102DB000230B8BE991E00E94AC0A62E08AE00E945A
:102DC000B10986E891E00230110599F044F48DE8EC
:102DD00091E00130110569F084E991E00AC08DE7C6
:102DE00091E00330110529F085E791E004301105E9
:102DF00099F70E94AC0A63E080E00E94B10980E785
:102E000091E00E94AC0AC2010E94230B8DE691E082
:102E10000E94AC0A63E08AE00E94B10987E691E073
:102E2000CA94CD2811F480E691E00E94AC0A36C025
:102E300008E010E0F4CD63E0073011050CF412CE89
:102E400084EE93E00E94C009692D822D0E94B10991
:102E5000C7010197039728F461E084EE93E00E9494
:102E6000C009C701049762E0039740F063E037E0D0
:102E7000E316F1041CF4EF2829F464E084EE93E0F7
:102E80000E94C009B8E0CB0ED11C9A94EFEF9E12BD
:102E9000B4CD2394839442E1241271CD80E090E07C
:102EA000892B09F477CA0E94000072CAA0912003FE
:102EB000B09121032FE430E00E94621C24E630E050
:102EC00040E050E00E94441BCA01B9016F547109EF
:102ED000810991098AE392E00E94590B0E94C60A77
:102EE00080913403882339F061E080E00E94B109C9
:102EF00088EC91E09ACF80912003909121030E9469
:102F0000150ACCCF00912C0310912D030830110528
:102F100014F007E010E017FF02C010E000E0B80175
:102F20006F5F7F4F81E492E00E94590B0E94C60AB6
:102F300061E080E00E94B109F12CE12C5FEFE51A1D
:102F4000F50AC7010E94230B88E0E816F104B1F7E7
:102F500062E080E00E94B109F12CE12C62E00E15E4
:102F60001F0509F061E084EE93E00E94C0099FEF25
:102F7000E91AF90AA8E0EA16F10481F78FCF009167
:102F80002E0310912F0360E080E00E94B10980EFD2
:102F900091E00E94AC0A0E94C60A61E080E00E94B3
:102FA000B10962E0101611060CF061E084EE93E0C6
:102FB0000E94C00987EE91E00E94AC0A62E080E0C6
:102FC0000E94B10961E0101611060CF062E084EE77
:102FD00093E00E94C0098DED91E027CFA0912403DA
:102FE000B09125032CE130E00E94621C24E630E021
:102FF00040E050E00E94441BCA01B9016E507109C3
:103000008109910988E492E00E94590B0E94C60A46
:10301000809124039091250372CFA0912603B09153
:1030200027032CE130E00E94621C24E630E040E0FF
:1030300050E00E94441BCA01B9016E507109810918
:1030400091098DE492E00E94590B0E94C60A80917A
:1030500026039091270353CFA0912803B091290311
:103060002CE130E00E94621C24E630E040E050E0B9
:103070000E94441BCA01B9016E507109810991096E
:1030800084E592E00E94590B0E94C60A80912803B1
:103090009091290334CF60912203709123038BE533
:1030A00092E00E94590B0E94C60A009122031091DF
:1030B0002303188F0F8BB80162537109072E000C80
:1030C000880B990B0E94111A2DEC3CEC4CE45EE34A
:1030D0000E94701A2B013C018E010F5F1F4F4801A7
:1030E00086E0D4018D934D01ED89FE89AE17BF07AF
:1030F000C1F720E030E0A901C301B2010E94371CF2
:1031000087FD80C020E030E040E85FE3C301B2010A
:103110000E94371CB12CA12C87FD2EC0680153E002
:10312000252E5601A01AB10AFFEFCF1ADF0AB70108
:103130000F2C000C880B990B0E94111A9B01AC01FB
:10314000C301B2010E94371C18163CF4D60119962F
:103150002C92BFEFEB1AFB0AE4CFB5010B2C000C4D
:10316000880B990B0E94111A9B01AC01C301B2019B
:103170000E94941B2B013C0120E030E040EA50E427
:10318000C301B2010E94701A0E94011C9B01AB0195
:103190004150510945305105F0F4EAE0AE0EB11C42
:1031A0004230510520F4F801EA0DFB1D3082AB01DD
:1031B000435051094230510530F4A00EB11E82E057
:1031C000D5018C9308C02530310529F4A00EB11E1D
:1031D00083E0F5018083EF89F88DF29721F487E091
:1031E0008A8788E08B8761E080E00E94B109D8017E
:1031F0006D918D0184EE93E00E94C00908151905B8
:10320000B1F74CCE20E030E040E85FEBC301B20103
:103210000E940A1AF12CE12C18168CF16801AA24DC
:10322000AA94BA2C43E0242E7601E01AF10AF1E0C8
:10323000CF1AD108B5010B2C000C880B990B0E94FA
:10324000111A9B01AC01C301B2010E940A1A87FF47
:1032500007C0D6011A962C92B1E0AB1AB108E4CFA0
:10326000B7010F2C000C880B990B0E94111A9B01BF
:10327000AC01C301B2010E94941B2B013C0120E070
:1032800030E040EA50E4C301B2010E94701A0E948B
:10329000011CDB016B3FEFEF7E0708F49CCFF9E0E8
:1032A000EF0EF11C6E3F2FEF720728F025E0F801BA
:1032B000EE0DFF1D2083AB014C5F5F4F4230510587
:1032C00028F4E00EF11E84E0D7017BCF159609F0BB
:1032D00082CFE00EF11E83E0F7CFA0912A03B091D8
:1032E0002B032FE030E00E94621C24E630E040E037
:1032F00050E00E94441BB90183E692E00E94590B02
:103300000E94C60A80912A0390912B03F8CD009168
:1033100030031091310360E080E00E94B1098BE23C
:1033200092E00E94AC0A0E94C60A61E080E00E941E
:10333000B10962E0101611060CF461E084EE93E02E
:103340000E94C00982E292E00E94AC0A62E080E042
:103350000E94B10962E00130110509F061E084EEDC
:1033600093E00E94C00988E192E00E94AC0A62E00A
:103370000230110509F061E084EE93E00E94C0097B
:103380008FE092E00E94AC0A63E080E00E94B10905
:1033900062E00330110509F061E084EE93E00E94E1
:1033A000C00985E092E00E94AC0A62E00430110599
:1033B0000CF461E084EE93E00E94C0098CEF91E090
:1033C00034CD0111F0CB112309F408CC8091020314
:1033D00090910303019709F401CC0E94E309FECB0D
:1033E0001111FBCFFBCB4C145D040CF421CD692DE6
:1033F000882D0E94B10988E0E82EF12C98E0A92ED2
:10340000B12C08E010E021CB8091CB0381110C940A
:10341000950308950E944C1A08F481E00895E894F9
:1034200009C097FB3EF490958095709561957F4F0C
:103430008F4F9F4F9923A9F0F92F96E9BB279395BA
:10344000F695879577956795B795F111F8CFFAF4CA
:10345000BB0F11F460FF1BC06F5F7F4F8F4F9F4FFB
:1034600016C0882311F096E911C0772321F09EE859
:10347000872F762F05C0662371F096E8862F70E0BF
:1034800060E02AF09A95660F771F881FDAF7880F99
:103490009695879597F90895990F0008550FAA0BEF
:1034A000E0E8FEEF16161706E807F907C0F0121657
:1034B0001306E407F50798F0621B730B840B950B5A
:1034C00039F40A2661F0232B242B252B21F40895AF
:1034D0000A2609F4A140A6958FEF811D811D08954C
:1034E0000E94831A0C94F41A0E94E61A38F00E9483
:1034F000ED1A20F0952311F00C94DD1A0C94E31AC8
:1035000011240C94281B0E94051B70F3959FC1F396
:10351000950F50E0551F629FF001729FBB27F00D81
:10352000B11D639FAA27F00DB11DAA1F649F6627D6
:10353000B00DA11D661F829F2227B00DA11D621F25
:10354000739FB00DA11D621F839FA00D611D221FDF
:10355000749F3327A00D611D231F849F600D211DC3
:10356000822F762F6A2F11249F5750409AF0F1F046
:1035700088234AF0EE0FFF1FBB1F661F771F881FAF
:1035800091505040A9F79E3F510580F00C94DD1AF0
:103590000C94281B5F3FE4F3983ED4F3869577950F
:1035A0006795B795F795E7959F5FC1F7FE2B880F55
:1035B000911D9695879597F9089597F99F6780E8EB
:1035C00070E060E008959FEF80EC089500240A9475
:1035D0001616170618060906089500240A941216EE
:1035E0001306140605060895092E0394000C11F421
:1035F000882352F0BB0F40F4BF2B11F460FF04C0CE
:103600006F5F7F4F8F4F9F4F089557FD9058440F26
:10361000551F59F05F3F71F04795880F97FB991F31
:1036200061F09F3F79F087950895121613061406EE
:10363000551FF2CF4695F1DF08C01616170618067B
:10364000991FF1CF86957105610508940895E89456
:10365000BB2766277727CB0197F90895F999FECF05
:1036600092BD81BDF89A992780B50895262FF999C2
:10367000FECF1FBA92BD81BD20BD0FB6F894FA9A55
:10368000F99A0FBE01960895052E97FB1EF400943B
:103690000E945B1B57FD07D00E94631B07FC03D0F1
:1036A0004EF40C945B1B50954095309521953F4FFF
:1036B0004F4F5F4F089590958095709561957F4F1E
:1036C0008F4F9F4F0895A1E21A2EAA1BBB1BFD012D
:1036D0000DC0AA1FBB1FEE1FFF1FA217B307E407F1
:1036E000F50720F0A21BB30BE40BF50B661F771F49
:1036F000881F991F1A9469F7609570958095909529
:103700009B01AC01BD01CF010895A29FB001B39F01
:10371000C001A39F700D811D1124911DB29F700DDA
:10372000811D1124911D08955058BB27AA270E947E
:10373000AC1B0C94F41A0E94E61A38F00E94ED1AA1
:1037400020F039F49F3F19F426F40C94E31A0EF498
:10375000E095E7FB0C94DD1AE92F0E94051B58F356
:10376000BA17620773078407950720F079F4A6F566
:103770000C94271B0EF4E0950B2EBA2FA02D0B01F5
:10378000B90190010C01CA01A0011124FF27591BA6
:1037900099F0593F50F4503E68F11A16F040A22FAC
:1037A000232F342F4427585FF3CF4695379527951D
:1037B000A795F0405395C9F77EF41F16BA0B620B1C
:1037C000730B840BBAF09150A1F0FF0FBB1F661F63
:1037D000771F881FC2F70EC0BA0F621F731F841FA6
:1037E00048F4879577956795B795F7959E3F08F0CC
:1037F000B0CF9395880F08F09927EE0F979587958E
:1038000008950E94081C6894B1110C94281B089517
:103810000E940D1B88F09F5798F0B92F9927B75138
:10382000B0F0E1F0660F771F881F991F1AF0BA9564
:10383000C9F714C0B13091F00E94271BB1E0089580
:103840000C94271B672F782F8827B85F39F0B93F72
:10385000CCF3869577956795B395D9F73EF4909517
:103860008095709561957F4F8F4F9F4F08950E946F
:103870004C1A08F48FEF0895991B79E004C0991F42
:10388000961708F0961B881F7A95C9F780950895BA
:1038900097FB072E16F4009407D077FD09D00E94FD
:1038A000691C07FC05D03EF4909581959F4F0895C3
:1038B000709561957F4F0895EE0FFF1F0590F4916D
:1038C000E02D09940E94851BB7FF0895821B930B7E
:1038D0000895AA1BBB1B51E107C0AA1FBB1FA61757
:1038E000B70710F0A61BB70B881F991F5A95A9F7A9
:1038F00080959095BC01CD01089511E0CAE4D1E016
:1039000004C0FE010E945C1C2196CB34D107C9F78C
:04391000F894FFCF59
:103914000010181C1C181000000103070703010005
:10392400000000040400000001010105050101017B
:1039340005050505050505051515151515151515B3
:10394400141414141414141410101014141010104B
:10395400B803B8031F1F001F1F001F1F0000001F14
:103964001F001F1F0000000000001F1F0000000EAA
:103974000E0E001F000000000000001F01F2FFF304
:10398400FFF4FFF5FFF6FFF7FFF8FFF9FFFAFFFB7F
:10399400FFFCFFFDFFFEFFFFFF00000E000D000C0B
:1039A400000B000A000900080007000600050004D7
:1039B4000003000200010000003F065B4F666D7DBE
:1039C400077F6F777C395E7971000101020203037E
:1039D4000404050506060707080809090A0A0B0B6B
:1039E4000C0C0D0D0E0E0F000000008B045E04D8AD
:1039F40005340457044404350400010002000101A5
:103A04000B02030002020305030405040604050572
:103A1400030613040603030303000100020001016B
:103A24000F02170002070707070000000010050532
:103A340007060708060607050700000000C009B9C5
:103A440003D805D70573656E6400564F4C554D4534
:103A540000534F555243450042415353004D49448E
:103A6400444C4500545245424C450042414C414E61
:0E3A74004345004252494748544E45535300C3
:00000001FF
