:100000000C9453010C94A1080C947A080C947B0175
:100010000C947B010C947B010C947B010C947B0170
:100020000C947B010C947B010C947B010C947B0160
:100030000C947B010C947B010C947B010C947B0150
:100040000C94FD0C0C947B010C947B010C947B01B3
:100050000C947B010C947B010C947B010C947B0130
:100060000C94C8080C947B018915B11658167516A6
:100070009216F0151E16D8172020202020202020B0
:100080002020202020202020202020200020202090
:100090002020204C4F4144494E4720202020202042
:1000A0002000202020202020202020202020202070
:1000B0002020202020200020202020202020202060
:1000C0002020202020202020202020002020202050
:1000D0002020202020202020202020202020202020
:1000E00000202020202020424F4F54494E472020FE
:1000F0002020202020002020202020202020202020
:1001000020202020202020202020002020204D61A1
:10011000646520696E20556B7261696E65202000F0
:1001200020202020202020202020202020202020CF
:1001300020202020002020202056657273696F6ED9
:1001400020322E3339202020200020202020484932
:100150002D46492053544552454F2020202000452C
:1001600051204F4646004551204F4E0064420054F6
:100170005245200052455645525345004D4F4E4F73
:1001800020412B42004D4F4E4F2042004D4F4E4FCD
:1001900020410053544552454F006442004D4944AC
:1001A00020004348200064420042415320002025A3
:1001B0000042414C20006442004D55544500564FCA
:1001C0004C200052004C002D2D2D2D2D2D2D204D7D
:1001D000555445202D2D2D2D2D2D2D002064697376
:1001E00061626C65640020656E61626C65640045E7
:1001F0005120504153535448525500205265766562
:1002000072736500204D6F6E6F2041422000204DBB
:100210006F6E6F20422000204D6F6E6F20412020B6
:10022000002053746572656F20004D4F4E4F20447F
:100230004F574E4D49580000000000240027002A67
:100240000000000000250028002B0000000008002E
:10025000020100000304070000000000000000018C
:10026000020408102040800102040810200102044A
:1002700008102000000000230026002900040404C8
:10028000040404040402020202020203030303033F
:1002900003202020002025002064420020002A00A6
:1002A00020004018AD1811241FBECFEFD8E0DEBFEC
:1002B000CDBF12E0A0E0B1E0E0E7F6E302C00590B8
:1002C0000D92A435B107D9F723E0A4E5B2E001C04F
:1002D0001D92A83CB207E1F711E0C2E5D1E004C0ED
:1002E0002197FE010E94051BC135D107C9F70E9465
:1002F000470D0C942B1B0C940000833081F028F4E4
:10030000813099F08230A1F008958730A9F08830CB
:10031000B9F08430D1F4809180008F7D03C080914A
:1003200080008F7780938000089584B58F7702C016
:1003300084B58F7D84BD08958091B0008F7703C010
:100340008091B0008F7D8093B000089540E0682FC9
:1003500084E493E00C94460ACF9310922B0380918F
:100360002D03823021F0833021F08FEF03C080E035
:1003700001C081E090912E03923021F0933021F062
:10038000CFEF03C0C0E001C0C1E0823010F40E9492
:100390006808C23020F48C2FCF910C946808CF915C
:1003A0000895CF93DF93EC0180912B0381110E947C
:1003B000AC0182E080932D0383E080932E031092A2
:1003C000300310922F0384E690E0909332038093E1
:1003D000310385E090E09093430380934203EFE77D
:1003E000F2E0E491F0E0EE0FFF1FED58FD4F859134
:1003F000949190933B0380933A03E0E8F2E0E49118
:10040000F0E0EE0FFF1FED58FD4F85919491909312
:100410003D0380933C03E1E6F2E0E491E0933E0388
:10042000E2E6F2E0E491E0933F03809131039091A2
:1004300032038C179D072CF4809131039091320385
:100440000BC080912F0390913003C817D9074CF44B
:1004500080912F0390913003909339038093380358
:1004600004C0D0933903C093380387EC91E0909394
:1004700034038093330381E080932C03DF91CF9189
:10048000089581E00E94A6018BE39FE10197F1F7B7
:1004900008950F931F93CF93DF938C01C0E0D0E0BA
:1004A000F801EC0FFD1F6491662339F041E084E40C
:1004B00093E00E94460A2196F3CFCE01DF91CF91BF
:1004C0001F910F910895643008F063E090915703F5
:1004D000691710F06FEF690FE62FF0E0EC5BFC4F4F
:1004E0009489890F80680C94A6010F931F93CF9372
:1004F000DF938B01877028E0829FC0011124806404
:100500000E94A601E801085F1F4F699184E493E00F
:100510000E94990AC017D107C1F7DF91CF911F91AF
:100520000F910895009769F0FC0101900020E9F710
:100530003197AF01481B590BBC0184E493E00C9444
:10054000C50680E090E008958F929F92AF92BF928F
:10055000CF92DF92EF92FF92CF93DF93CDB7DEB7CA
:10056000A1970FB6F894DEBF0FBECDBF6C01990FF7
:10057000EE08FF08F7FE2AC041E06DE284E493E054
:100580000E94460A22273327A9012C193D094E094A
:100590005F0919A2CE0181967C019AE0892E912CE7
:1005A000A12CB12CCA01B901A50194010E940C1A19
:1005B000605DF70162937F01211531054105510509
:1005C00089F7CF010E94920201961DC0A7019601F2
:1005D00019A2CE0181967C018AE0882E912CA12C53
:1005E000B12CCA01B901A50194010E940C1A605DE9
:1005F000F70162937F01211531054105510589F706
:10060000CF010E949202A1960FB6F894DEBF0FBEF2
:10061000CDBFDF91CF91FF90EF90DF90CF90BF9053
:10062000AF909F908F90089520912F0330913003C9
:10063000821793072CF480912F03909130030BC005
:1006400020913103309132032817390724F4809127
:10065000310390913203F8949093390380933803D7
:100660007894089530910303313208F04BC08091A3
:10067000DF028111FCCF9091020322E02093DF0280
:1006800021E02093DE022FEF2093DD021092DC02A6
:100690003093DB02E2EEF2E0ABEBB2E020E03217A7
:1006A00021F041914D932F5FFACF1092BA02209121
:1006B000BA02990F922B9093BA029091B90291309D
:1006C00061F41092B9029091BA029093BB0090919C
:1006D000BC0093FDF8CF95EC01C095EE9093BC0063
:1006E0009091DF029230E1F39091DD029F3F79F02B
:1006F0008091DD02803241F08091DD02803331F063
:1007000084E005C081E003C082E001C083E0109274
:10071000E102109203031092E002089591E0909399
:10072000E00294E4909302031092E102109203031A
:10073000682F80E193E00E947C070E94320390E0E2
:100740000895E9E2F1E020E030E04191519148174D
:10075000590729F4F901E755FE4F808108952F5F6D
:100760003F4F2C33310589F787E00895682F80E1EA
:1007700093E00C947C07CF9391E09093E00294E493
:10078000909302031092E1021092030381956AE0B4
:100790000E94E51AC82FC295C07FC92B892F806D92
:1007A00090E00E94B603C295CF708C2F806E90E0CF
:1007B0000E94B603CF910C943203CF93DF939091B4
:1007C0001D039923D9F0682F80911C0391E0909329
:1007D000E002809302031092E1021092030380E191
:1007E00093E00E947C07EC01019719F010921D0321
:1007F00005C00E9432038111F9CF02C0C0E0D0E0F1
:10080000CE01DF91CF910895662339F091E0082E53
:1008100001C0990F0A94EAF701C090E021E030E0AE
:1008200001C0220F8A95EAF780911E032823322FF8
:10083000392380911F03832B2095922B892380934A
:100840001F030C94DD03ECE1F3E021E030E001C094
:10085000220F8A95EAF78281282B228320958381B3
:10086000282B2383089590911D03992331F0209123
:100870001C03281711F090E018C080931C039111FD
:1008800014C08823C1F391E090931D039093E0027C
:10089000809302031092E102109203030E9432033C
:1008A00091E0811190E090931D03892F0895CF93DB
:1008B000DF93282F30E0F901E55BFD4F8491F901CA
:1008C000E15AFD4FD491F901E358FD4FC491CC2377
:1008D00091F081110E947D01EC2FF0E0EE0FFF1FDF
:1008E000ED58FD4FA591B491EC91ED2381E090E09E
:1008F00021F480E002C080E090E0DF91CF91089584
:100900001F93CF93DF93282F30E0F901E55BFD4F74
:100910008491F901E15AFD4FD491F901E358FD4F5B
:10092000C491CC23C1F0162F81110E947D01EC2FC0
:10093000F0E0EE0FFF1FEF5BFD4FA591B4919FB765
:10094000F894111104C08C91D095D82302C0EC9179
:10095000DE2BDC939FBFDF91CF911F910895CF9342
:10096000DF9390E0FC01E15AFD4F2491FC01E35834
:10097000FD4F8491882361F190E0880F991FFC015D
:10098000E95CFD4FC591D491FC01EF5BFD4FA59152
:10099000B491611109C09FB7F89488812095822392
:1009A0008883EC912E230BC0623061F49FB7F894DA
:1009B0008881322F309583238883EC912E2B2C93C2
:1009C0009FBF06C08FB7F894E8812E2B28838FBF76
:1009D000DF91CF910895CF93DF93623028F090910B
:1009E00053039860909353036093570310925803F6
:1009F00090E49093590380935A0390E0805C9F4F5A
:100A000080935B0361E0809148030E94AF04809172
:100A100049038F3F19F061E00E94AF0461E08091CB
:100A20004A030E94AF04C4E4D3E09E01245433403F
:100A30008091530384FD03C084E090E002C088E00D
:100A400090E02196281739072CF461E08E810E94EE
:100A5000AF04EBCF8BE39DE00197F1F760E080916D
:100A600048030E94800460E080914A030E94800451
:100A7000809149038F3F19F060E00E9480048091CB
:100A8000530384FD20C063E084E493E00E94190ACC
:100A9000CBE4D6E4CE010197F1F763E084E493E080
:100AA0000E94190A2197F1F763E084E493E00E9421
:100AB000190A83E592E00197F1F762E084E493E09C
:100AC0000E94190A15C080620E94A6018BE496E478
:100AD0000197F1F78091530380620E94A60183E59C
:100AE00092E00197F1F78091530380620E94A60182
:100AF0008091530380620E94A60184E08093540396
:100B00008CE00E94A6010E94410282E0809355037E
:100B100086E0DF91CF910C94A6018E3008F08E50C4
:100B20002091280190E4299F900111248770822B45
:100B300080937C0080917A00806480937A00809119
:100B40007A0086FDFCCF809178002091790090E0BA
:100B5000922B08958F929F92AF92BF92CF92DF9285
:100B6000EF92FF926B017C010E94D80C4B015C015B
:100B7000C114D104E104F104F1F00E94D80CDC01AD
:100B8000CB0188199909AA09BB09883E9340A105A0
:100B9000B10570F321E0C21AD108E108F10888EE2E
:100BA000880E83E0981EA11CB11CC114D104E1047D
:100BB000F10419F7DDCFFF90EF90DF90CF90BF9059
:100BC000AF909F908F900895DF92EF92FF920F93D6
:100BD0001F93CF93DF9380912B03882311F010E0B4
:100BE000CAC080912C038823D1F380912D0390916A
:100BF0002E038917A1F3823021F0833009F0A6C0BB
:100C0000A8C0923061F3933009F09BC001E010E07E
:100C1000C0E0D0E00EC0933011F3C1E0D0E0CF3F90
:100C20002FEFD207E1F20FEF1FEFD7FDD8CF17FD5F
:100C3000D6CF40912F035091300320913103309152
:100C40003203421753075CF662E00E94AF0462E091
:100C500080912E030E94AF0462E070E080E090E09B
:100C60000E94AA05E0913A03F0913B0390818091A4
:100C70003E03892391E009F490E090933503E091DD
:100C80003C03F0913D03908180913F03892391E0E3
:100C900009F490E0909336038091360390913503E8
:100CA000880F892B8093370380913303909134030D
:100CB000875E914021F4809137038330F1F186E023
:100CC000D82EDC9EF001DD9EF00D1124DF01AC5F1B
:100CD000BC4F9BE2E92E93E0F92EED92FC92EA5F85
:100CE000FC4F8AE398E091838083138212828C2FD9
:100CF0000E94F609882309F472CFD09EF001D19E9C
:100D0000F00D1124DF01AC5FBC4FED92FC92EA5F65
:100D1000FC4F87E298E09183808313821282802FB8
:100D20000E94F609182F811104C08C2F0E946808B8
:100D300022C081E080932B031EC087E0809337039D
:100D4000BECF0FEF1FEFC0E0D0E071CF923049F47B
:100D500046CF923009F05FCF00E010E0C1E0D0E074
:100D600068CF933029F401E010E0CFEFDFEF5DCFE3
:100D7000CFEFDFEF54CF812FDF91CF911F910F91F4
:100D8000FF90EF90DF9008950895CF92DF92EF9259
:100D9000FF920F931F93CF93DF936C017A018B0126
:100DA000C0E0D0E0CE15DF0581F0D8016D918D0156
:100DB000D601ED91FC910190F081E02DC6010995DD
:100DC000892B11F02196EECF7E01C701DF91CF91E3
:100DD0001F910F91FF90EF90DF90CF90089585EDD8
:100DE0008093BC008091BC0084FDFCCF1092DF0298
:100DF000089540919C03262F30E0240F311D2132AD
:100E00003105DCF42091DF022430C9F4FC0180E0DC
:100E100090E0861758F430919C032191DC01A4588E
:100E2000BC4FA30FB11D2C930196F3CF80919C036F
:100E3000680F60939C0380E0089581E0089582E04C
:100E40000895089508950895E091590280915802F7
:100E5000E81730F4F0E0E45AFC4F808190E0089508
:100E60008FEF9FEF08959091590280915802981743
:100E700050F4E92FF0E0E45AFC4F208130E09F5F0E
:100E80009093590202C02FEF3FEFC901089580915E
:100E9000580290E020915902821B91090895CF9247
:100EA000DF92EF92FF920F931F93CF93DF937C011A
:100EB000CB018A012091E002222389F0EB016B0132
:100EC000C40ED51ECC15DD0569F06991D701ED91F1
:100ED000FC910190F081E02DC7010995F3CF642FBB
:100EE0000E94F906C801DF91CF911F910F91FF90E9
:100EF000EF90DF90CF900895CF93DF931F92CDB7FF
:100F0000DEB769832091E0022223D1F02091030310
:100F1000203240F021E030E0FC013383228380E086
:100F200090E015C08091E102E82FF0E0EE51FD4F16
:100F3000998190838F5F8093E1028093030305C0C2
:100F400061E0CE0101960E94F90681E090E00F90E9
:100F5000DF91CF91089540910E0350910F03E091DE
:100F60000C03F0910D03CA019595879520910A0312
:100F700030910B0340FF0AC0D901A80FB91F4D9152
:100F80005C91E40FF51F0190F081E02D820F931F1B
:100F900009944091080350910903E0910603F091F0
:100FA0000703CA01959587952091040330910503A5
:100FB00040FF0AC0D901A80FB91F4D915C91E40F01
:100FC000F51F0190F081E02D820F931F0994FC0121
:100FD0008485A085B18594E0899FA00DB11D112461
:100FE000A60FB11D8C91982F9770948788718830C7
:100FF000A9F481E0858B168A2789308D85859685B1
:10100000820F931F968785872585368586819781F0
:1010100082179307DCF48681978116C08031B1F482
:10102000158A81E0868B2789308D85859685821B80
:10103000930B96878587258536858481958128172A
:10104000390724F484819581968785870895FC016A
:10105000A189B2899C918489982381E009F480E078
:101060009385981731F0838763856260CF010C9474
:10107000E7070895FC01A785B0899C91838998238F
:1010800081E009F480E09285981729F082876285D3
:10109000CF010C94E7070895089580E090E008954B
:1010A0000E94261BCF93DF93EC0160E08E810E94AB
:1010B000800461E08E810E94800460E08E810E9445
:1010C00080048BE891E00197F1F7DF91CF910895CB
:1010D000882321F0813019F4E99801C0E898E82FBD
:1010E000F0E0EE0FFF1FEB55FE4F84EC96E091838E
:1010F000808308951F920F920FB60F9211242F93A1
:101100003F934F935F936F937F938F939F93AF938F
:10111000BF93EF93FF93E091A701F091A801099588
:10112000FF91EF91BF91AF919F918F917F916F91BF
:101130005F914F913F912F910F900FBE0F901F9095
:1011400018951F920F920FB60F9211242F933F9371
:101150004F935F936F937F938F939F93AF93BF93BF
:10116000EF93FF93E091A501F091A6010995FF91FE
:10117000EF91BF91AF919F918F917F916F915F910F
:101180004F913F912F910F900FBE0F901F90189588
:101190001F920F920FB60F9211242F933F934F93EC
:1011A0005F936F937F938F939F93AF93BF93EF93CF
:1011B000FF938091B900887F803609F49CC068F560
:1011C000883209F45BC090F4803109F454C038F4DB
:1011D000882309F4F6C0883009F44DC0F6C0883180
:1011E00009F44CC0803209F45DC0EFC0803409F4CA
:1011F00068C048F4803309F455C0883309F0E5C06D
:101200008093DD02D8C0803509F44FC0883509F4D9
:101210005DC0883409F0D9C0D6C0883909F4C7C088
:10122000A8F4883709F467C038F4883609F463C035
:10123000803709F460C0C9C0883809F4B8C0803963
:1012400009F45FC0803809F0C0C05BC0803B09F47E
:1012500086C038F4803A09F466C0883A09F47FC041
:10126000B4C0803C09F4A7C0883C09F4A4C0883B02
:1012700009F48AC0AAC08091BA0210C09091DC0221
:101280008091DB02981770F5E091DC0281E08E0F0F
:101290008093DC02F0E0E554FD4F80818093BB0039
:1012A00085EC86C08093DD028EC0E091DC0281E097
:1012B0008E0F8093DC028091BB00F0E0E554FD4F7F
:1012C00080839091DC028091DB026EC0E091DC02B1
:1012D00081E08E0F8093DC028091BB00F0E0E5544A
:1012E000FD4F80838091DE0281116DC081E080938B
:1012F000B90284EA61C083E08093DF021092BE03EA
:10130000CFCF8091BE03803208F051C0E091BE0380
:1013100081E08E0F8093BE038091BB00F0E0E25627
:10132000FC4F8083BDCF85EC8093BC001092DF0220
:101330008091BE03803230F4E091BE03F0E0E256CB
:10134000FC4F10826091BE0370E0E0915402F09176
:1013500055028EE993E009951092BE0336C084E0F1
:101360008093DF0210929D0310929C03E09156023D
:10137000F0915702099580919C03811105C081E08D
:1013800080939C0310927C03E0919D0381E08E0F7B
:1013900080939D03F0E0E458FC4F80818093BB0074
:1013A00090919D0380919C03981708F479CF85E86C
:1013B0008093BC000AC085EC8093BC001092DF02D1
:1013C00004C01092DD020E94EF06FF91EF91BF91E1
:1013D000AF919F918F917F916F915F914F913F91CD
:1013E0002F910F900FBE0F901F901895882381F0BA
:1013F0008130E9F48BEA97E09093A8018093A701EC
:1014000080916900837F846080936900E99A0DC0B0
:1014100089EC97E09093A6018093A50180916900E3
:101420008C7F816080936900E89A81E0089580E074
:101430000895CF92DF92EF92FF920F931F93CF9375
:10144000DF936C017C0187E0E80EF11CC0E0D0E086
:10145000062F10E0B8010C2E02C0759567950A940E
:10146000E2F76170F70181917F010E94800421966B
:10147000C430D10579F7C601DF91CF911F910F914B
:10148000FF90EF90DF90CF900C945208CF92DF92B4
:10149000EF92FF920F931F93CF93DF93EC01F62E01
:1014A000642F8C810E9480048D818F3F19F060E051
:1014B0000E9480048F850F2D10E084FF25C06E01EF
:1014C00087E0C80ED11CE12CF12CB8010E2C02C013
:1014D000759567950A94E2F76170F60181916F0145
:1014E0000E948004FFEFEF1AFF0A88E0E816F1047B
:1014F00061F7CE01DF91CF911F910F91FF90EF9097
:10150000DF90CF900C945208B80184E075956795F0
:101510008A95E1F7CE010E94190A6F2DCE01DF9165
:10152000CF911F910F91FF90EF90DF90CF900C948F
:10153000190A41E00E94460A81E090E00895CF92A6
:10154000DF92EF92FF920F931F93CF93DF93EC0103
:1015500061E080E00E946302BE01DD0F880B990B01
:101560000E94BA182DEC3CEC4CE45EE30E94191981
:101570006B017C0120E030E040E85FE30E94E01A6C
:10158000C0E0D0E087FD28C08E010F5F1F4FB8017B
:10159000012E000C880B990B0E94BA189B01AC011C
:1015A000C701B6010E94E01A18163CF463E084E417
:1015B00093E00E94990AE801E7CFBE010D2E000CCE
:1015C000880B990B0E94BA189B01AC01C701B601A8
:1015D0000E943D1A6B017C0120E030E040EA50E4BB
:1015E000C701B6010E9419190E94AA1A6B017C0159
:1015F0008B01CB01019785309105E0F4C431D10511
:10160000CCF4029728F461E084E493E00E94990A04
:1016100083E0C81AD10882E0C816D10410F462E051
:1016200004C00530110529F463E084E493E00E94CE
:10163000990A219684E190E06C01CC1ADD0AE12C34
:10164000F12CEC14FD046CF4C431D10534F466E0E3
:1016500084E493E00E94990A21968FEFE81AF80A31
:10166000F0CFDF91CF911F910F91FF90EF90DF901E
:10167000CF90089560E083E10E94630280915D0253
:10168000882319F08EE992E002C080EA92E00C947F
:1016900049020F931F93CF93DF938C01EB0160E01E
:1016A00080E00E946302C8010E9492028CE992E0ED
:1016B0000E944902CE010E94A40280916E02909184
:1016C0006F02009719F00297039720F488E992E0DF
:1016D0000E94490280916E0290916F02019721F45D
:1016E00085E992E00E94490281E992E0DF91CF9181
:1016F0001F910F910C9449028091680290916902A8
:101700008830910514F087E090E097FF02C080E0F8
:1017100090E020916A0230916B02121613060CF4CD
:10172000806820916C0230916D022130310511F4F6
:1017300080610EC02230310511F4806209C023306F
:10174000310511F4806404C02430310509F480634C
:101750000C94DD03BF92CF92DF92EF92FF920F9332
:101760001F93CF93DF93B82EE0915E02F0915F025A
:101770002091600230916102225331092E9FC001F5
:101780002F9F900D3E9F900D112464E670E00E9403
:10179000F11ACB0177FF02C080E090E08F01081BB7
:1017A000190B1616170614F460E070E0EB01CE0F6B
:1017B000DF1F2FE430E0DF010E940B1B24E6C22E66
:1017C000D12CE12CF12CA70196010E94ED1981EB9F
:1017D000820F0E94BB032FE030E0D8010E940B1B58
:1017E000A70196010E94ED19DA01C9010F97A1091D
:1017F000B109819580610E948E032FE030E0DE0107
:101800000E940B1BA70196010E94ED19DA01C90184
:101810000F97A109B109819580620E948E038FE321
:101820000E948E038FE40E948E038FE50E948E0338
:101830008FE60E948E03A0916202B09163022CE1B8
:1018400030E00E940B1BA70196010E94ED19DA01FE
:10185000C9010E97A109B1090E94A10380690E94E4
:101860008E03A0916402B09165022CE130E00E94E9
:101870000B1BA70196010E94ED19DA01C9010E9711
:10188000A109B1090E94A103806A0E948E03A09160
:101890006602B09167022CE130E00E940B1BA701A9
:1018A00096010E94ED19DA01C9010E97A109B1094B
:1018B0000E94A103806B0E948E038091B802982F32
:1018C00094609093B80284670E948E038091B8025E
:1018D0008D708093B80280670E948E0390915C02A5
:1018E0008091B802992379F0982F98609093B8026C
:1018F00088670E948E03B1101FC060E080E00E94E4
:10190000800460E00DC087708093B80280670E94F9
:101910008E03B11011C061E080E00E94800461E09C
:1019200081E0DF91CF911F910F91FF90EF90DF90B9
:10193000CF90BF900C948004DF91CF911F910F91B5
:10194000FF90EF90DF90CF90BF90089581E090E0FE
:1019500090935B0280935A020E9441026DE971E00C
:1019600081E00E94750265E971E082E00E947502E3
:101970006DE871E083E00E94750265E871E084E043
:101980000E9475026DE771E085E00E94750265E7CF
:1019900071E086E00E9475026DE671E087E00E94CA
:1019A000750265E671E088E00E9475020C944102C0
:1019B0003FB7F8948091C4039091C503A091C603EA
:1019C000B091C70326B5A89B05C02F3F19F001961B
:1019D000A11DB11D3FBFBA2FA92F982F8827820FB5
:1019E000911DA11DB11DBC01CD0142E0660F771F05
:1019F000881F991F4A95D1F708951F920F920FB62D
:101A00000F9211242F933F938F939F93AF93BF9384
:101A10008091BF039091C003A091C103B091C20314
:101A20003091C30323E0230F2D3720F40196A11D2D
:101A3000B11D05C026E8230F0296A11DB11D2093FC
:101A4000C3038093BF039093C003A093C103B093DB
:101A5000C2038091C4039091C503A091C603B091C5
:101A6000C7030196A11DB11D8093C4039093C503C4
:101A7000A093C603B093C703BF91AF919F918F917D
:101A80003F912F910F900FBE0F901F901895CF93FD
:101A9000DF93CDB7DEB7A7970FB6F894DEBF0FBEC2
:101AA000CDBF789484B5826084BD84B5816084BDE7
:101AB00085B5826085BD85B5816085BD80916E00EC
:101AC000816080936E00109281008091810082601D
:101AD000809381008091810081608093810080915A
:101AE00080008160809380008091B1008460809349
:101AF000B1008091B00081608093B00080917A0045
:101B0000846080937A0080917A00826080937A006A
:101B100080917A00816080937A0080917A00806859
:101B200080937A001092C10061E080E00E94AF04CF
:101B300061E081E00E94AF0460E080E00E948004E8
:101B400060E081E00E9480041092590210925802D5
:101B50001092E102109203031092DF0211E0109341
:101B6000DE021092B90261E082E10E94800461E02D
:101B700083E10E9480048091B9008E7F8093B90038
:101B80008091B9008D7F8093B90088E48093B8007C
:101B900085E48093BC0081E297E0909357028093A4
:101BA000560282E297E0909355028093540264E0DB
:101BB00084E10E94EB040E9441020E94A60C109353
:101BC000210361E0809120030E9480044BE9E42E10
:101BD00042E0F42E8EE692E0D701EEE5F2E01192BB
:101BE00011921D921D928E179F07C9F710926F02D6
:101BF00010926E021092AC021092AB023EE5C32E20
:101C000032E0D32E00E010E0C80180579E4F0E94C2
:101C1000D7190530110519F4883060F40CC006306E
:101C2000110519F4823030F406C00730110519F49B
:101C3000853008F080E098012550310923303105C6
:101C400040F0853630F00130110511F080E001C020
:101C500082E390E0D6018D939D936D01F70181930E
:101C600091937F010F5F1F4F0830110569F66CE2F9
:101C700071E080E090E00E94AA0584E08093B802C1
:101C80008FEF0E948E0387EC0E948E0380E10E94FA
:101C90008E0380E20E948E0380E30E948E0380E424
:101CA0000E948E0380E50E948E0380E60E948E03D0
:101CB00081E08093E00284E4809302031092E102C9
:101CC0001092030380ED90E00E94B60380EE90E056
:101CD0000E94B6030E9432038091B80280670E947E
:101CE0008E0387E90E948E0387EA0E948E0387EBAA
:101CF0000E948E0381E00E94AA0B85E292E00E947E
:101D0000920280E20E943304811103C080E70E94A6
:101D1000330481E00E94230482E00E94230484E0D3
:101D20000E94230488E00E94230480E10E9423048F
:101D300080E20E94230480E40E94230480E80E9441
:101D4000230460E081E00E94040460E082E00E94DD
:101D5000040460E084E00E94040461E088E00E94E2
:101D6000040460E080E10E94040460E080E20E94DC
:101D7000040460E080E40E94040460E080E80E94C3
:101D800004040E947C0B61E086E00E94AF0461E0E5
:101D900085E00E94AF0481E08093280160E080E14B
:101DA0000E94AF0460E081E10E94AF0462E084E041
:101DB0000E94AF0462E08EE00E94AF0461E08EE01A
:101DC0000E94800462E08FE00E94AF0461E08FE037
:101DD0000E948004809170028111D2C08091B8026B
:101DE000982F98609093B80288670E948E030E9493
:101DF000410262E370E080E090E00E94AA0560E0AA
:101E000080E00E9463028AE491E00E94490261E05E
:101E100080E00E94630285E391E00E94490262E053
:101E200080E00E94630280E291E00E94490263E048
:101E300080E00E9463028BE091E00E94490264EF1F
:101E400071E080E090E00E94AA0561E080E00E94DD
:101E5000630286EF90E00E94490262E080E00E9407
:101E6000630281EE90E00E94490263E080E00E94FC
:101E700063028CEC90E00E94490268E873E180E024
:101E800090E00E94AA058091B80287708093B80202
:101E900080670E948E030E94410262E370E080E04E
:101EA00090E00E94AA0560E080E00E94630287EB58
:101EB00090E00E94490261E080E00E94630282EAB1
:101EC00090E00E94490262E080E00E9463028DE897
:101ED00090E00E94490263E080E00E94630288E78C
:101EE00090E00E94490280905E0290905F02C12CB7
:101EF000D12C760100E010E0B12C24E6422E512CCA
:101F0000612C712C8016910664F110935F0200938E
:101F10005E02C701B601A30192010E94ED1981EB97
:101F2000820F0E94BB030A30110551F461E080E08A
:101F30000E94800461E081E00E948004BB24B3948D
:101F4000C8010E949F0A62E370E080E090E00E9476
:101F5000AA050F5F1F4FFFE4CF0ED11CE11CF11C3F
:101F6000D1CFB11008C061E080E00E94800461E040
:101F700081E00E9480040E94410281E0809370020F
:101F800000915E0210915F02C8010E94D1010E947F
:101F9000E405C8010E94140394E6892E912CA12C1B
:101FA000B12C8E010B5E1F4F1E8B0D8B8FB7F894DB
:101FB000C090BF03D090C003E090C103F090C20373
:101FC0008FBF40912703509128036091290370919E
:101FD0002A032FB7F8948091BF039091C003A0917A
:101FE000C103B091C2032FBF84179507A607B70797
:101FF00068F1809122030E9457042091250330E06C
:102000008217930719F12FB7F8948091BF0390912D
:10201000C003A091C103B091C2032FBF209123033D
:1020200030912403820F931FA11DB11D80932703BC
:1020300090932803A0932903B0932A03809125034A
:1020400011E08127809325031093260380912503B7
:1020500081112FC080912603882359F11092260305
:102060008091710290917202A0917302B0917402FA
:10207000A7019601281B390B4A0B5B0BDA01C9013A
:1020800081399140A105B105A0F0C0927102D092B2
:102090007202E0927302F09274020E9441028091F7
:1020A000AD02882331F08091990241E0842780932A
:1020B00099028EE00E948D059C0125503109203641
:1020C000310528F1215931092536310508F456C268
:1020D000265931092135310508F453C224563109F6
:1020E0002536310508F450C228573109213531050C
:1020F00008F44DC28A5892408739910508F44AC2C3
:102100008FE00E945704892B09F03FC046C282E04D
:1021100090E04091AE025091AF026091B002709198
:10212000B10297018601041B150B260B370BB90171
:10213000A801413951406105710538F120916E02C5
:1021400030916F028430910509F458C20CF02BC213
:102150008230910509F024C2C092AE02D092AF0243
:10216000E092B002F092B1022530310509F035C29B
:102170008091680290916902019797FF02C087E001
:1021800090E0909369028093680200916E02109132
:102190006F028091AB029091AC0280179107C9F059
:1021A0000E9441021093AC020093AB028091B702EF
:1021B000882379F0F801EE0FFF1FE25AFD4FE0800F
:1021C000F180C7010E94D1010E94E405C7010E946D
:1021D000140381E00330110538F00430110521F0BB
:1021E0000330110509F080E08093B7020550110912
:1021F00081E00330110508F080E08093B6028FB7CC
:10220000F894C090BF03D090C003E090C103F09059
:10221000C2038FBF8091B702882381F0E0916E02E4
:10222000F0916F02F894809138039091390378947B
:10223000EE0FFF1FE25AFD4F9183808380915D0274
:10224000882359F18091B2029091B302A091B40217
:10225000B091B50297018601081B190B2A0B3B0BA5
:10226000D901C80180319742A105B105B0F01EE542
:10227000612E12E0712E00E911E0D3016C91B2E001
:102280006B0E711CC8010E94DF190F5F1F4F0839C8
:10229000E1E01E0791F710925D028091B2029091E9
:1022A000B302A091B402B091B50297018601081B58
:1022B000190B2A0B3B0BD901C80188389341A105A2
:1022C000B10598F18091AE029091AF02A091B00259
:1022D000B091B102A7019601281B390B4A0B5B0B89
:1022E000DA01C90188389341A105B105F0F041E058
:1022F0004093AD0280916E0290916F02892BB9F0EC
:1023000010926F0210926E021092AC021092AB0209
:1023100000915E0210915F02C8010E94D1010E94EB
:10232000E405C8010E94140302C01092AD0270902F
:10233000B702772009F4B7C080916E0290916F02C6
:10234000FC01EE0FFF1FDF01A25ABD4F0D90BC91A3
:10235000A02DE556FD4F208131812A173B0709F456
:10236000A2C0C092B202D092B302E092B402F09244
:10237000B50251E050935D02B183A0838230910594
:1023800059F134F40097D9F0019709F447C089C096
:102390008330910591F1049709F083C02CE130E07E
:1023A0000E940B1BA50194010E94ED19DA01C901DD
:1023B0000E97A109B1090E94A103806B70C02FE4A0
:1023C00030E00E940B1BA50194010E94ED1981EBE6
:1023D000820F0E94BB0365C02CE130E00E940B1B02
:1023E000A50194010E94ED19DA01C9010E97A10916
:1023F000B1090E94A103806952C02CE130E00E9423
:102400000B1BA50194010E94ED19DA01C9010E9779
:10241000A109B1090E94A103806A41C020915E0216
:1024200030915F02D297A29FC001A39F900DB29FEF
:10243000900D112464E670E00E94F11ACB0177FF41
:1024400002C080E090E0D901A81BB90B8B011616E1
:10245000170614F400E010E0020F131F2FE030E025
:102460000E940B1BA50194010E94ED19DA01C9011C
:102470000F97A109B109819580610E948E032FE019
:1024800030E0D8010E940B1BA50194010E94ED19B8
:10249000DA01C9010F97A109B109819580620E94F3
:1024A0008E031092AD020091B602002319F1E09163
:1024B0006E02F0916F02EE0FFF1FDF01A25ABD4FB7
:1024C0008D919C91E556FD4F208131812817390768
:1024D00089F0C092B202D092B302E092B402F092BC
:1024E000B502A1E0A0935D02918380830E947C0BE2
:1024F0001092AD0210915C021F8B80919A0281179D
:1025000091F0C092B202D092B302E092B402F09283
:10251000B50221E020935D0210939A0280E00E94B0
:10252000AA0B1092AD028091AD02882309F41EC35C
:1025300080915A0290915B02029709F4C6C082E032
:1025400090E090935B0280935A020E94410260E106
:1025500071E081E00E94750268E071E082E00E9413
:10256000750260E071E083E00E94750265E772E049
:1025700084E00E9475020E944102A7C083E090E0BF
:10258000C8CD84E090E0C5CD85E090E0C2CD86E086
:1025900090E0BFCD87E090E0BCCD81E090E0B9CD88
:1025A000039781F008C08630910509F44AC07CF198
:1025B000079709F466C080915C0251E085278093FB
:1025C0005C0236C0C092AE02D092AF02E092B0027E
:1025D000F092B1022530310519F085E090E05EC03F
:1025E00080916802909169020196883091050CF4FF
:1025F000C8CD1092690210926802C7CDA90142505D
:1026000051094330510580F42150310906C0C901F8
:102610000197039738F42F5F3F4F30936F02209359
:102620006E0206C081E090E090936F0280936E028C
:10263000C092AE02D092AF02E092B002F092B1022C
:10264000A4CDC092AE02D092AF02E092B002F0925E
:10265000B1022730310519F087E090E01FC080916A
:102660006C0290916D020196853091052CF4909347
:102670006D0280936C0289CD10926D0210926C02F3
:1026800084CDC092AE02D092AF02E092B002F0923E
:10269000B1022630310539F086E090E090936F0268
:1026A00080936E0272CD80916A0290916B020196C6
:1026B000823091052CF490936B0280936A0265CD71
:1026C00010926B0210926A0260CD80919902882369
:1026D00009F416C100915E0210915F021C8F0B8FEE
:1026E000009160021091610218A30F8FA091620205
:1026F000B09163022CE130E00E940B1BA501940114
:102700000E94ED1929013A011EE0411A51086108A1
:102710007108A0916402B09165022CE130E00E9442
:102720000B1BA50194010E94ED19DA01C9010E9756
:10273000A109B1098BA39CA3ADA3BEA3A09166027E
:10274000B09167022CE130E00E940B1BA5019401BF
:102750000E94ED1969017A019EE0C91AD108E108C9
:10276000F108809168029091690297FD09C0883054
:10277000910514F087E090E08C010F5F1F4F02C0BD
:1027800001E010E01A8F098F80916C0290916D0228
:102790008530910514F084E090E01C0197FF02C0A1
:1027A000212C312C80916A0290916B021816190627
:1027B00014F481E090E08C0197FF02C000E010E08B
:1027C00060E080E00E9463028EEB91E00E9449028B
:1027D0002F89222319F089EB91E014C02FE430E017
:1027E000AB8DBC8D0E940B1BA50194010E94ED19BD
:1027F000DA01C9018F549109A109B1090E94A4020B
:1028000086EB91E00E94490260E08AE00E94630248
:1028100081EB91E00E9449028F8D98A10E94A40251
:102820008EEA91E00E94490261E080E00E9463022A
:1028300089EA91E00E944902C2010E94A40286EA4C
:1028400091E00E94490261E08AE00E94630282EA0C
:1028500091E00E944902898D9A8D0E94A40262E053
:1028600080E00E9463028DE991E00E9449028BA101
:102870009CA10E94A4028AE991E00E94490262E0C0
:102880008AE00E94630232E02316310499F024F4B6
:102890002A94232861F008C083E02816310469F0E7
:1028A00094E02916310461F083E991E00BC08CE8D3
:1028B00091E008C085E891E005C08CE791E002C096
:1028C00084E791E00E94490263E080E00E94630295
:1028D0008FE691E00E944902C6010E94A4028CE6A4
:1028E00091E00E94490263E08AE00E9463020130A5
:1028F000110519F086E691E02FC18FE591E02CC11A
:1029000061E085E00E94800460E085E00E94800430
:102910000BE812E0188F0F8B0DE712E01A8F098F6A
:10292000E9E9CE2EE2E0DE2E78010BE812E060E06D
:1029300086E00E94800483E790E00197F1F782E04F
:102940000E948D05D8018D939D938D0183E00E9497
:102950008D05F701819391937F0161E086E00E94EC
:102960008004C016D10619F760E085E00E9480045B
:1029700061E086E00E94800463E080E00E946302E0
:1029800085EC91E00E94490263E083E10E946302CA
:1029900083EC91E00E9449020E943A0B7BE0D72E23
:1029A000AF89B88D6D917D91B88FAF8BCB01770FCB
:1029B000AA0BBB0BBC01CD0135E0660F771F881F4A
:1029C000991F3A95D1F72FEF33E040E050E00E9495
:1029D000ED192B8F3C8F4D8F5E8F2B8C3C8CE98DAE
:1029E000FA8D61917191FA8FE98FCB01770FAA0B64
:1029F000BB0BBC01CD0145E0660F771F881F991FF7
:102A00004A95D1F72FEF33E040E050E00E94ED19F6
:102A10002F8F38A349A35AA30F8D18A11CA30BA372
:102A200053E0C52E412C512C68E0662E712C17EF17
:102A30001D0D1FA3261437044CF4EB8CFC8CE418FA
:102A4000F508F7FE06C0E12CF12C03C028E0E22EC9
:102A5000F12C0BA11CA1061517054CF40F8D18A124
:102A60000419150917FF05C000E010E002C008E0D6
:102A700010E06C2D8FA10E946302C701019703979C
:102A800028F461E084E493E00E94990AC701049766
:102A9000039710F462E009C027E0E216F10414F095
:102AA00063E003C0EF2829F464E084E493E00E942B
:102AB000990A6C2D8D2D0E946302C801019703971E
:102AC00028F461E084E493E00E94990AC801049725
:102AD000039710F462E013C00730110514F063E0AF
:102AE0000EC0012B59F028E0620E711C38E0430E35
:102AF000511CCA944FEFC4129DCF06C064E084E419
:102B000093E00E94990AEFCFD39432E1D31248CFD9
:102B100025C0A0915E02B0915F022FE430E00E94D8
:102B20000B1BA50194010E94ED19CA01B9016F5454
:102B30007109810991098AE292E00E94490B0E9481
:102B40003A0B80915C02882309F445C061E080E083
:102B50000E94630287EC91E00E94490280E090E0CD
:102B6000892B09F423CA0E94000020CA0023D9F04F
:102B700080915A0290915B02039701F183E090E00B
:102B800090935B0280935A020E94410260E271E0DE
:102B900081E00E94750268E171E082E00E947502A6
:102BA0000E9441020DC0772059F080915A02909105
:102BB0005B02019729F00E94A60C02C07110FBCFA6
:102BC000E0916E02F0916F02E830F10538F6EC5CAE
:102BD000FF4F0C94051B80915E0290915F02BEC076
:102BE00000916802109169020830110514F007E0A5
:102BF00010E017FF02C000E010E0B8016F5F7F4FE8
:102C000081E392E00E94490B0E943A0B61E080E070
:102C10000E946302E12CF12C0E151F0511F462E0F5
:102C200001C061E084E493E00E94990A4FEFE41A46
:102C3000F40A58E0E516F10479F790CF00916A02A2
:102C400010916B021016110614F401E010E017FF4A
:102C500002C000E010E060E080E00E9463028FEEBE
:102C600091E00E9449020E943A0B61E080E00E94DC
:102C700063020130110511F061E001C062E084E4FB
:102C800093E00E94990A86EE91E00E94490262E078
:102C900080E00E9463020130110511F062E001C082
:102CA00061E084E493E00E94990A8CED91E054CFB6
:102CB000A0916202B09163022CE130E00E940B1BF4
:102CC000A50194010E94ED19CA01B9016E50710964
:102CD0008109910988E392E00E94490B0E943A0B16
:102CE000809162029091630239C0A0916402B09118
:102CF00065022CE130E00E940B1BA50194010E94AB
:102D0000ED19CA01B9016E507109810991098DE36C
:102D100092E00E94490B0E943A0B809164029091CC
:102D200065021CC0A0916602B09167022CE130E000
:102D30000E940B1BA50194010E94ED19CA01B90163
:102D40006E5071098109910984E492E00E94490B57
:102D50000E943A0B80916602909167020E949F0A3E
:102D6000FDCE60916002709161028BE492E00E945E
:102D7000490B0E943A0B2090600230906102B10131
:102D800062537109072E000C880B990B0E94BA1828
:102D90002DEC3CEC4CE45EE30E9419192B013C0144
:102DA000CE0101967C01FC0186E081930D891E898C
:102DB000E017F107D1F720E030E0A901C301B2012B
:102DC0000E94E01A87FD6CC020E030E040E85FE33D
:102DD000C301B2010E94E01A87FD34C08E01055F75
:102DE0001F4F188F0F8BCC24C394D12C8601015018
:102DF0001109B6010D2C000C880B990B0E94BA1812
:102E00009B01AC01C301B2010E94E01A181654F4F0
:102E1000AF89B88DE3E0ED93B88FAF8BFFEFCF1A9A
:102E2000DF0AE4CFB801012E000C880B990B0E9439
:102E3000BA189B01AC01C301B2010E943D1A2B01DB
:102E40003C0102C000E010E020E030E040EA50E445
:102E5000C301B2010E9419190E94AA1A9B01AB0179
:102E6000415051094530510508F089C0065F1F4F98
:102E70004230510528F4F701E00FF11F41E0408393
:102E8000AB01435051094230510528F4F701E00FDE
:102E9000F11F82E073C02530310509F070C06AC0AF
:102EA00020E030E040E85FEBC301B2010E94B318BC
:102EB0001816A4F18E01055F1F4F188F0F8BCC24BD
:102EC000CA94DC2C86010F5F1F4FB6010D2C000C3D
:102ED000880B990B0E94BA189B01AC01C301B20187
:102EE0000E94B31887FF0AC0AF89B88DE3E0EE9364
:102EF000B88FAF8BF1E0CF1AD108E4CFB801012E23
:102F0000000C880B990B0E94BA189B01AC01C301FD
:102F1000B2010E943D1A2B013C0102C000E010E00A
:102F200020E030E040EA50E4C301B2010E941919E8
:102F30000E94AA1ADB019B012B5F3F4F2530310510
:102F4000F0F4075F1F4F235031092230310528F478
:102F500025E0F701E00FF11F2083AB014C5F5F4FCD
:102F60004230510528F4F701E00FF11F84E006C05C
:102F7000159629F4F701E00FF11F83E0808332E317
:102F80002316310421F487E08A8788E08B8761E08B
:102F900080E00E946302D7016D917D0184E493E09B
:102FA0000E94990A0D891E890E151F05A1F7D6CD1D
:102FB00000916C0210916D020530110514F004E0CF
:102FC00010E017FF02C000E010E060E080E00E9427
:102FD00063028AE292E00E9449020E943A0B61E099
:102FE00080E00E9463020115110511F061E001C04B
:102FF00062E084E493E00E94990A81E292E00E94F8
:10300000490262E080E00E9463020130110511F084
:1030100061E001C062E084E493E00E94990A87E1E4
:1030200092E00E9449020230110511F061E001C0F6
:1030300062E084E493E00E94990A8EE092E00E94AC
:10304000490263E080E00E9463020330110511F041
:1030500061E001C062E084E493E00E94990A84E0A8
:1030600092E00E9449020430110511F061E001C0B4
:1030700062E084E493E00E94990A8BEF91E06CCDCA
:103080001F93CF93DF93E0E1F3E01382128288EE87
:1030900093E0A0E0B0E084839583A683B7838BE0C0
:1030A00092E091838083E4E4F3E0138212828DE165
:1030B00092E09183808388E084831FEF158389E009
:1030C00086838DE087838CE080878BE081878AE030
:1030D00082871386148615861686178661E080E13E
:1030E0000E94EB04EBE2F3E0108211821282138261
:1030F000158214821782168211861086158A168A06
:1031000081E090E0908F878B80E090E00E94D10179
:10311000E2E2F3E084E0808384EF91E092838183B4
:1031200081E0838314821582168217821086C0E2A2
:10313000D3E087E0888361E00E94AF0460E088818B
:103140000E9480041982ECE1F3E010821182128265
:103150001383DF91CF911F91089580912B038111EB
:103160000C94AC0108950E94F51808F481E00895CC
:10317000E89409C097FB3EF4909580957095619511
:103180007F4F8F4F9F4F9923A9F0F92F96E9BB27C7
:103190009395F695879577956795B795F111F8CF43
:1031A000FAF4BB0F11F460FF1BC06F5F7F4F8F4FAE
:1031B0009F4F16C0882311F096E911C0772321F0A4
:1031C0009EE8872F762F05C0662371F096E8862F3C
:1031D00070E060E02AF09A95660F771F881FDAF793
:1031E000880F9695879597F90895990F0008550FC0
:1031F000AA0BE0E8FEEF16161706E807F907C0F07D
:1032000012161306E407F50798F0621B730B840B84
:10321000950B39F40A2661F0232B242B252B21F45E
:1032200008950A2609F4A140A6958FEF811D811DFE
:1032300008950E942C190C949D190E948F1938F042
:103240000E94961920F0952311F00C9486190C9485
:103250008C1911240C94D1190E94AE1970F3959F0A
:10326000C1F3950F50E0551F629FF001729FBB277D
:10327000F00DB11D639FAA27F00DB11DAA1F649F19
:103280006627B00DA11D661F829F2227B00DA11DCC
:10329000621F739FB00DA11D621F839FA00D611D52
:1032A000221F749F3327A00D611D231F849F600D73
:1032B000211D822F762F6A2F11249F5750409AF09C
:1032C000F1F088234AF0EE0FFF1FBB1F661F771F28
:1032D000881F91505040A9F79E3F510580F00C94F3
:1032E00086190C94D1195F3FE4F3983ED4F3869588
:1032F00077956795B795F795E7959F5FC1F7FE2B93
:10330000880F911D9695879597F9089597F99F676E
:1033100080E870E060E008959FEF80EC089500245D
:103320000A941616170618060906089500240A942A
:1033300012161306140605060895092E0394000CB0
:1033400011F4882352F0BB0F40F4BF2B11F460FF3F
:1033500004C06F5F7F4F8F4F9F4F089557FD905868
:10336000440F551F59F05F3F71F04795880F97FB49
:10337000991F61F09F3F79F0879508951216130603
:103380001406551FF2CF4695F1DF08C01616170632
:103390001806991FF1CF8695710561050894089567
:1033A000E894BB2766277727CB0197F90895F99909
:1033B000FECF92BD81BDF89A992780B50895262F3A
:1033C000F999FECF1FBA92BD81BD20BD0FB6F8940A
:1033D000FA9AF99A0FBE01960895052E97FB1EF4EE
:1033E00000940E94041A57FD07D00E940C1A07FC93
:1033F00003D04EF40C94041A5095409530952195C5
:103400003F4F4F4F5F4F0895909580957095619510
:103410007F4F8F4F9F4F0895A1E21A2EAA1BBB1B0F
:10342000FD010DC0AA1FBB1FEE1FFF1FA217B30790
:10343000E407F50720F0A21BB30BE40BF50B661FA6
:10344000771F881F991F1A9469F76095709580956A
:1034500090959B01AC01BD01CF010895A29FB001E1
:10346000B39FC001A39F700D811D1124911DB29FB8
:10347000700D811D1124911D08955058BB27AA2756
:103480000E94551A0C949D190E948F1938F00E94C1
:10349000961920F039F49F3F19F426F40C948C19F6
:1034A0000EF4E095E7FB0C948619E92F0E94AE1903
:1034B00058F3BA17620773078407950720F079F469
:1034C000A6F50C94D0190EF4E0950B2EBA2FA02D72
:1034D0000B01B90190010C01CA01A0011124FF27C1
:1034E000591B99F0593F50F4503E68F11A16F040BC
:1034F000A22F232F342F4427585FF3CF46953795BB
:103500002795A795F0405395C9F77EF41F16BA0B7F
:10351000620B730B840BBAF09150A1F0FF0FBB1F2D
:10352000661F771F881FC2F70EC0BA0F621F731F76
:10353000841F48F4879577956795B795F7959E3FD3
:1035400008F0B0CF9395880F08F09927EE0F979564
:10355000879508950E94B11A6894B1110C94D119FD
:1035600008950E94B61988F09F5798F0B92F9927AF
:10357000B751B0F0E1F0660F771F881F991F1AF05E
:10358000BA95C9F714C0B13091F00E94D019B1E0DA
:1035900008950C94D019672F782F8827B85F39F0D9
:1035A000B93FCCF3869577956795B395D9F73EF4F7
:1035B00090958095709561957F4F8F4F9F4F08959F
:1035C0000E94F51808F48FEF0895991B79E004C064
:1035D000991F961708F0961B881F7A95C9F7809552
:1035E000089597FB072E16F4009407D077FD09D0B5
:1035F0000E94121B07FC05D03EF4909581959F4FC9
:103600000895709561957F4F0895EE0FFF1F059007
:10361000F491E02D09940E942E1AB7FF0895821BA1
:10362000930B0895AA1BBB1B51E107C0AA1FBB1F28
:10363000A617B70710F0A61BB70B881F991F5A953E
:10364000A9F780959095BC01CD01089581E090E0A7
:10365000F8940C942B1B11E0C2E5D1E004C0FE01EC
:103660000E94051B2196C335D107C9F7F894FFCFF7
:103670001F1F001F1F001F1F0000001F1F001F1F14
:103680000000000000001F1F0000000E0E0E001FB3
:10369000000000000000001F01F2FFF3FFF4FFF53F
:1036A000FFF6FFF7FFF8FFF9FFFAFFFBFFFCFFFD56
:1036B000FFFEFFFFFF00000E000D000C000B000AD4
:1036C00000090008000700060005000400030002CE
:1036D00000010000000010181C1C1810000001035D
:1036E00007070301000000000404000000010101BD
:1036F0000505010101050505050505050515151556
:103700001515151515141414141414141410101080
:103710001414101010C406C40600010102020303B1
:103720000404050506060707080809090A0A0B0B21
:103730000C0C0D0D0E0E0F000100020001010B021A
:10374000030002020305030405040604050503063D
:1037500013040603030303000100020001010F022A
:1037600017000207070707000000001005050706FD
:1037700007080606070507000000007C074F074DF5
:1037800008230747073307240700000000990AC5EC
:10379000064D084C0873656E6400564F4C554D45F8
:1037A00000534F555243450042415353004D494445
:1037B000444C4500545245424C450042414C414E18
:0437C000434500007D
:00000001FF
