:100000000C94EC000C94F3020C94CC020C941401AC
:100010000C9414010C9414010C9414010C9414010C
:100020000C9414010C9414010C9414010C941401FC
:100030000C9414010C9414010C9414010C941401EC
:100040000C94430C0C9414010C9414010C941401A2
:100050000C9414010C9414010C9414010C941401CC
:100060000C941A030C94140120202020202020201E
:1000700020202020202020202020202000202020A0
:100080002020204C4F4144494E4720202020202052
:100090002000202020202020202020202020202080
:1000A0002020202020200020202020202020202070
:1000B0002020202020202020202020002020202060
:1000C0002020202020202020202020202020202030
:1000D00000202020202020424F4F54494E4720200E
:1000E0002020202020002020202020202020202030
:1000F00020202020202020202020002020204D61B2
:10010000646520696E20556B7261696E6520200000
:1001100020202020202020202020202020202020DF
:1001200020202020002020202056657273696F6EE9
:1001300020322E323120202020002020202048494B
:100140002D46492053544552454F2020202000522F
:10015000004C002D2D2D2D2D2D2D204D555445209D
:100160002D2D2D2D2D2D2D0020202000202500208F
:10017000644200200020002A000000000024002724
:10018000002A0000000000250028002B00000000CD
:100190000800020100000304070000000000000046
:1001A0000001020408102040800102040810200110
:1001B000020408102000000000230026002900048B
:1001C00004040404040404020202020202030303FE
:1001D000030303001A15141511241FBECFEFD8E036
:1001E000DEBFCDBF12E0A0E0B1E0E0E2F0E302C08C
:1001F00005900D92A435B107D9F723E0A4E5B2E04C
:1002000001C01D92A93BB207E1F710E0CBEED0E0B0
:1002100004C02197FE010E94F817CA3ED107C9F712
:100220000E948D0C0C9403180C9400000895CF923A
:10023000DF92EF92FF920F931F93CF93DF936C01A6
:100240007A018B01C0E0D0E0CE15DF0581F0D80146
:100250006D918D01D601ED91FC910190F081E02D21
:10026000C6010995892B11F02196EECF7E01C701B9
:10027000DF91CF911F910F91FF90EF90DF90CF9082
:10028000089585ED8093BC008091BC0084FDFCCF77
:100290001092330308954091E902262F30E0240F95
:1002A000311D21323105DCF4209133032430C9F4AF
:1002B000FC0180E090E0861758F43091E90221912A
:1002C000DC01A753BD4FA30FB11D2C930196F3CFB3
:1002D0008091E902680F6093E90280E0089581E06F
:1002E000089582E00895089508950895E0915902CF
:1002F00080915802E81730F4F0E0E755FD4F808117
:1003000090E008958FEF9FEF0895909159028091AA
:100310005802981750F4E92FF0E0E755FD4F20817F
:1003200030E09F5F9093590202C02FEF3FEFC90169
:1003300008958091580290E020915902821B910902
:100340000895CF92DF92EF92FF920F931F93CF9376
:10035000DF937C01CB018A0120913403222389F0B1
:10036000EB016B01C40ED51ECC15DD0569F069915A
:10037000D701ED91FC910190F081E02DC701099525
:10038000F3CF642F0E944B01C801DF91CF911F91E1
:100390000F91FF90EF90DF90CF900895CF93DF9370
:1003A0001F92CDB7DEB76983209134032223D1F0A9
:1003B00020915703203240F021E030E0FC013383EC
:1003C000228380E090E015C080913503E82FF0E0B3
:1003D000EA5CFC4F998190838F5F80933503809313
:1003E000570305C061E0CE0101960E944B0181E0F8
:1003F00090E00F90DF91CF9108954091620350916A
:100400006303E0916003F0916103CA0195958795BC
:1004100020915E0330915F0340FF0AC0D901A80F0D
:10042000B91F4D915C91E40FF51F0190F081E02D13
:10043000820F931F099440915C0350915D03E091FA
:100440005A03F0915B03CA01959587952091580353
:100450003091590340FF0AC0D901A80FB91F4D912F
:100460005C91E40FF51F0190F081E02D820F931F46
:100470000994FC018485A085B18594E0899FA00D35
:10048000B11D1124A60FB11D8C91982F97709487E0
:1004900088718830A9F481E0858B168A2789308D90
:1004A00085859685820F931F968785872585368556
:1004B0008681978182179307DCF48681978116C025
:1004C0008031B1F4158A81E0868B2789308D85854E
:1004D0009685821B930B9687858725853685848133
:1004E00095812817390724F484819581968785871B
:1004F0000895FC01A189B2899C918489982381E0A7
:1005000009F480E09385981731F0838763856260F2
:10051000CF010C9439020895FC01A785B0899C9104
:100520008389982381E009F480E09285981729F067
:1005300082876285CF010C9439020895089580E086
:1005400090E008950E94FE17CF93DF93EC0160E0E6
:100550008E810E94DA0961E08E810E94DA0960E0F2
:100560008E810E94DA098BE891E00197F1F7DF9123
:10057000CF910895882321F0813019F4E99801C0C2
:10058000E898E82FF0E0EE0FFF1FE859FE4F86E1F4
:1005900091E09183808308951F920F920FB60F927E
:1005A00011242F933F934F935F936F937F938F9378
:1005B0009F93AF93BF93EF93FF93E0916A01F09104
:1005C0006B010995FF91EF91BF91AF919F918F9131
:1005D0007F916F915F914F913F912F910F900FBE3F
:1005E0000F901F9018951F920F920FB60F92112423
:1005F0002F933F934F935F936F937F938F939F932B
:10060000AF93BF93EF93FF93E0916801F09169017D
:100610000995FF91EF91BF91AF919F918F917F913C
:100620006F915F914F913F912F910F900FBE0F905F
:100630001F9018951F920F920FB60F9211242F93AF
:100640003F934F935F936F937F938F939F93AF935A
:10065000BF93EF93FF938091B900887F803609F4B0
:100660009CC068F5883209F45BC090F4803109F4CD
:1006700054C038F4882309F4F6C0883009F44DC01A
:10068000F6C0883109F44CC0803209F45DC0EFC077
:10069000803409F468C048F4803309F455C08833C5
:1006A00009F0E5C080933103D8C0803509F44FC00C
:1006B000883509F45DC0883409F0D9C0D6C08839BE
:1006C00009F4C7C0A8F4883709F467C038F488363D
:1006D00009F463C0803709F460C0C9C0883809F4E0
:1006E000B8C0803909F45FC0803809F0C0C05BC071
:1006F000803B09F486C038F4803A09F466C0883A31
:1007000009F47FC0B4C0803C09F4A7C0883C09F458
:10071000A4C0883B09F48AC0AAC080910E0310C00F
:100720009091300380912F03981770F5E09130037A
:1007300081E08E0F80933003F0E0E15FFC4F808119
:100740008093BB0085EC86C0809331038EC0E0911E
:10075000300381E08E0F809330038091BB00F0E086
:10076000E15FFC4F80839091300380912F036EC036
:10077000E091300381E08E0F809330038091BB00C5
:10078000F0E0E15FFC4F80838091320381116DC006
:1007900081E080930D0384EA61C083E0809333039A
:1007A00010920B03CFCF80910B03803208F051C021
:1007B000E0910B0381E08E0F80930B038091BB00CF
:1007C000F0E0E551FD4F8083BDCF85EC8093BC0008
:1007D0001092330380910B03803230F4E0910B03CD
:1007E000F0E0E551FD4F108260910B0370E0E09165
:1007F0005402F09155028BEE92E0099510920B0392
:1008000036C084E0809333031092EA021092E9022A
:10081000E0915602F091570209958091E902811109
:1008200005C081E08093E9021092C902E091EA02DA
:1008300081E08E0F8093EA02F0E0E753FD4F808164
:100840008093BB009091EA028091E902981708F426
:1008500079CF85E88093BC000AC085EC8093BC000A
:100860001092330304C0109231030E944101FF91A2
:10087000EF91BF91AF919F918F917F916F915F9118
:100880004F913F912F910F900FBE0F901F90189591
:10089000882381F08130E9F48DEF91E090936B0132
:1008A00080936A0180916900837F846080936900EE
:1008B000E99A0DC08BE192E0909369018093680101
:1008C000809169008C7F816080936900E89A81E063
:1008D000089580E00895CF92DF92EF92FF920F93F8
:1008E0001F93CF93DF936C017C0187E0E80EF11C2E
:1008F000C0E0D0E0062F10E0B8010C2E02C07595C4
:1009000067950A94E2F76170F70181917F010E9477
:10091000DA092196C430D10579F7C601DF91CF916C
:100920001F910F91FF90EF90DF90CF900C94A40255
:10093000CF92DF92EF92FF920F931F93CF93DF93AB
:10094000EC01F62E642F8C810E94DA098D818F3F95
:1009500019F060E00E94DA098F850F2D10E084FF06
:1009600025C06E0187E0C80ED11CE12CF12CB80126
:100970000E2C02C0759567950A94E2F76170F60136
:1009800081916F010E94DA09FFEFEF1AFF0A88E0F8
:10099000E816F10461F7CE01DF91CF911F910F911D
:1009A000FF90EF90DF90CF900C94A402B80184E008
:1009B000759567958A95E1F7CE010E946B046F2DBE
:1009C000CE01DF91CF911F910F91FF90EF90DF90BB
:1009D000CF900C946B0441E00E94980481E090E079
:1009E0000895CF92DF92EF92FF920F931F93CF93D0
:1009F000DF93EC0161E080E00E94C607BE01DD0FDD
:100A0000880B990B0E9492152DEC3CEC4CE45EE3B4
:100A10000E94F1156B017C0120E030E040E85FE3CB
:100A20000E94B817C0E0D0E087FD28C08E010F5F9C
:100A30001F4FB801012E000C880B990B0E949215D4
:100A40009B01AC01C701B6010E94B81718163CF40F
:100A500063E088E993E00E94EB04E801E7CFBE0180
:100A60000D2E000C880B990B0E9492159B01AC0176
:100A7000C701B6010E9415176B017C0120E030E030
:100A800040EA50E4C701B6010E94F1150E948217A6
:100A90006B017C018B01CB01019785309105E0F45E
:100AA000C431D105CCF4029728F461E088E993E0E1
:100AB0000E94EB0483E0C81AD10882E0C816D10472
:100AC00010F462E004C00530110529F463E088E900
:100AD00093E00E94EB04219684E190E06C01CC1A33
:100AE000DD0AE12CF12CEC14FD046CF4C431D105C9
:100AF00034F466E088E993E00E94EB0421968FEFDE
:100B0000E81AF80AF0CFDF91CF911F910F91FF9073
:100B1000EF90DF90CF90089560E083E10E94C607D8
:100B200080915D02811103C085E791E002C087E7F3
:100B300091E00C94D8070F931F93CF93DF938C0110
:100B4000EB0160E080E00E94C607C8010E94FF0838
:100B500083E791E00E94D807BE01DD0F880B990B57
:100B600097FF03C00E94520903C04AE00E94110986
:100B700080916A0290916B02009719F00297039797
:100B800020F48FE691E00E94D80780916A0290914C
:100B90006B02059721F48CE691E00E94D80788E665
:100BA00091E0DF91CF911F910F910C94D807809124
:100BB0006002909161028830910514F087E090E026
:100BC00097FF02C080E090E00C94D808CF92DF92AB
:100BD000EF92FF920F931F93CF93DF93E0915E020A
:100BE000F0915F022091680230916902225331092D
:100BF0002E9FC0012F9F900D3E9F900D112464E603
:100C000070E00E94C917CB0177FF02C080E090E03E
:100C10008F01081B190B1616170614F460E070E01C
:100C2000EB01CE0FDF1F2FE430E0DF010E94DD1764
:100C300024E6C22ED12CE12CF12CA70196010E94B2
:100C4000C51681EB820F0E94B6082FE030E0D80174
:100C50000E94DD17A70196010E94C516DA01C9019D
:100C60000F97A109B109819580610E9489082FE041
:100C700030E0DE010E94DD17A70196010E94C51633
:100C8000DA01C9010F97A109B109819580620E941B
:100C900089088FE30E9489088FE40E9489088FE504
:100CA0000E9489088FE60E948908A0916202B09193
:100CB00063022CE130E00E94DD17A70196010E943B
:100CC000C516DA01C9010E97A109B1090E949C0855
:100CD00080690E948908A0916402B09165022CE1AC
:100CE00030E00E94DD17A70196010E94C516DA01C7
:100CF000C9010E97A109B1090E949C08806A0E944F
:100D00008908A0916602B09167022CE130E00E9450
:100D1000DD17A70196010E94C516DA01C9010E97D9
:100D2000A109B1090E949C08806B0E9489088091EA
:100D30000C03982F946090930C0384670E94890899
:100D400080910C038D7080930C0380670E9489084A
:100D500090915C0280910C03992331F0982F986058
:100D600090930C03886704C0877080930C0380679E
:100D7000DF91CF911F910F91FF90EF90DF90CF9077
:100D80000C94890881E090E090935B0280935A0272
:100D90000E94BE0760E671E081E00E94F20768E50C
:100DA00071E082E00E94F20760E571E083E00E945A
:100DB000F20768E471E084E00E94F20760E471E009
:100DC00085E00E94F20768E371E086E00E94F20786
:100DD00060E371E087E00E94F20768E271E088E07A
:100DE0000E94F2070C94BE07833081F028F4813012
:100DF00099F08230A1F008958730A9F08830B9F0D9
:100E00008430D1F4809180008F7D03C08091800078
:100E10008F7780938000089584B58F7702C084B562
:100E20008F7D84BD08958091B0008F7703C080913D
:100E3000B0008F7D8093B000089540E0682F88E96E
:100E400093E00C949804CF9310927F0380918103D8
:100E5000823021F0833021F08FEF03C080E001C0A9
:100E600081E090918203923021F0933021F0CFEF16
:100E700003C0C0E001C0C1E0823010F40E94BA0299
:100E8000C23020F48C2FCF910C94BA02CF910895E8
:100E9000EF92FF920F931F93CF93DF937C01EB01AF
:100EA0008A0180917F0381110E94230782E0809351
:100EB000810383E080938203109284031092830362
:100EC000F0928603E09285031093970300939603B4
:100ED000E1ECF1E0E491F0E0EE0FFF1FEB54FE4F88
:100EE0008591949190938F0380938E03E2ECF1E0CF
:100EF000E491F0E0EE0FFF1FEB54FE4F85919491CB
:100F00009093910380939003E3EAF1E0E491E093FE
:100F10009203E4EAF1E0E491E09393038091850386
:100F2000909186038C179D072CF4809185039091F6
:100F300086030BC08091830390918403C817D9075F
:100F40004CF4809183039091840390938D0380935C
:100F50008C0304C0D0938D03C0938C0387EC91E085
:100F6000909388038093870381E080938003DF91CF
:100F7000CF911F910F91FF90EF90089581E00E9413
:100F80001D078BE39FE10197F1F70895643008F0A6
:100F900063E09091AB03691710F06FEF690FE62FD4
:100FA000F0E0E856FC4F9489890F80680C941D0787
:100FB0000F931F93CF93DF938C01C0E0D0E0F80133
:100FC000EC0FFD1F6491662339F041E088E993E05E
:100FD0000E9498042196F3CFCE01DF91CF911F910B
:100FE0000F9108950F931F93CF93DF938B01877019
:100FF00028E0829FC001112480640E941D07E8013F
:10100000085F1F4F699188E993E00E94EB04C017C5
:10101000D107C1F7DF91CF911F910F9108952091D2
:10102000830330918403821793072CF48091830308
:10103000909184030BC0209185033091860328177B
:10104000390724F48091850390918603F894909356
:101050008D0380938C037894089530915703313237
:1010600008F04BC0809133038111FCCF909156035F
:1010700022E02093330321E0209332032FEF2093CB
:1010800031031092300330932F03E6E3F3E0AFE037
:10109000B3E020E0321721F041914D932F5FFACF5A
:1010A00010920E0320910E03990F922B90930E0332
:1010B00090910D03913061F410920D0390910E0305
:1010C0009093BB009091BC0093FDF8CF95EC01C0CC
:1010D00095EE9093BC00909133039230E1F39091A0
:1010E00031039F3F79F080913103803241F080914C
:1010F0003103803331F084E005C081E003C082E039
:1011000001C083E01092350310925703109234030C
:10111000089591E09093340394E4909356031092D1
:10112000350310925703682F84E693E00E94CE01A6
:101130000E942D0890E00895EDE6F1E020E030E017
:10114000419151914817590729F4F901E755FE4F8C
:10115000808108952F5F3F4F2C33310589F787E059
:101160000895682F84E693E00C94CE01CF9391E02C
:101170009093340394E490935603109235031092A5
:10118000570381956AE00E94BD17C82FC295C07FA2
:10119000C92B892F806D90E00E94B108C295CF7055
:1011A0008C2F806E90E00E94B108CF910C942D0896
:1011B000CF93DF93909171039923D9F0682F809199
:1011C000700391E09093340380935603109235039B
:1011D0001092570384E693E00E94CE01EC01019740
:1011E00019F01092710305C00E942D088111F9CFEA
:1011F00002C0C0E0D0E0CE01DF91CF91089500970A
:1012000069F0FC0101900020E9F73197AF01481B1C
:10121000590BBC0188E993E00C94170180E090E041
:1012200008958F929F92AF92BF920F931F93CF9387
:10123000DF93CDB7DEB7A1970FB6F894DEBF0FBE30
:10124000CDBF19A2423008F44AE08E010F5D1F4F56
:10125000842E912CA12CB12CA50194010E94E4169E
:10126000E62FB901CA0101501109EA3014F4E05D1A
:1012700001C0E95CD801EC93232B242B252B61F7CB
:10128000C8010E94FF08A1960FB6F894DEBF0FBEFA
:10129000CDBFDF91CF911F910F91BF90AF909F90E5
:1012A0008F900895CF92DF92EF92FF926B017C01B5
:1012B00041E06DE288E993E00E9498046627772771
:1012C000CB016C197D098E099F094AE00E94110922
:1012D0000196FF90EF90DF90CF900895662339F04C
:1012E00091E0082E01C0990F0A94EAF701C090E03E
:1012F00021E030E001C0220F8A95EAF78091720365
:101300002823322F392380917303832B2095922B2E
:101310008923809373030C94D808909171039923C7
:1013200031F020917003281711F090E018C08093DD
:101330007003911114C08823C1F391E0909371035D
:101340009093340380935603109235031092570301
:101350000E942D0891E0811190E090937103892FF4
:101360000895CF93DF93282F30E0F901E357FE4F24
:101370008491F901EF55FE4FD491F901E154FE4FEC
:10138000C491CC2391F081110E94F406EC2FF0E07F
:10139000EE0FFF1FEB54FE4FA591B491EC91ED239E
:1013A00081E090E021F480E002C080E090E0DF91F5
:1013B000CF9108951F93CF93DF93282F30E0F90149
:1013C000E357FE4F8491F901EF55FE4FD491F90197
:1013D000E154FE4FC491CC23C1F0162F81110E941D
:1013E000F406EC2FF0E0EE0FFF1FED57FE4FA59136
:1013F000B4919FB7F894111104C08C91D095D82363
:1014000002C0EC91DE2BDC939FBFDF91CF911F9147
:101410000895CF93DF9390E0FC01EF55FE4F2491A8
:10142000FC01E154FE4F8491882361F190E0880F24
:10143000991FFC01E758FE4FC591D491FC01ED576F
:10144000FE4FA591B491611109C09FB7F8948881AE
:10145000209582238883EC912E230BC0623061F4A7
:101460009FB7F8948881322F309583238883EC913D
:101470002E2B2C939FBF06C08FB7F894E8812E2B9C
:1014800028838FBFDF91CF910895CF93DF93623090
:1014900028F09091A70398609093A7036093AB0303
:1014A0001092AC0390E49093AD038093AE0390E070
:1014B000805C9F4F8093AF0361E080919C030E940A
:1014C000090A80919D038F3F19F061E00E94090A8B
:1014D00061E080919E030E94090AC8E9D3E09E0161
:1014E000285933408091A70384FD03C084E090E035
:1014F00002C088E090E02196281739072CF461E0BB
:101500008E810E94090AEBCF8BE39DE00197F1F7F2
:1015100060E080919C030E94DA0960E080919E0364
:101520000E94DA0980919D038F3F19F060E00E94CC
:10153000DA098091A70384FD20C063E088E993E085
:101540000E946B04CBE4D6E4CE010197F1F763E08F
:1015500088E993E00E946B042197F1F763E088E942
:1015600093E00E946B0483E592E00197F1F762E05B
:1015700088E993E00E946B0415C080620E941D07F9
:101580008BE496E40197F1F78091A70380620E94B3
:101590001D0783E592E00197F1F78091A703806230
:1015A0000E941D078091A70380620E941D0784E0AE
:1015B0008093A8038CE00E941D070E94BE0782E072
:1015C0008093A90386E0DF91CF910C941D078E30A4
:1015D00008F08E5020916C0190E4299F9001112415
:1015E0008770822B80937C0080917A008064809346
:1015F0007A0080917A0086FDFCCF8091780020915E
:10160000790090E0922B08958F929F92AF92BF92B3
:10161000CF92DF92EF92FF926B017C010E941E0C31
:101620004B015C01C114D104E104F104F1F00E940A
:101630001E0CDC01CB0188199909AA09BB09883E57
:101640009340A105B10570F321E0C21AD108E10869
:10165000F10888EE880E83E0981EA11CB11CC1140D
:10166000D104E104F10419F7DDCFFF90EF90DF9092
:10167000CF90BF90AF909F908F900895DF92EF92A0
:10168000FF920F931F93CF93DF9380917F03882363
:1016900011F010E0CAC0809180038823D1F38091BB
:1016A0008103909182038917A1F3823021F0833066
:1016B00009F0A6C0A8C0923061F3933009F09BC036
:1016C00001E010E0C0E0D0E00EC0933011F3C1E0C3
:1016D000D0E0CF3F2FEFD207E1F20FEF1FEFD7FDA2
:1016E000D8CF17FDD6CF409183035091840320912A
:1016F000850330918603421753075CF662E00E942F
:10170000090A62E0809182030E94090A62E070E0A7
:1017100080E090E00E94040BE0918E03F0918F0333
:10172000908180919203892391E009F490E0909355
:101730008903E0919003F09191039081809193034C
:10174000892391E009F490E090938A0380918A03C1
:1017500090918903880F892B80938B038091870355
:1017600090918803875E914021F480918B038330B0
:10177000F1F186E0D82EDC9EF001DD9EF00D112403
:10178000DF01A85ABC4F9FE7E92E93E0F92EED92B6
:10179000FC92E65AFC4F8CE892E09183808313829E
:1017A00012828C2F0E944804882309F472CFD09EA5
:1017B000F001D19EF00D1124DF01A85ABC4FED922B
:1017C000FC92E65AFC4F89E792E091838083138272
:1017D0001282802F0E944804182F811104C08C2F80
:1017E0000E94BA0222C081E080937F031EC087E07E
:1017F00080938B03BECF0FEF1FEFC0E0D0E071CF1F
:10180000923049F446CF923009F05FCF00E010E00B
:10181000C1E0D0E068CF933029F401E010E0CFEFD1
:10182000DFEF5DCFCFEFDFEF54CF812FDF91CF918F
:101830001F910F91FF90EF90DF9008953FB7F894BC
:101840008091B5039091B603A091B703B091B8030E
:1018500026B5A89B05C02F3F19F00196A11DB11D0B
:101860003FBFBA2FA92F982F8827820F911DA11D46
:10187000B11DBC01CD0142E0660F771F881F991F83
:101880004A95D1F708951F920F920FB60F92112427
:101890002F933F938F939F93AF93BF938091B00308
:1018A0009091B103A091B203B091B3033091B4030E
:1018B00023E0230F2D3720F40196A11DB11D05C093
:1018C00026E8230F0296A11DB11D2093B403809337
:1018D000B0039093B103A093B203B093B30380918C
:1018E000B5039091B603A091B703B091B8030196E8
:1018F000A11DB11D8093B5039093B603A093B703C8
:10190000B093B803BF91AF919F918F913F912F9169
:101910000F900FBE0F901F901895CF93DF93CDB708
:10192000DEB7A5970FB6F894DEBF0FBECDBF789493
:1019300084B5826084BD84B5816084BD85B58260D4
:1019400085BD85B5816085BD80916E008160809385
:101950006E001092810080918100826080938100EE
:1019600080918100816080938100809180008160FE
:10197000809380008091B10084608093B100809159
:10198000B00081608093B00080917A008460809381
:101990007A0080917A00826080937A0080917A0048
:1019A000816080937A0080917A00806880937A00C9
:1019B0001092C10061E080E00E94090A61E081E0CC
:1019C0000E94090A60E080E00E94DA0960E081E09C
:1019D0000E94DA09109259021092580210923503AF
:1019E000109257031092330311E0109332031092B8
:1019F0000D0361E082E10E94DA0961E083E10E9467
:101A0000DA098091B9008E7F8093B9008091B90086
:101A10008D7F8093B90088E48093B80085E480933B
:101A2000BC0083E791E0909357028093560284E7CD
:101A300091E0909355028093540264E084E10E9407
:101A4000450A0E94BE070E94C2061093750361E01A
:101A5000809174030E94DA0972E9E72E72E0F72E92
:101A60008AE692E0D701EEE5F2E0119211921D9222
:101A70001D928E179F07C9F710926B0210926A028F
:101A800010929F0210929E026EE5C62E62E0D62E44
:101A900000E010E0C80180579E4F0E94AF16013051
:101AA000110521F4883008F05CC407C0853628F0A1
:101AB0000530110509F055C482E390E0F6018193E9
:101AC00091936F01F701819391937F010F5F1F4FF6
:101AD00006301105F9F686E991E00E94AF1691E013
:101AE000811101C090E090935C026CE271E080E0B3
:101AF00090E00E94040B84E080930C038FEF0E941F
:101B0000890887EC0E94890880E10E94890880E2A8
:101B10000E94890880E30E94890880E40E94890865
:101B200080E50E94890880E60E94890881E0809310
:101B3000340384E4809356031092350310925703C4
:101B400080ED90E00E94B10880EE90E00E94B10824
:101B50000E942D0880910C0380670E94890887E904
:101B60000E94890887EA0E94890887EB0E948908F9
:101B70000E94E60585E292E00E94FF0880E20E9452
:101B80008D09811103C080E70E948D099091720335
:101B900020917303892F86618093720392609095E0
:101BA000922B8095892B8093730360E081E00E94E3
:101BB0006E0960E082E00E946E0960E084E00E94AD
:101BC0006E0961E088E00E946E090E94D70561E01D
:101BD00086E00E94090A61E085E00E94090A81E02E
:101BE00080936C0160E080E10E94090A60E081E17D
:101BF0000E94090A62E084E00E94090A62E08EE025
:101C00000E94090A61E08EE00E94DA0962E08FE03A
:101C10000E94090A61E08FE00E94DA0980916C025B
:101C20008111C2C080910C03982F986090930C038F
:101C300088670E9489080E94BE0762E370E080E026
:101C400090E00E94040B60E080E00E94C6078AE3F7
:101C500091E00E94D80761E080E00E94C60785E21B
:101C600091E00E94D80762E080E00E94C60780E110
:101C700091E00E94D80763E080E00E94C6078BEFE6
:101C800090E00E94D80764EF71E080E090E00E944D
:101C9000040B61E080E00E94C60786EE90E00E949F
:101CA000D80762E080E00E94C60781ED90E00E94C4
:101CB000D80763E080E00E94C6078CEB90E00E94AA
:101CC000D80768E873E180E090E00E94040B8091FF
:101CD0000C03877080930C0380670E94890861E081
:101CE00080E00E94DA0961E081E00E94DA090E9446
:101CF000BE0762E370E080E090E00E94040B60E0C9
:101D000080E00E94C60787EA90E00E94D80761E061
:101D100080E00E94C60782E990E00E94D80762E056
:101D200080E00E94C6078DE790E00E94D80763E03C
:101D300080E00E94C60788E690E00E94D807A09045
:101D40005E02B0905F02C12CD12C760100E010E061
:101D500054E6452E512C612C712CA016B106FCF0D6
:101D600010935F0200935E02C701B601A3019201C6
:101D70000E94C51681EB820F0E94B608C8010E941E
:101D8000F10462E370E080E090E00E94040B0F5FDA
:101D90001F4FFFE4CF0ED11CE11CF11CDECF0E94CF
:101DA000BE0781E080936C02E0916A02F0916B02C1
:101DB000EE0FFF1FE25AFD4F0081118145E050E018
:101DC000B80184E690E00E9448070E943E0BC801DB
:101DD0000E940F0844E6842E912CA12CB12C1E01E8
:101DE00005E1200E311C8FB7F894C090B003D0905D
:101DF000B103E090B203F090B3038FBF40917B0337
:101E000050917C0360917D0370917E032FB7F8940D
:101E10008091B0039091B103A091B203B091B3034C
:101E20002FBF84179507A607B70768F1809176033F
:101E30000E94B1092091790330E08217930719F1CC
:101E40002FB7F8948091B0039091B103A091B203A1
:101E5000B091B3032FBF2091770330917803820FA5
:101E6000931FA11DB11D80937B0390937C03A093CE
:101E70007D03B0937E038091790391E0892780935D
:101E8000790390937A0380917903811134C0809112
:101E90007A03882381F110927A038091A1029091B4
:101EA000A202A091A302B091A402A7019601281B4F
:101EB000390B4A0B5B0BDA01C90181399140A1054D
:101EC000B105C8F080916A0290916B02853091054E
:101ED00029F410926B0210926A0205C00196909349
:101EE0006B0280936A02C092A102D092A202E09299
:101EF000A302F092A4028EE00E94E70A85369105C3
:101F0000C4F08D3241E094070CF42DC2813951E0C8
:101F100095070CF42BC2853FE1E09E070CF429C223
:101F2000813392400CF428C28FE00E94B109892BC2
:101F300071F581E090E04091A1025091A202609180
:101F4000A3027091A40297018601041B150B260BB6
:101F5000370BB901A8014139514061057105B8F04D
:101F60008330910509F416C20CF009C2029709F4F6
:101F70000CC290915C0281E0892780935C02C09240
:101F8000A102D092A202E092A302F092A402E090F9
:101F90006A02F0906B0280919E0290919F028701ED
:101FA000000F111F8E159F0531F10E94BE07F092A0
:101FB0009F02E0929E02EA94EF2849F46091600249
:101FC0007091610241E050E087E090E009C0F801C3
:101FD000E25AFD4F6081718145E050E084E690E077
:101FE0000E9448070E943E0BF801E25AFD4F808193
:101FF00091810E940F08F89480918C0390918D0339
:102000007894F801E25AFD4F918380838FB7F8945A
:10201000C090B003D090B103E090B203F090B3034E
:102020008FBF80915D02882389F18091A5029091F4
:10203000A602A091A702B091A80297018601081BF1
:10204000190B2A0B3B0BD901C80180319742A1051E
:10205000B105E0F0BEE56B2EB2E07B2E00E911E0A9
:10206000F3016081F2E06F0E711CC8010E94B71687
:102070000F5F1F4F063921E0120791F760915C0254
:1020800086E991E00E94B71610925D028091A50248
:102090009091A602A091A702B091A8029701860193
:1020A000081B190B2A0B3B0BD901C8018838934137
:1020B000A105B105B8F18091A1029091A202A09171
:1020C000A302B091A402A7019601281B390B4A0B69
:1020D0005B0BDA01C90188389341A105B10510F104
:1020E00081E08093A00280916A0290916B02892B1B
:1020F000D9F010926B0210926A0210929F02109215
:102100009E0200915E0210915F0245E050E0B8012E
:1021100084E690E00E9448070E943E0BC8010E949E
:102120000F0802C01092A00200916A0210916B0287
:102130000130110509F4B5C0F801EE0FFF1FDF01F2
:10214000A25ABD4F0D90BC91A02DEE56FD4F80813F
:1021500091818A179B0709F4C2C0C092A502D09250
:10216000A602E092A702F092A80281E080935D02AD
:10217000B183A0830330110569F1C4F40115110581
:10218000E1F00230110509F0A8C02CE130E00E9416
:10219000DD17A50194010E94C516DA01C9010E9749
:1021A000A109B1090E949C08806978C0043011051A
:1021B00011F10530110581F190C02FE430E00E944B
:1021C000DD17A50194010E94C51681EB820F0E94C4
:1021D000B60883C02CE130E00E94DD17A501940110
:1021E0000E94C516DA01C9010E97A109B1090E9422
:1021F0009C08806A53C02CE130E00E94DD17A501E5
:1022000094010E94C516DA01C9010E97A109B1090E
:102210000E949C08806B42C020915E0230915F0258
:10222000D297A29FC001A39F900DB29F900D112441
:1022300064E670E00E94C917CB0177FF02C080E01E
:1022400090E0D901A81BB90BCB011816190614F49C
:1022500080E090E03C01620E731E2FE030E00E94AF
:10226000DD17A50194010E94C516DA01C9010F9777
:10227000A109B109819580610E9489082FE030E0B1
:10228000D3010E94DD17A50194010E94C516DA0151
:10229000C9010F97A109B109819580620E9489083F
:1022A0001CC0809160029091610220919402309153
:1022B00095022817390799F0C092A502D092A6027C
:1022C000E092A702F092A80221E020935D02909391
:1022D0009502809394020E94D7051092A0028091EB
:1022E0005C0290919102981789F0C092A502D09259
:1022F000A602E092A702F092A80291E090935D02FC
:10230000809391020E94E6051092A0022091A00203
:1023100080915A0290915B02222309F4A4C1029792
:1023200009F449C042E050E050935B0240935A02E6
:102330000E94BE0760E171E081E00E94F20768E060
:1023400071E082E00E94F20760E071E083E00E94A9
:10235000F2076DE672E084E00E94F2070E94BE0779
:102360002AC080E0AACB82E090E0E5CD83E090E057
:10237000E2CD84E090E0DFCD85E090E0DCCD8430FC
:10238000910579F0059781F0F4CD10926B021092CF
:102390006A02F5CD02E010E010936B0200936A022E
:1023A000EECD83E090E002C084E090E090936B0279
:1023B00080936A02E4CD61E085E00E94DA0960E082
:1023C00085E00E94DA0903E812E01E8B0D8B05E719
:1023D00012E0188F0F8B81E9C82E82E0D82E780189
:1023E00003E812E060E086E00E94DA0983E790E00B
:1023F0000197F1F782E00E94E70AF8018193919337
:102400008F0183E00E94E70AF701819391937F0196
:1024100061E086E00E94DA09C016D10619F760E093
:1024200085E00E94DA0961E086E00E94DA0963E053
:1024300080E00E94C60781E591E00E94D80763E032
:1024400083E10E94C6078FE491E00E94D8070E94B2
:102450008C0560E080E00E94C60760916002709188
:1024600061026F5F7F4F072E000C880B990B97FF5F
:1024700003C00E94520903C04AE00E941109EBE028
:10248000DE2EED89FE8961917191FE8BED8BCB0182
:10249000770FAA0BBB0BBC01CD0145E0660F771F80
:1024A000881F991F4A95D1F72FEF33E040E050E0A5
:1024B0000E94C516298F3A8F4B8F5C8F098D1A8D1C
:1024C0001AA309A3EF89F88D61917191F88FEF8BB1
:1024D000CB01770FAA0BBB0BBC01CD0155E0660FFA
:1024E000771F881F991F5A95D1F72FEF33E040E0EF
:1024F00050E00E94C5162D8F3E8F4F8F58A30D8D33
:102500001E8D1CA30BA363E0C62E412C512C78E03A
:10251000672E712C17EF1D0D1DA309A11AA1061519
:1025200017054CF4E98CFA8CE418F508F7FE06C0A0
:10253000E12CF12C03C038E0E32EF12C0BA11CA1FF
:10254000061517054CF40D8D1E8D0419150917FF7E
:1025500005C000E010E002C008E010E06C2D8DA185
:102560000E94C607C7010197039728F461E088E934
:1025700093E00E94EB04C7010497039710F462E014
:1025800009C027E0E216F10414F063E003C0EF286D
:1025900029F464E088E993E00E94EB046C2D8D2D12
:1025A0000E94C607C8010197039728F461E088E9F3
:1025B00093E00E94EB04C8010497039710F462E0D3
:1025C00013C00730110514F063E00EC0012B59F061
:1025D00028E0620E711C38E0430E511CCA944FEF84
:1025E000C4129BCF06C064E088E993E00E94EB042C
:1025F000EFCFD39432E1D31244CF2DC00430110574
:102600000CF099C00115110509F074C0A0915E028B
:10261000B0915F022FE430E00E94DD17A501940124
:102620000E94C516CA01B9016F5471098109910947
:102630008AE292E00E949B050E948C0580915C02D8
:10264000882309F452C061E080E00E94C60783E558
:1026500091E00E94D80780E090E0892B09F4C3CB79
:102660000E940000C0CB01301105C1F4039709F4AA
:10267000ADC183E090E090935B0280935A020E9488
:10268000BE0760E271E081E00E94F20768E171E05C
:1026900082E00E94F2070E94BE0798C1019711F0E4
:1026A0000E94C2060330110509F0A8CFA091640270
:1026B000B09165022CE130E00E94DD17A501940184
:1026C0000E94C516CA01B9016E50710981099109AC
:1026D00086E392E00E949B050E948C058091640233
:1026E000909165020E94F104B6CF80915E029091B4
:1026F0005F02F8CF0230110509F0ADCFA091620260
:10270000B09163022CE130E00E94DD17A501940135
:102710000E94C516CA01B9016E507109810991095B
:1027200081E392E00E949B050E948C0580916202E9
:1027300090916302D7CF04301105E9F4A0916602AD
:10274000B09167022CE130E00E94DD17A5019401F1
:102750000E94C516CA01B9016E507109810991091B
:102760008DE392E00E949B050E948C058091660299
:1027700090916702B7CF0530110509F06CCF6091D9
:1027800068027091690284E492E00E949B050E94B5
:102790008C050091680210916902188F0F8BB801A7
:1027A00062537109072E000C880B990B0E94921539
:1027B0002DEC3CEC4CE45EE30E94F1152B013C0156
:1027C0009E012F5F3F4F7901F90186E081932E161C
:1027D0003F06E1F720E030E0A901C301B2010E9409
:1027E000B81787FD6CC020E030E040E85FE3C3012C
:1027F000B2010E94B81787FD34C08E01055F1F4FDC
:102800001E8B0D8BCC24C394D12C86010150110951
:10281000B6010D2C000C880B990B0E9492159B01A0
:10282000AC01C301B2010E94B817181654F4ED8927
:10283000FE8903E00193FE8BED8B1FEFC11AD10AD5
:10284000E4CFB801012E000C880B990B0E94921561
:102850009B01AC01C301B2010E9415172B013C0181
:1028600002C000E010E020E030E040EA50E4C301A4
:10287000B2010E94F1150E9482179B01AB014150E9
:1028800051094530510508F089C0065F1F4F42309D
:10289000510528F441E0F701E00FF11F4083AB013F
:1028A000435051094230510528F4F701E00FF11F60
:1028B00082E073C02530310509F070C06AC020E0A5
:1028C00030E040E85FEBC301B2010E948B1518169F
:1028D000A4F18E01055F1F4F1E8B0D8BCC24CA9473
:1028E000DC2C86010F5F1F4FB6010D2C000C880BEE
:1028F000990B0E9492159B01AC01C301B2010E9489
:102900008B1587FF0AC0ED89FE8903E00293FE8BD9
:10291000ED8B11E0C11AD108E4CFB801012E000CF3
:10292000880B990B0E9492159B01AC01C301B20167
:102930000E9415172B013C0102C000E010E020E0CE
:1029400030E040EA50E4C301B2010E94F1150E9458
:102950008217DB019B012B5F3F4F25303105F0F4DF
:10296000075F1F4F235031092230310528F425E03D
:10297000F701E00FF11F2083AB014C5F5F4F423046
:10298000510528F4F701E00FF11F84E006C0159609
:1029900029F4F701E00FF11F83E080830F89188D80
:1029A0000233110521F487E08A8788E08B8761E094
:1029B00080E00E94C607F70161917F0188E993E0FA
:1029C0000E94EB042E143F04B1F745CE0091600243
:1029D000109161020830110514F007E010E017FFB4
:1029E00002C000E010E0B8016F5F7F4F8CE492E01E
:1029F0000E949B050E948C0561E080E00E94C60752
:102A0000E12CF12C0E151F0511F462E001C061E00C
:102A100088E993E00E94EB044FEFE41AF40A58E0CF
:102A2000E516F10479F717CE80917F0381110C949C
:102A3000230708951F93CF93DF93E4E6F3E0138217
:102A4000128288EE93E0A0E0B0E084839583A683B1
:102A5000B7838BE092E091838083E8E9F3E013820F
:102A600012828DE192E09183808388E084831FEF5E
:102A7000158389E086838DE087838CE080878BE0F7
:102A800081878AE0828713861486158616861786C4
:102A900061E080E10E94450AEFE7F3E010821182D5
:102AA0001282138215821482178216821186108672
:102AB000158A168A81E090E0908F878B45E050E080
:102AC00060E070E084E690E00E944807E6E7F3E00B
:102AD00084E0808384EF91E09283818381E083832B
:102AE00014821582168217821086C4E7D3E087E02D
:102AF000888361E00E94090A60E088810E94DA0907
:102B00001982E0E7F3E01082118212821383DF91D1
:102B1000CF911F9108950E94CD1508F481E008958A
:102B2000E89409C097FB3EF4909580957095619567
:102B30007F4F8F4F9F4F9923A9F0F92F96E9BB271D
:102B40009395F695879577956795B795F111F8CF99
:102B5000FAF4BB0F11F460FF1BC06F5F7F4F8F4F04
:102B60009F4F16C0882311F096E911C0772321F0FA
:102B70009EE8872F762F05C0662371F096E8862F92
:102B800070E060E02AF09A95660F771F881FDAF7E9
:102B9000880F9695879597F90895990F0008550F16
:102BA000AA0BE0E8FEEF16161706E807F907C0F0D3
:102BB00012161306E407F50798F0621B730B840BDB
:102BC000950B39F40A2661F0232B242B252B21F4B5
:102BD00008950A2609F4A140A6958FEF811D811D55
:102BE00008950E9404160C9475160E94671638F01A
:102BF0000E946E1620F0952311F00C945E160C9432
:102C0000641611240C94A9160E94861670F3959FE1
:102C1000C1F3950F50E0551F629FF001729FBB27D3
:102C2000F00DB11D639FAA27F00DB11DAA1F649F6F
:102C30006627B00DA11D661F829F2227B00DA11D22
:102C4000621F739FB00DA11D621F839FA00D611DA8
:102C5000221F749F3327A00D611D231F849F600DC9
:102C6000211D822F762F6A2F11249F5750409AF0F2
:102C7000F1F088234AF0EE0FFF1FBB1F661F771F7E
:102C8000881F91505040A9F79E3F510580F00C9449
:102C90005E160C94A9165F3FE4F3983ED4F3869534
:102CA00077956795B795F795E7959F5FC1F7FE2BE9
:102CB000880F911D9695879597F9089597F99F67C5
:102CC00080E870E060E008959FEF80EC08950024B4
:102CD0000A941616170618060906089500240A9481
:102CE00012161306140605060895092E0394000C07
:102CF00011F4882352F0BB0F40F4BF2B11F460FF96
:102D000004C06F5F7F4F8F4F9F4F089557FD9058BE
:102D1000440F551F59F05F3F71F04795880F97FB9F
:102D2000991F61F09F3F79F0879508951216130659
:102D30001406551FF2CF4695F1DF08C01616170688
:102D40001806991FF1CF86957105610508940895BD
:102D5000E894BB2766277727CB0197F90895F9995F
:102D6000FECF92BD81BDF89A992780B50895262F90
:102D7000F999FECF1FBA92BD81BD20BD0FB6F89460
:102D8000FA9AF99A0FBE01960895052E97FB1EF444
:102D900000940E94DC1657FD07D00E94E41607FC41
:102DA00003D04EF40C94DC16509540953095219547
:102DB0003F4F4F4F5F4F0895909580957095619567
:102DC0007F4F8F4F9F4F0895A1E21A2EAA1BBB1B66
:102DD000FD010DC0AA1FBB1FEE1FFF1FA217B307E7
:102DE000E407F50720F0A21BB30BE40BF50B661FFD
:102DF000771F881F991F1A9469F7609570958095C1
:102E000090959B01AC01BD01CF010895A29FB00137
:102E1000B39FC001A39F700D811D1124911DB29F0E
:102E2000700D811D1124911D08955058BB27AA27AC
:102E30000E942D170C9475160E94671638F00E9498
:102E40006E1620F039F49F3F19F426F40C946416A2
:102E50000EF4E095E7FB0C945E16E92F0E948616AF
:102E600058F3BA17620773078407950720F079F4BF
:102E7000A6F50C94A8160EF4E0950B2EBA2FA02DF3
:102E80000B01B90190010C01CA01A0011124FF2717
:102E9000591B99F0593F50F4503E68F11A16F04012
:102EA000A22F232F342F4427585FF3CF4695379511
:102EB0002795A795F0405395C9F77EF41F16BA0BD6
:102EC000620B730B840BBAF09150A1F0FF0FBB1F84
:102ED000661F771F881FC2F70EC0BA0F621F731FCD
:102EE000841F48F4879577956795B795F7959E3F2A
:102EF00008F0B0CF9395880F08F09927EE0F9795BB
:102F0000879508950E9489176894B1110C94A916A9
:102F100008950E948E1688F09F5798F0B92F992730
:102F2000B751B0F0E1F0660F771F881F991F1AF0B4
:102F3000BA95C9F714C0B13091F00E94A816B1E05B
:102F400008950C94A816672F782F8827B85F39F05A
:102F5000B93FCCF3869577956795B395D9F73EF44D
:102F600090958095709561957F4F8F4F9F4F0895F5
:102F70000E94CD1508F48FEF0895991B79E004C0E5
:102F8000991F961708F0961B881F7A95C9F78095A8
:102F9000089597FB072E16F4009407D077FD09D00B
:102FA0000E94E41707FC05D03EF4909581959F4F51
:102FB0000895709561957F4F08950E940617B7FF99
:102FC0000895821B930B0895AA1BBB1B51E107C0F8
:102FD000AA1FBB1FA617B70710F0A61BB70B881FA9
:102FE000991F5A95A9F780959095BC01CD01089538
:102FF000EE0FFF1F0590F491E02D099481E090E021
:10300000F8940C94031810E0CBEED0E004C0FE015D
:103010000E94F8172196CC3ED107C9F7F894FFCF4C
:103020001F1F001F1F001F1F0000001F1F001F1F6A
:103030000000000000001F1F0000000E0E0E001F09
:10304000000000000000001F0010181C1C181000D9
:103050000001030707030100000000040400000052
:103060000101010505010101050505050505050528
:103070001515151515151515141414141414141408
:1030800010101014141010101601160101F2FFF3A5
:10309000FFF4FFF5FFF6FFF7FFF8FFF9FFFAFFFB7C
:1030A000FFFCFFFDFFFEFFFFFF00000E000D000C08
:1030B000000B000A000900080007000600050004D4
:1030C00000030002000100000000010102020303EE
:1030D0000404050506060707080809090A0A0B0B78
:1030E0000C0C0D0D0E0E0F000100020001010B0271
:1030F0000300020203050304050406040505030694
:1031000013040603030303000100020001010F0280
:103110001700020707070700000000100505070653
:103120000708060607050700000000CE01A1019F61
:1031300002750199018501760100000000EB04177A
:10314000019F029E0273656E6400564F4C554D45BB
:103150000042415353004D4944444C4500545245AC
:10316000424C450042414C414E434500534F55525D
:0431700043450000D3
:00000001FF
